{
  "address": "0xb87DfCb4b76AE31dc65d242588Af2E17a79A2F76",
  "abi": [
    {
      "inputs": [
        {
          "internalType": "address",
          "name": "_oracleCoordinator",
          "type": "address"
        },
        {
          "internalType": "address",
          "name": "initialOwner",
          "type": "address"
        },
        {
          "internalType": "address",
          "name": "chainlinkRouter",
          "type": "address"
        }
      ],
      "stateMutability": "nonpayable",
      "type": "constructor"
    },
    {
      "inputs": [],
      "name": "EmptyArgs",
      "type": "error"
    },
    {
      "inputs": [],
      "name": "EmptyOracleApiBaseUrl",
      "type": "error"
    },
    {
      "inputs": [],
      "name": "EmptySource",
      "type": "error"
    },
    {
      "inputs": [],
      "name": "EnforcedPause",
      "type": "error"
    },
    {
      "inputs": [],
      "name": "ExpectedPause",
      "type": "error"
    },
    {
      "inputs": [],
      "name": "InvalidCallbackGasLimit",
      "type": "error"
    },
    {
      "inputs": [],
      "name": "InvalidChainlinkRouter",
      "type": "error"
    },
    {
      "inputs": [],
      "name": "InvalidDonId",
      "type": "error"
    },
    {
      "inputs": [],
      "name": "InvalidFunctionsRouter",
      "type": "error"
    },
    {
      "inputs": [
        {
          "internalType": "uint256",
          "name": "outcome",
          "type": "uint256"
        }
      ],
      "name": "InvalidOracleOutcome",
      "type": "error"
    },
    {
      "inputs": [],
      "name": "InvalidPolicyId",
      "type": "error"
    },
    {
      "inputs": [],
      "name": "InvalidSubscriptionId",
      "type": "error"
    },
    {
      "inputs": [],
      "name": "NoInlineSecrets",
      "type": "error"
    },
    {
      "inputs": [],
      "name": "OnlyRouterCanFulfill",
      "type": "error"
    },
    {
      "inputs": [
        {
          "internalType": "uint256",
          "name": "policyId",
          "type": "uint256"
        }
      ],
      "name": "PolicyEvaluationAlreadyRequested",
      "type": "error"
    },
    {
      "inputs": [
        {
          "internalType": "bytes32",
          "name": "requestId",
          "type": "bytes32"
        }
      ],
      "name": "UnexpectedRequestID",
      "type": "error"
    },
    {
      "anonymous": false,
      "inputs": [
        {
          "indexed": true,
          "internalType": "uint64",
          "name": "subscriptionId",
          "type": "uint64"
        },
        {
          "indexed": false,
          "internalType": "uint32",
          "name": "callbackGasLimit",
          "type": "uint32"
        },
        {
          "indexed": true,
          "internalType": "bytes32",
          "name": "donId",
          "type": "bytes32"
        },
        {
          "indexed": false,
          "internalType": "string",
          "name": "oracleApiBaseUrl",
          "type": "string"
        }
      ],
      "name": "ChainlinkConfigUpdated",
      "type": "event"
    },
    {
      "anonymous": false,
      "inputs": [
        {
          "indexed": true,
          "internalType": "uint256",
          "name": "policyId",
          "type": "uint256"
        },
        {
          "indexed": false,
          "internalType": "uint8",
          "name": "outcome",
          "type": "uint8"
        },
        {
          "indexed": false,
          "internalType": "uint256",
          "name": "delayMinutes",
          "type": "uint256"
        },
        {
          "indexed": true,
          "internalType": "address",
          "name": "caller",
          "type": "address"
        }
      ],
      "name": "ConsensusResultSubmitted",
      "type": "event"
    },
    {
      "anonymous": false,
      "inputs": [
        {
          "indexed": true,
          "internalType": "address",
          "name": "newFunctionsRouter",
          "type": "address"
        }
      ],
      "name": "FunctionsRouterUpdated",
      "type": "event"
    },
    {
      "anonymous": false,
      "inputs": [
        {
          "indexed": true,
          "internalType": "address",
          "name": "from",
          "type": "address"
        },
        {
          "indexed": true,
          "internalType": "address",
          "name": "to",
          "type": "address"
        }
      ],
      "name": "OwnershipTransferRequested",
      "type": "event"
    },
    {
      "anonymous": false,
      "inputs": [
        {
          "indexed": true,
          "internalType": "address",
          "name": "from",
          "type": "address"
        },
        {
          "indexed": true,
          "internalType": "address",
          "name": "to",
          "type": "address"
        }
      ],
      "name": "OwnershipTransferred",
      "type": "event"
    },
    {
      "anonymous": false,
      "inputs": [
        {
          "indexed": false,
          "internalType": "address",
          "name": "account",
          "type": "address"
        }
      ],
      "name": "Paused",
      "type": "event"
    },
    {
      "anonymous": false,
      "inputs": [
        {
          "indexed": true,
          "internalType": "bytes32",
          "name": "chainlinkRequestId",
          "type": "bytes32"
        },
        {
          "indexed": true,
          "internalType": "uint256",
          "name": "policyId",
          "type": "uint256"
        },
        {
          "indexed": false,
          "internalType": "bytes",
          "name": "err",
          "type": "bytes"
        }
      ],
      "name": "PolicyEvaluationFailed",
      "type": "event"
    },
    {
      "anonymous": false,
      "inputs": [
        {
          "indexed": true,
          "internalType": "bytes32",
          "name": "chainlinkRequestId",
          "type": "bytes32"
        },
        {
          "indexed": true,
          "internalType": "uint256",
          "name": "policyId",
          "type": "uint256"
        },
        {
          "indexed": false,
          "internalType": "uint8",
          "name": "outcome",
          "type": "uint8"
        },
        {
          "indexed": false,
          "internalType": "uint256",
          "name": "delayMinutes",
          "type": "uint256"
        },
        {
          "indexed": true,
          "internalType": "address",
          "name": "caller",
          "type": "address"
        }
      ],
      "name": "PolicyEvaluationFulfilled",
      "type": "event"
    },
    {
      "anonymous": false,
      "inputs": [
        {
          "indexed": true,
          "internalType": "bytes32",
          "name": "chainlinkRequestId",
          "type": "bytes32"
        },
        {
          "indexed": true,
          "internalType": "uint256",
          "name": "policyId",
          "type": "uint256"
        },
        {
          "indexed": false,
          "internalType": "string",
          "name": "requestUrl",
          "type": "string"
        }
      ],
      "name": "PolicyEvaluationRequested",
      "type": "event"
    },
    {
      "anonymous": false,
      "inputs": [
        {
          "indexed": true,
          "internalType": "bytes32",
          "name": "id",
          "type": "bytes32"
        }
      ],
      "name": "RequestFulfilled",
      "type": "event"
    },
    {
      "anonymous": false,
      "inputs": [
        {
          "indexed": true,
          "internalType": "bytes32",
          "name": "id",
          "type": "bytes32"
        }
      ],
      "name": "RequestSent",
      "type": "event"
    },
    {
      "anonymous": false,
      "inputs": [
        {
          "indexed": false,
          "internalType": "address",
          "name": "account",
          "type": "address"
        }
      ],
      "name": "Unpaused",
      "type": "event"
    },
    {
      "inputs": [],
      "name": "acceptOwnership",
      "outputs": [],
      "stateMutability": "nonpayable",
      "type": "function"
    },
    {
      "inputs": [
        {
          "internalType": "uint256",
          "name": "",
          "type": "uint256"
        }
      ],
      "name": "activeChainlinkRequestIdByPolicyId",
      "outputs": [
        {
          "internalType": "bytes32",
          "name": "",
          "type": "bytes32"
        }
      ],
      "stateMutability": "view",
      "type": "function"
    },
    {
      "inputs": [],
      "name": "callbackGasLimit",
      "outputs": [
        {
          "internalType": "uint32",
          "name": "",
          "type": "uint32"
        }
      ],
      "stateMutability": "view",
      "type": "function"
    },
    {
      "inputs": [],
      "name": "donId",
      "outputs": [
        {
          "internalType": "bytes32",
          "name": "",
          "type": "bytes32"
        }
      ],
      "stateMutability": "view",
      "type": "function"
    },
    {
      "inputs": [],
      "name": "functionsRouter",
      "outputs": [
        {
          "internalType": "address",
          "name": "",
          "type": "address"
        }
      ],
      "stateMutability": "view",
      "type": "function"
    },
    {
      "inputs": [],
      "name": "getChainlinkRouter",
      "outputs": [
        {
          "internalType": "address",
          "name": "",
          "type": "address"
        }
      ],
      "stateMutability": "view",
      "type": "function"
    },
    {
      "inputs": [
        {
          "internalType": "bytes32",
          "name": "requestId",
          "type": "bytes32"
        },
        {
          "internalType": "bytes",
          "name": "response",
          "type": "bytes"
        },
        {
          "internalType": "bytes",
          "name": "err",
          "type": "bytes"
        }
      ],
      "name": "handleOracleFulfillment",
      "outputs": [],
      "stateMutability": "nonpayable",
      "type": "function"
    },
    {
      "inputs": [],
      "name": "lastError",
      "outputs": [
        {
          "internalType": "bytes",
          "name": "",
          "type": "bytes"
        }
      ],
      "stateMutability": "view",
      "type": "function"
    },
    {
      "inputs": [],
      "name": "lastRequestId",
      "outputs": [
        {
          "internalType": "bytes32",
          "name": "",
          "type": "bytes32"
        }
      ],
      "stateMutability": "view",
      "type": "function"
    },
    {
      "inputs": [],
      "name": "lastResponse",
      "outputs": [
        {
          "internalType": "bytes",
          "name": "",
          "type": "bytes"
        }
      ],
      "stateMutability": "view",
      "type": "function"
    },
    {
      "inputs": [],
      "name": "oracleApiBaseUrl",
      "outputs": [
        {
          "internalType": "string",
          "name": "",
          "type": "string"
        }
      ],
      "stateMutability": "view",
      "type": "function"
    },
    {
      "inputs": [],
      "name": "oracleCoordinator",
      "outputs": [
        {
          "internalType": "address",
          "name": "",
          "type": "address"
        }
      ],
      "stateMutability": "view",
      "type": "function"
    },
    {
      "inputs": [],
      "name": "owner",
      "outputs": [
        {
          "internalType": "address",
          "name": "",
          "type": "address"
        }
      ],
      "stateMutability": "view",
      "type": "function"
    },
    {
      "inputs": [],
      "name": "pause",
      "outputs": [],
      "stateMutability": "nonpayable",
      "type": "function"
    },
    {
      "inputs": [],
      "name": "paused",
      "outputs": [
        {
          "internalType": "bool",
          "name": "",
          "type": "bool"
        }
      ],
      "stateMutability": "view",
      "type": "function"
    },
    {
      "inputs": [
        {
          "internalType": "bytes32",
          "name": "",
          "type": "bytes32"
        }
      ],
      "name": "policyIdByChainlinkRequestId",
      "outputs": [
        {
          "internalType": "uint256",
          "name": "",
          "type": "uint256"
        }
      ],
      "stateMutability": "view",
      "type": "function"
    },
    {
      "inputs": [
        {
          "internalType": "uint256",
          "name": "policyId",
          "type": "uint256"
        }
      ],
      "name": "requestPolicyEvaluation",
      "outputs": [
        {
          "internalType": "bytes32",
          "name": "",
          "type": "bytes32"
        }
      ],
      "stateMutability": "nonpayable",
      "type": "function"
    },
    {
      "inputs": [
        {
          "internalType": "address",
          "name": "newFunctionsRouter",
          "type": "address"
        }
      ],
      "name": "setFunctionsRouter",
      "outputs": [],
      "stateMutability": "nonpayable",
      "type": "function"
    },
    {
      "inputs": [
        {
          "internalType": "uint256",
          "name": "policyId",
          "type": "uint256"
        },
        {
          "internalType": "uint8",
          "name": "outcome",
          "type": "uint8"
        },
        {
          "internalType": "uint256",
          "name": "delayMinutes",
          "type": "uint256"
        }
      ],
      "name": "submitConsensusResult",
      "outputs": [],
      "stateMutability": "nonpayable",
      "type": "function"
    },
    {
      "inputs": [],
      "name": "subscriptionId",
      "outputs": [
        {
          "internalType": "uint64",
          "name": "",
          "type": "uint64"
        }
      ],
      "stateMutability": "view",
      "type": "function"
    },
    {
      "inputs": [
        {
          "internalType": "address",
          "name": "to",
          "type": "address"
        }
      ],
      "name": "transferOwnership",
      "outputs": [],
      "stateMutability": "nonpayable",
      "type": "function"
    },
    {
      "inputs": [],
      "name": "unpause",
      "outputs": [],
      "stateMutability": "nonpayable",
      "type": "function"
    },
    {
      "inputs": [
        {
          "internalType": "uint64",
          "name": "newSubscriptionId",
          "type": "uint64"
        },
        {
          "internalType": "uint32",
          "name": "newCallbackGasLimit",
          "type": "uint32"
        },
        {
          "internalType": "bytes32",
          "name": "newDonId",
          "type": "bytes32"
        },
        {
          "internalType": "string",
          "name": "newOracleApiBaseUrl",
          "type": "string"
        }
      ],
      "name": "updateChainlinkConfig",
      "outputs": [],
      "stateMutability": "nonpayable",
      "type": "function"
    }
  ],
  "transactionHash": "0x2df87d24348719c92ea5367e6a4f356a5ce35b9e64323879e4e84f89e2f83d64",
  "args": [
    "0x29675C0F6593D9Fd290CC4f67ac0bFB324a853D5",
    "0x7ab4b089C35F0502d3b739a5A84c2DcfC3b3d990",
    "0xb83E47C2bC239B3bf370bc41e1459A34b41238D0"
  ],
  "numDeployments": 3,
  "solcInputHash": "c24ce6edd3f221693ecca275c4b41925",
  "bytecode": "0x60c060405234801561001057600080fd5b5060405161281f38038061281f83398101604081905261002f9161021f565b6001600160a01b038082166080528290819060009082166100975760405162461bcd60e51b815260206004820152601860248201527f43616e6e6f7420736574206f776e657220746f207a65726f000000000000000060448201526064015b60405180910390fd5b600080546001600160a01b0319166001600160a01b03848116919091179091558116156100c7576100c78161015a565b5050506001600160a01b0383166101205760405162461bcd60e51b815260206004820152601a60248201527f496e76616c6964206f7261636c6520636f6f7264696e61746f72000000000000604482015260640161008e565b6001600160a01b038116610147576040516302bf405560e21b815260040160405180910390fd5b50506001600160a01b031660a052610262565b336001600160a01b038216036101b25760405162461bcd60e51b815260206004820152601760248201527f43616e6e6f74207472616e7366657220746f2073656c66000000000000000000604482015260640161008e565b600180546001600160a01b0319166001600160a01b0383811691821790925560008054604051929316917fed8889f560326eb138920d842192f0eb3dd22b4f139c87a2c57538e05bae12789190a350565b80516001600160a01b038116811461021a57600080fd5b919050565b60008060006060848603121561023457600080fd5b61023d84610203565b925061024b60208501610203565b915061025960408501610203565b90509250925092565b60805160a05161257c6102a3600039600081816102540152818161071e0152610d360152600081816101e101528181610373015261130a015261257c6000f3fe608060405234801561001057600080fd5b506004361061014d5760003560e01c806379cb62b0116100c3578063b3d31a4e1161007c578063b3d31a4e1461030b578063b79ea77f1461031e578063d58f05da14610331578063e1bc36c214610344578063f2fde38b1461034c578063fc2a88c31461035f57600080fd5b806379cb62b0146102a35780638456cb59146102b65780638da5cb5b146102be5780638dbe7b9d146102cf5780638e72f6c3146102d8578063a0e14e2d146102eb57600080fd5b80633898e1d1116101155780633898e1d1146102195780633f4ba83a14610247578063407726ac1461024f5780635c975abb1461027657806362747e421461029357806379ba50971461029b57600080fd5b806309c1ba2e146101525780630ca761751461018957806324f746971461019e57806329f0de3f146101ca578063371a2d74146101df575b600080fd5b60025461016c90600160a01b90046001600160401b031681565b6040516001600160401b0390911681526020015b60405180910390f35b61019c610197366004611a75565b610368565b005b6002546101b590600160e01b900463ffffffff1681565b60405163ffffffff9091168152602001610180565b6101d26103ec565b6040516101809190611b35565b7f00000000000000000000000000000000000000000000000000000000000000005b6040516001600160a01b039091168152602001610180565b610239610227366004611b48565b60096020526000908152604090205481565b604051908152602001610180565b61019c61047a565b6102017f000000000000000000000000000000000000000000000000000000000000000081565b600154600160a01b900460ff166040519015158152602001610180565b6101d261048c565b61019c610499565b61019c6102b1366004611b61565b610548565b61019c610678565b6000546001600160a01b0316610201565b61023960035481565b61019c6102e6366004611c15565b610688565b6102396102f9366004611b48565b60086020526000908152604090205481565b610239610319366004611b48565b6107c7565b61019c61032c366004611c53565b610b73565b600254610201906001600160a01b031681565b6101d2610bec565b61019c61035a366004611c53565b610bf9565b61023960055481565b336001600160a01b037f000000000000000000000000000000000000000000000000000000000000000016146103b15760405163c6829f8360e01b815260040160405180910390fd5b6103bc838383610c0d565b60405183907f85e1543bf2f84fe80c6badbce3648c8539ad1df4d2b3d822938ca0538be727e690600090a2505050565b600780546103f990611c7c565b80601f016020809104026020016040519081016040528092919081815260200182805461042590611c7c565b80156104725780601f1061044757610100808354040283529160200191610472565b820191906000526020600020905b81548152906001019060200180831161045557829003601f168201915b505050505081565b610482610de4565b61048a610e37565b565b600680546103f990611c7c565b6001546001600160a01b031633146104f15760405162461bcd60e51b815260206004820152601660248201527526bab9ba10313290383937b837b9b2b21037bbb732b960511b60448201526064015b60405180910390fd5b60008054336001600160a01b0319808316821784556001805490911690556040516001600160a01b0390921692909183917f8be0079c531659141344cd1fd0a4f28419497f9722a3daafe3b4186f6b6457e091a350565b610550610de4565b846001600160401b031660000361057a57604051630ebd8d1960e11b815260040160405180910390fd5b8363ffffffff166000036105a15760405163fe7036d760e01b815260040160405180910390fd5b826105bf576040516391f7443960e01b815260040160405180910390fd5b60008190036105e157604051630bd6cafd60e11b815260040160405180910390fd5b600280546001600160a01b0316600160a01b6001600160401b038816026001600160e01b031617600160e01b63ffffffff8716021790556003839055600461062a828483611d04565b5082856001600160401b03167f55dd3ec7430adc96830fa09d6aff5e51656efd05dbecbd681698ad3cad6820a886858560405161066993929190611dc3565b60405180910390a35050505050565b610680610de4565b61048a610e8c565b6002546001600160a01b0316158015906106ac57506002546001600160a01b031633145b6106f05760405162461bcd60e51b81526020600482015260156024820152742737ba1031b0b6363130b1b59032bc32b1baba37b960591b60448201526064016104e8565b6106f8610ecf565b60405163f652e63d60e01b81526004810184905260ff83166024820152604481018290527f00000000000000000000000000000000000000000000000000000000000000006001600160a01b03169063f652e63d90606401600060405180830381600087803b15801561076a57600080fd5b505af115801561077e573d6000803e3d6000fd5b50506040805160ff86168152602081018590523393508692507f91d7b7135d4f13baeba774336df60f6c13ce914201d73a3b0f6525984ca84464910160405180910390a3505050565b600080546001600160a01b03163314806107eb57506002546001600160a01b031633145b61082f5760405162461bcd60e51b81526020600482015260156024820152742737ba103932b8bab2b9ba1034b734ba34b0ba37b960591b60448201526064016104e8565b610837610ecf565b8160000361085857604051636a00340960e01b815260040160405180910390fd5b600254600160a01b90046001600160401b031660000361088b57604051630ebd8d1960e11b815260040160405180910390fd5b600254600160e01b900463ffffffff166000036108bb5760405163fe7036d760e01b815260040160405180910390fd5b6003546108db576040516391f7443960e01b815260040160405180910390fd5b600480546108e890611c7c565b905060000361090a57604051630bd6cafd60e11b815260040160405180910390fd5b6000828152600960205260409020541561093a57604051631412698160e31b8152600481018390526024016104e8565b61097b6040805160e0810190915280600081526020016000815260200160008152602001606081526020016060815260200160608152602001606081525090565b6109a1604051806103c0016040528061039281526020016121b561039291398290610efa565b60408051600280825260608201909252600091816020015b60608152602001906001900390816109b95790505090506109d984610f0b565b816000815181106109ec576109ec611dff565b602002602001018190525060048054610a0490611c7c565b80601f0160208091040260200160405190810160405280929190818152602001828054610a3090611c7c565b8015610a7d5780601f10610a5257610100808354040283529160200191610a7d565b820191906000526020600020905b815481529060010190602001808311610a6057829003601f168201915b505050505081600181518110610a9557610a95611dff565b6020908102919091010152610aaa8282611013565b6000610ae2610ab88461103d565b600254600354600160a01b82046001600160401b031691600160e01b900463ffffffff1690611305565b6000818152600860209081526040808320899055888352600990915290208190556005819055905084817f8f68d28d5cb3acdfe88f280960072ed281dbd8557050979b130996971bdc56706004610b3884610f0b565b604051602001610b49929190611e15565b60408051601f1981840301815290829052610b6391611b35565b60405180910390a3949350505050565b610b7b610de4565b6001600160a01b038116610ba25760405163314c826b60e21b815260040160405180910390fd5b600280546001600160a01b0319166001600160a01b0383169081179091556040517f471c950e786695091d533a86f086284351fdd8305594f6e349ba063a7d9b198490600090a250565b600480546103f990611c7c565b610c01610de4565b610c0a816113d7565b50565b60008381526008602052604081205490819003610c405760405163d068bf5b60e01b8152600481018590526024016104e8565b60058490556006610c518482611ebd565b506007610c5e8382611ebd565b5060008481526008602090815260408083208390558383526009909152812055815115610cc45780847faa06b6532646d4c87574d7e6a2d2bccee74bdf689c5c6fb3fdd554fa62e01ad584604051610cb69190611b35565b60405180910390a350505050565b60008084806020019051810190610cdb9190611f7b565b909250905060ff821180610cef5750600382115b15610d1057604051631492f68360e01b8152600481018390526024016104e8565b60405163f652e63d60e01b81526004810184905260ff83166024820152604481018290527f00000000000000000000000000000000000000000000000000000000000000006001600160a01b03169063f652e63d90606401600060405180830381600087803b158015610d8257600080fd5b505af1158015610d96573d6000803e3d6000fd5b50506040805160ff861681526020810185905233935086925089917f3fce3c9de8e48b832622a67d19edd2a4c24181e6397643746a55bd06fabb19c0910160405180910390a4505050505050565b6000546001600160a01b0316331461048a5760405162461bcd60e51b815260206004820152601660248201527527b7363c9031b0b63630b1363290313c9037bbb732b960511b60448201526064016104e8565b610e3f611480565b6001805460ff60a01b191690557f5db9ee0a495bf2e6ff9c91a7834c1ba4fdd244a5e8aa4e537bd38aeae4b073aa335b6040516001600160a01b03909116815260200160405180910390a1565b610e94610ecf565b6001805460ff60a01b1916600160a01b1790557f62e78cea01bee320cd4e420270b5ea74000d11b0c9f74754ebdbfc544b05a258610e6f3390565b600154600160a01b900460ff161561048a5760405163d93c066560e01b815260040160405180910390fd5b610f0782600080846114aa565b5050565b606081600003610f325750506040805180820190915260018152600360fc1b602082015290565b8160005b8115610f5c5780610f4681611fb5565b9150610f559050600a83611fe4565b9150610f36565b6000816001600160401b03811115610f7657610f766119d2565b6040519080825280601f01601f191660200182016040528015610fa0576020820181803683370190505b5090505b841561100b57610fb5600183611ff8565b9150610fc2600a8661200b565b610fcd90603061201f565b60f81b818381518110610fe257610fe2611dff565b60200101906001600160f81b031916908160001a905350611004600a86611fe4565b9450610fa4565b949350505050565b80516000036110355760405163fe936cb760e01b815260040160405180910390fd5b60a090910152565b6060600061104c610100611528565b90506110856040518060400160405280600c81526020016b31b7b232a637b1b0ba34b7b760a11b8152508261154990919063ffffffff16565b82516110a390600281111561109c5761109c612032565b8290611567565b6040805180820190915260088152676c616e677561676560c01b60208201526110cd908290611549565b60408301516110e490801561109c5761109c612032565b604080518082019091526006815265736f7572636560d01b602082015261110c908290611549565b606083015161111c908290611549565b60a083015151156111a8576040805180820190915260048152636172677360e01b602082015261114d908290611549565b611156816115a0565b60005b8360a001515181101561119e576111968460a00151828151811061117f5761117f611dff565b60200260200101518361154990919063ffffffff16565b600101611159565b506111a8816115c4565b6080830151511561126c576000836020015160028111156111cb576111cb612032565b036111e95760405163a80d31f760e01b815260040160405180910390fd5b60408051808201909152600f81526e39b2b1b932ba39a637b1b0ba34b7b760891b602082015261121a908290611549565b6112338360200151600281111561109c5761109c612032565b6040805180820190915260078152667365637265747360c81b602082015261125c908290611549565b608083015161126c9082906115e2565b60c083015151156112fd5760408051808201909152600981526862797465734172677360b81b60208201526112a2908290611549565b6112ab816115a0565b60005b8360c00151518110156112f3576112eb8460c0015182815181106112d4576112d4611dff565b6020026020010151836115e290919063ffffffff16565b6001016112ae565b506112fd816115c4565b515192915050565b6000807f00000000000000000000000000000000000000000000000000000000000000006001600160a01b031663461d27628688600188886040518663ffffffff1660e01b815260040161135d959493929190612048565b6020604051808303816000875af115801561137c573d6000803e3d6000fd5b505050506040513d601f19601f820116820180604052508101906113a09190612091565b60405190915081907f1131472297a800fee664d1d89cfa8f7676ff07189ecc53f80bbb5f4969099db890600090a295945050505050565b336001600160a01b0382160361142f5760405162461bcd60e51b815260206004820152601760248201527f43616e6e6f74207472616e7366657220746f2073656c6600000000000000000060448201526064016104e8565b600180546001600160a01b0319166001600160a01b0383811691821790925560008054604051929316917fed8889f560326eb138920d842192f0eb3dd22b4f139c87a2c57538e05bae12789190a350565b600154600160a01b900460ff1661048a57604051638dfc202b60e01b815260040160405180910390fd5b80516000036114cc576040516322ce3edd60e01b815260040160405180910390fd5b838360028111156114df576114df612032565b908160028111156114f2576114f2612032565b9052506040840182801561150857611508612032565b9081801561151857611518612032565b9052506060909301929092525050565b61153061199d565b805161153c90836115ef565b5060006020820152919050565b6115568260038351611669565b81516115629082611788565b505050565b81516115749060c26117b0565b50610f07828260405160200161158c91815260200190565b6040516020818303038152906040526115e2565b6115ab816004611819565b6001816020018181516115be919061201f565b90525050565b6115cf816007611819565b6001816020018181516115be9190611ff8565b6115568260028351611669565b60408051808201909152606081526000602082015261160f60208361200b565b156116375761161f60208361200b565b61162a906020611ff8565b611634908361201f565b91505b60208084018390526040518085526000815290818401018181101561165b57600080fd5b604052508290505b92915050565b6017816001600160401b03161161169557825161168f9060e0600585901b1683176117b0565b50505050565b60ff816001600160401b0316116116d55782516116bd906018611fe0600586901b16176117b0565b50825161168f906001600160401b0383166001611830565b61ffff816001600160401b0316116117165782516116fe906019611fe0600586901b16176117b0565b50825161168f906001600160401b0383166002611830565b63ffffffff816001600160401b03161161175957825161174190601a611fe0600586901b16176117b0565b50825161168f906001600160401b0383166004611830565b825161177090601b611fe0600586901b16176117b0565b50825161168f906001600160401b0383166008611830565b6040805180820190915260608152600060208201526117a9838384516118b5565b9392505050565b60408051808201909152606081526000602082015282515160006117d582600161201f565b9050846020015182106117f6576117f6856117f18360026120aa565b611986565b845160208382010185815350805182111561180f578181525b5093949350505050565b815161156290601f611fe0600585901b16176117b0565b6040805180820190915260608152600060208201528351516000611854828561201f565b9050856020015181111561187157611871866117f18360026120aa565b60006001611881866101006121a8565b61188b9190611ff8565b905086518281018783198251161781525080518311156118a9578281525b50959695505050505050565b60408051808201909152606081526000602082015282518211156118d857600080fd5b83515160006118e7848361201f565b9050856020015181111561190457611904866117f18360026120aa565b85518051838201602001916000918085111561191e578482525b505050602086015b6020861061195e578051825261193d60208361201f565b915061194a60208261201f565b9050611957602087611ff8565b9550611926565b51815160001960208890036101000a0190811690199190911617905250849150509392505050565b815161199283836115ef565b5061168f8382611788565b60405180604001604052806119c5604051806040016040528060608152602001600081525090565b8152602001600081525090565b634e487b7160e01b600052604160045260246000fd5b600082601f8301126119f957600080fd5b81356001600160401b03811115611a1257611a126119d2565b604051601f8201601f19908116603f011681016001600160401b0381118282101715611a4057611a406119d2565b604052818152838201602001851015611a5857600080fd5b816020850160208301376000918101602001919091529392505050565b600080600060608486031215611a8a57600080fd5b8335925060208401356001600160401b03811115611aa757600080fd5b611ab3868287016119e8565b92505060408401356001600160401b03811115611acf57600080fd5b611adb868287016119e8565b9150509250925092565b60005b83811015611b00578181015183820152602001611ae8565b50506000910152565b60008151808452611b21816020860160208601611ae5565b601f01601f19169290920160200192915050565b6020815260006117a96020830184611b09565b600060208284031215611b5a57600080fd5b5035919050565b600080600080600060808688031215611b7957600080fd5b85356001600160401b0381168114611b9057600080fd5b9450602086013563ffffffff81168114611ba957600080fd5b93506040860135925060608601356001600160401b03811115611bcb57600080fd5b8601601f81018813611bdc57600080fd5b80356001600160401b03811115611bf257600080fd5b886020828401011115611c0457600080fd5b959894975092955050506020019190565b600080600060608486031215611c2a57600080fd5b83359250602084013560ff81168114611c4257600080fd5b929592945050506040919091013590565b600060208284031215611c6557600080fd5b81356001600160a01b03811681146117a957600080fd5b600181811c90821680611c9057607f821691505b602082108103611cb057634e487b7160e01b600052602260045260246000fd5b50919050565b601f82111561156257806000526020600020601f840160051c81016020851015611cdd5750805b601f840160051c820191505b81811015611cfd5760008155600101611ce9565b5050505050565b6001600160401b03831115611d1b57611d1b6119d2565b611d2f83611d298354611c7c565b83611cb6565b6000601f841160018114611d635760008515611d4b5750838201355b600019600387901b1c1916600186901b178355611cfd565b600083815260209020601f19861690835b82811015611d945786850135825560209485019460019092019101611d74565b5086821015611db15760001960f88860031b161c19848701351681555b505060018560011b0183555050505050565b63ffffffff8416815260406020820152816040820152818360608301376000818301606090810191909152601f909201601f1916010192915050565b634e487b7160e01b600052603260045260246000fd5b6000808454611e2381611c7c565b600182168015611e3a5760018114611e4f57611e7f565b60ff1983168652811515820286019350611e7f565b87600052602060002060005b83811015611e7757815488820152600190910190602001611e5b565b505081860193505b505050752f6170692f6f7261636c652f66756e6374696f6e732f60501b81528351611eb1816016840160208801611ae5565b01601601949350505050565b81516001600160401b03811115611ed657611ed66119d2565b611eea81611ee48454611c7c565b84611cb6565b6020601f821160018114611f1e5760008315611f065750848201515b600019600385901b1c1916600184901b178455611cfd565b600084815260208120601f198516915b82811015611f4e5787850151825560209485019460019092019101611f2e565b5084821015611f6c5786840151600019600387901b60f8161c191681555b50505050600190811b01905550565b60008060408385031215611f8e57600080fd5b505080516020909101519092909150565b634e487b7160e01b600052601160045260246000fd5b600060018201611fc757611fc7611f9f565b5060010190565b634e487b7160e01b600052601260045260246000fd5b600082611ff357611ff3611fce565b500490565b8181038181111561166357611663611f9f565b60008261201a5761201a611fce565b500690565b8082018082111561166357611663611f9f565b634e487b7160e01b600052602160045260246000fd5b6001600160401b038616815260a06020820152600061206a60a0830187611b09565b61ffff9590951660408301525063ffffffff92909216606083015260809091015292915050565b6000602082840312156120a357600080fd5b5051919050565b808202811582820484141761166357611663611f9f565b6001815b60018411156120fc578085048111156120e0576120e0611f9f565b60018416156120ee57908102905b60019390931c9280026120c5565b935093915050565b60008261211357506001611663565b8161212057506000611663565b816001811461213657600281146121405761215c565b6001915050611663565b60ff84111561215157612151611f9f565b50506001821b611663565b5060208310610133831016604e8410600b841016171561217f575081810a611663565b61218c60001984846120c1565b80600019048211156121a0576121a0611f9f565b029392505050565b60006117a9838361210456fe636f6e737420706f6c6963794964203d20617267735b305d3b636f6e7374206170694261736555726c203d20617267735b315d3b6966202821706f6c6963794964207c7c20216170694261736555726c29207b207468726f77204572726f7228274d697373696e6720706f6c6963794964206f72206170694261736555726c27293b207d636f6e737420617069526573706f6e7365203d2061776169742046756e6374696f6e732e6d616b654874747052657175657374287b75726c3a2060247b6170694261736555726c7d2f6170692f6f7261636c652f66756e6374696f6e732f247b706f6c69637949647d602c6d6574686f643a2027474554272c686561646572733a207b204163636570743a20276170706c69636174696f6e2f6a736f6e27207d7d293b69662028617069526573706f6e73652e6572726f7229207b207468726f77204572726f7228604f7261636c65204150492072657175657374206661696c65643a20247b617069526573706f6e73652e6572726f727d60293b207d636f6e7374207061796c6f6164203d20617069526573706f6e73652e646174613b69662028217061796c6f6164207c7c20747970656f66207061796c6f61642e6f7574636f6d6520213d3d20276e756d62657227207c7c20747970656f66207061796c6f61642e64656c61794d696e7574657320213d3d20276e756d6265722729207b7468726f77204572726f7228274f7261636c652041504920726573706f6e7365206d697373696e67206e756d65726963206f7574636f6d65206f722064656c61794d696e7574657327293b7d636f6e737420656e636f6465644f7574636f6d65203d2046756e6374696f6e732e656e636f646555696e7432353628426967496e74287061796c6f61642e6f7574636f6d6529293b636f6e737420656e636f64656444656c6179203d2046756e6374696f6e732e656e636f646555696e7432353628426967496e74287061796c6f61642e64656c61794d696e7574657329293b636f6e737420636f6d62696e6564203d206e65772055696e7438417272617928656e636f6465644f7574636f6d652e6c656e677468202b20656e636f64656444656c61792e6c656e677468293b636f6d62696e65642e73657428656e636f6465644f7574636f6d652c2030293b636f6d62696e65642e73657428656e636f64656444656c61792c20656e636f6465644f7574636f6d652e6c656e677468293b72657475726e20636f6d62696e65643ba2646970667358221220d877e68d10b1af58b6e7e041ef8bbe47d44b34f02ac6540c045ef4fcd03ee42164736f6c634300081e0033",
  "devdoc": {
    "errors": {
      "EnforcedPause()": [
        {
          "details": "The operation failed because the contract is paused."
        }
      ],
      "ExpectedPause()": [
        {
          "details": "The operation failed because the contract is not paused."
        }
      ]
    },
    "events": {
      "Paused(address)": {
        "details": "Emitted when the pause is triggered by `account`."
      },
      "Unpaused(address)": {
        "details": "Emitted when the pause is lifted by `account`."
      }
    },
    "kind": "dev",
    "methods": {
      "handleOracleFulfillment(bytes32,bytes,bytes)": {
        "details": "Either response or error parameter will be set, but never both.",
        "params": {
          "err": "Aggregated error either from the request's source code or from the execution pipeline.",
          "requestId": "The requestId returned by FunctionsClient.sendRequest().",
          "response": "Aggregated response from the request's source code."
        }
      },
      "paused()": {
        "details": "Returns true if the contract is paused, and false otherwise."
      }
    },
    "version": 1
  },
  "userdoc": {
    "kind": "user",
    "methods": {
      "acceptOwnership()": {
        "notice": "Allows an ownership transfer to be completed by the recipient."
      },
      "handleOracleFulfillment(bytes32,bytes,bytes)": {
        "notice": "Chainlink Functions response handler called by the Functions Router during fullilment from the designated transmitter node in an OCR round."
      },
      "owner()": {
        "notice": "Get the current owner"
      },
      "transferOwnership(address)": {
        "notice": "Allows an owner to begin transferring ownership to a new address."
      }
    },
    "version": 1
  },
  "storageLayout": {
    "storage": [
      {
        "astId": 816,
        "contract": "contracts/ChainlinkDemoOracleConsumer.sol:ChainlinkDemoOracleConsumer",
        "label": "s_owner",
        "offset": 0,
        "slot": "0",
        "type": "t_address"
      },
      {
        "astId": 818,
        "contract": "contracts/ChainlinkDemoOracleConsumer.sol:ChainlinkDemoOracleConsumer",
        "label": "s_pendingOwner",
        "offset": 0,
        "slot": "1",
        "type": "t_address"
      },
      {
        "astId": 3755,
        "contract": "contracts/ChainlinkDemoOracleConsumer.sol:ChainlinkDemoOracleConsumer",
        "label": "_paused",
        "offset": 20,
        "slot": "1",
        "type": "t_bool"
      },
      {
        "astId": 4139,
        "contract": "contracts/ChainlinkDemoOracleConsumer.sol:ChainlinkDemoOracleConsumer",
        "label": "functionsRouter",
        "offset": 0,
        "slot": "2",
        "type": "t_address"
      },
      {
        "astId": 4141,
        "contract": "contracts/ChainlinkDemoOracleConsumer.sol:ChainlinkDemoOracleConsumer",
        "label": "subscriptionId",
        "offset": 20,
        "slot": "2",
        "type": "t_uint64"
      },
      {
        "astId": 4143,
        "contract": "contracts/ChainlinkDemoOracleConsumer.sol:ChainlinkDemoOracleConsumer",
        "label": "callbackGasLimit",
        "offset": 28,
        "slot": "2",
        "type": "t_uint32"
      },
      {
        "astId": 4145,
        "contract": "contracts/ChainlinkDemoOracleConsumer.sol:ChainlinkDemoOracleConsumer",
        "label": "donId",
        "offset": 0,
        "slot": "3",
        "type": "t_bytes32"
      },
      {
        "astId": 4147,
        "contract": "contracts/ChainlinkDemoOracleConsumer.sol:ChainlinkDemoOracleConsumer",
        "label": "oracleApiBaseUrl",
        "offset": 0,
        "slot": "4",
        "type": "t_string_storage"
      },
      {
        "astId": 4149,
        "contract": "contracts/ChainlinkDemoOracleConsumer.sol:ChainlinkDemoOracleConsumer",
        "label": "lastRequestId",
        "offset": 0,
        "slot": "5",
        "type": "t_bytes32"
      },
      {
        "astId": 4151,
        "contract": "contracts/ChainlinkDemoOracleConsumer.sol:ChainlinkDemoOracleConsumer",
        "label": "lastResponse",
        "offset": 0,
        "slot": "6",
        "type": "t_bytes_storage"
      },
      {
        "astId": 4153,
        "contract": "contracts/ChainlinkDemoOracleConsumer.sol:ChainlinkDemoOracleConsumer",
        "label": "lastError",
        "offset": 0,
        "slot": "7",
        "type": "t_bytes_storage"
      },
      {
        "astId": 4157,
        "contract": "contracts/ChainlinkDemoOracleConsumer.sol:ChainlinkDemoOracleConsumer",
        "label": "policyIdByChainlinkRequestId",
        "offset": 0,
        "slot": "8",
        "type": "t_mapping(t_bytes32,t_uint256)"
      },
      {
        "astId": 4161,
        "contract": "contracts/ChainlinkDemoOracleConsumer.sol:ChainlinkDemoOracleConsumer",
        "label": "activeChainlinkRequestIdByPolicyId",
        "offset": 0,
        "slot": "9",
        "type": "t_mapping(t_uint256,t_bytes32)"
      }
    ],
    "types": {
      "t_address": {
        "encoding": "inplace",
        "label": "address",
        "numberOfBytes": "20"
      },
      "t_bool": {
        "encoding": "inplace",
        "label": "bool",
        "numberOfBytes": "1"
      },
      "t_bytes32": {
        "encoding": "inplace",
        "label": "bytes32",
        "numberOfBytes": "32"
      },
      "t_bytes_storage": {
        "encoding": "bytes",
        "label": "bytes",
        "numberOfBytes": "32"
      },
      "t_mapping(t_bytes32,t_uint256)": {
        "encoding": "mapping",
        "key": "t_bytes32",
        "label": "mapping(bytes32 => uint256)",
        "numberOfBytes": "32",
        "value": "t_uint256"
      },
      "t_mapping(t_uint256,t_bytes32)": {
        "encoding": "mapping",
        "key": "t_uint256",
        "label": "mapping(uint256 => bytes32)",
        "numberOfBytes": "32",
        "value": "t_bytes32"
      },
      "t_string_storage": {
        "encoding": "bytes",
        "label": "string",
        "numberOfBytes": "32"
      },
      "t_uint256": {
        "encoding": "inplace",
        "label": "uint256",
        "numberOfBytes": "32"
      },
      "t_uint32": {
        "encoding": "inplace",
        "label": "uint32",
        "numberOfBytes": "4"
      },
      "t_uint64": {
        "encoding": "inplace",
        "label": "uint64",
        "numberOfBytes": "8"
      }
    }
  }
}