{
  "address": "0xB330D5d064929790F42E6cE594b9063532d3cF8E",
  "abi": [
    {
      "inputs": [
        {
          "internalType": "address",
          "name": "_stablecoin",
          "type": "address"
        },
        {
          "internalType": "address",
          "name": "initialOwner",
          "type": "address"
        }
      ],
      "stateMutability": "nonpayable",
      "type": "constructor"
    },
    {
      "inputs": [],
      "name": "EnforcedPause",
      "type": "error"
    },
    {
      "inputs": [],
      "name": "ExpectedPause",
      "type": "error"
    },
    {
      "inputs": [
        {
          "internalType": "address",
          "name": "owner",
          "type": "address"
        }
      ],
      "name": "OwnableInvalidOwner",
      "type": "error"
    },
    {
      "inputs": [
        {
          "internalType": "address",
          "name": "account",
          "type": "address"
        }
      ],
      "name": "OwnableUnauthorizedAccount",
      "type": "error"
    },
    {
      "inputs": [],
      "name": "ReentrancyGuardReentrantCall",
      "type": "error"
    },
    {
      "inputs": [
        {
          "internalType": "address",
          "name": "token",
          "type": "address"
        }
      ],
      "name": "SafeERC20FailedOperation",
      "type": "error"
    },
    {
      "anonymous": false,
      "inputs": [
        {
          "indexed": true,
          "internalType": "address",
          "name": "provider",
          "type": "address"
        },
        {
          "indexed": false,
          "internalType": "uint256",
          "name": "amount",
          "type": "uint256"
        }
      ],
      "name": "LiquidityDeposited",
      "type": "event"
    },
    {
      "anonymous": false,
      "inputs": [
        {
          "indexed": true,
          "internalType": "address",
          "name": "recipient",
          "type": "address"
        },
        {
          "indexed": false,
          "internalType": "uint256",
          "name": "amount",
          "type": "uint256"
        },
        {
          "indexed": false,
          "internalType": "uint256",
          "name": "requiredReserve",
          "type": "uint256"
        },
        {
          "indexed": false,
          "internalType": "uint256",
          "name": "poolBalance",
          "type": "uint256"
        }
      ],
      "name": "LiquidityWithdrawn",
      "type": "event"
    },
    {
      "anonymous": false,
      "inputs": [
        {
          "indexed": true,
          "internalType": "address",
          "name": "previousOwner",
          "type": "address"
        },
        {
          "indexed": true,
          "internalType": "address",
          "name": "newOwner",
          "type": "address"
        }
      ],
      "name": "OwnershipTransferred",
      "type": "event"
    },
    {
      "anonymous": false,
      "inputs": [
        {
          "indexed": false,
          "internalType": "address",
          "name": "account",
          "type": "address"
        }
      ],
      "name": "Paused",
      "type": "event"
    },
    {
      "anonymous": false,
      "inputs": [
        {
          "indexed": true,
          "internalType": "address",
          "name": "recipient",
          "type": "address"
        },
        {
          "indexed": false,
          "internalType": "uint256",
          "name": "amount",
          "type": "uint256"
        }
      ],
      "name": "PayoutExecuted",
      "type": "event"
    },
    {
      "anonymous": false,
      "inputs": [
        {
          "indexed": true,
          "internalType": "address",
          "name": "policyManager",
          "type": "address"
        }
      ],
      "name": "PolicyManagerSet",
      "type": "event"
    },
    {
      "anonymous": false,
      "inputs": [
        {
          "indexed": true,
          "internalType": "address",
          "name": "payer",
          "type": "address"
        },
        {
          "indexed": false,
          "internalType": "uint256",
          "name": "amount",
          "type": "uint256"
        }
      ],
      "name": "PremiumReceived",
      "type": "event"
    },
    {
      "anonymous": false,
      "inputs": [
        {
          "indexed": false,
          "internalType": "address",
          "name": "account",
          "type": "address"
        }
      ],
      "name": "Unpaused",
      "type": "event"
    },
    {
      "inputs": [
        {
          "internalType": "uint256",
          "name": "amount",
          "type": "uint256"
        }
      ],
      "name": "depositLiquidity",
      "outputs": [],
      "stateMutability": "nonpayable",
      "type": "function"
    },
    {
      "inputs": [],
      "name": "getPoolBalance",
      "outputs": [
        {
          "internalType": "uint256",
          "name": "",
          "type": "uint256"
        }
      ],
      "stateMutability": "view",
      "type": "function"
    },
    {
      "inputs": [],
      "name": "getRequiredReserve",
      "outputs": [
        {
          "internalType": "uint256",
          "name": "",
          "type": "uint256"
        }
      ],
      "stateMutability": "view",
      "type": "function"
    },
    {
      "inputs": [],
      "name": "getWithdrawableAmount",
      "outputs": [
        {
          "internalType": "uint256",
          "name": "",
          "type": "uint256"
        }
      ],
      "stateMutability": "view",
      "type": "function"
    },
    {
      "inputs": [
        {
          "internalType": "address",
          "name": "",
          "type": "address"
        }
      ],
      "name": "liquidityProvided",
      "outputs": [
        {
          "internalType": "uint256",
          "name": "",
          "type": "uint256"
        }
      ],
      "stateMutability": "view",
      "type": "function"
    },
    {
      "inputs": [],
      "name": "owner",
      "outputs": [
        {
          "internalType": "address",
          "name": "",
          "type": "address"
        }
      ],
      "stateMutability": "view",
      "type": "function"
    },
    {
      "inputs": [],
      "name": "pause",
      "outputs": [],
      "stateMutability": "nonpayable",
      "type": "function"
    },
    {
      "inputs": [],
      "name": "paused",
      "outputs": [
        {
          "internalType": "bool",
          "name": "",
          "type": "bool"
        }
      ],
      "stateMutability": "view",
      "type": "function"
    },
    {
      "inputs": [
        {
          "internalType": "address",
          "name": "recipient",
          "type": "address"
        },
        {
          "internalType": "uint256",
          "name": "amount",
          "type": "uint256"
        }
      ],
      "name": "payOut",
      "outputs": [],
      "stateMutability": "nonpayable",
      "type": "function"
    },
    {
      "inputs": [],
      "name": "policyManager",
      "outputs": [
        {
          "internalType": "address",
          "name": "",
          "type": "address"
        }
      ],
      "stateMutability": "view",
      "type": "function"
    },
    {
      "inputs": [
        {
          "internalType": "address",
          "name": "payer",
          "type": "address"
        },
        {
          "internalType": "uint256",
          "name": "amount",
          "type": "uint256"
        }
      ],
      "name": "receivePremium",
      "outputs": [],
      "stateMutability": "nonpayable",
      "type": "function"
    },
    {
      "inputs": [],
      "name": "renounceOwnership",
      "outputs": [],
      "stateMutability": "nonpayable",
      "type": "function"
    },
    {
      "inputs": [
        {
          "internalType": "address",
          "name": "_policyManager",
          "type": "address"
        }
      ],
      "name": "setPolicyManager",
      "outputs": [],
      "stateMutability": "nonpayable",
      "type": "function"
    },
    {
      "inputs": [],
      "name": "stablecoin",
      "outputs": [
        {
          "internalType": "contract IERC20",
          "name": "",
          "type": "address"
        }
      ],
      "stateMutability": "view",
      "type": "function"
    },
    {
      "inputs": [],
      "name": "totalLiquidity",
      "outputs": [
        {
          "internalType": "uint256",
          "name": "",
          "type": "uint256"
        }
      ],
      "stateMutability": "view",
      "type": "function"
    },
    {
      "inputs": [],
      "name": "totalPayouts",
      "outputs": [
        {
          "internalType": "uint256",
          "name": "",
          "type": "uint256"
        }
      ],
      "stateMutability": "view",
      "type": "function"
    },
    {
      "inputs": [],
      "name": "totalPremiumsCollected",
      "outputs": [
        {
          "internalType": "uint256",
          "name": "",
          "type": "uint256"
        }
      ],
      "stateMutability": "view",
      "type": "function"
    },
    {
      "inputs": [
        {
          "internalType": "address",
          "name": "newOwner",
          "type": "address"
        }
      ],
      "name": "transferOwnership",
      "outputs": [],
      "stateMutability": "nonpayable",
      "type": "function"
    },
    {
      "inputs": [],
      "name": "unpause",
      "outputs": [],
      "stateMutability": "nonpayable",
      "type": "function"
    },
    {
      "inputs": [
        {
          "internalType": "uint256",
          "name": "amount",
          "type": "uint256"
        }
      ],
      "name": "withdrawExcessLiquidity",
      "outputs": [],
      "stateMutability": "nonpayable",
      "type": "function"
    }
  ],
  "transactionHash": "0xcace0b235f740b47fa4ad6c65de6598d1c76a8b27954adbb595c2dadada3f254",
  "args": [
    "0xFA71294055CbAF8272269b3b875cBFFdCA382Bb6",
    "0x7ab4b089C35F0502d3b739a5A84c2DcfC3b3d990"
  ],
  "numDeployments": 3,
  "solcInputHash": "aba8ca07c13a16343b0ed53dc81b0c42",
  "bytecode": "0x60a060405234801561001057600080fd5b5060405161127338038061127383398101604081905261002f916101a7565b806001600160a01b03811661005f57604051631e4fbdf760e01b8152600060048201526024015b60405180910390fd5b6100688161013b565b5060017f9b779b17422d0df92223018b32b4d1fa46e071723d6817e2486d003becc55f00556001600160a01b0382166100e35760405162461bcd60e51b815260206004820152601a60248201527f496e76616c696420737461626c65636f696e20616464726573730000000000006044820152606401610056565b6001600160a01b0381166101295760405162461bcd60e51b815260206004820152600d60248201526c24b73b30b634b21037bbb732b960991b6044820152606401610056565b506001600160a01b03166080526101da565b600080546001600160a01b038381166001600160a01b0319831681178455604051919092169283917f8be0079c531659141344cd1fd0a4f28419497f9722a3daafe3b4186f6b6457e09190a35050565b80516001600160a01b03811681146101a257600080fd5b919050565b600080604083850312156101ba57600080fd5b6101c38361018b565b91506101d16020840161018b565b90509250929050565b60805161104d6102266000396000818161026a015281816103840152818161046a01528181610619015281816106800152818161078e015281816108710152610921015261104d6000f3fe608060405234801561001057600080fd5b506004361061012c5760003560e01c80638456cb59116100ad578063adde41e111610071578063adde41e114610237578063d5a867b71461024a578063d9010b6e1461025d578063e9cbd82214610265578063f2fde38b1461028c57600080fd5b80638456cb59146101e75780638da5cb5b146101ef57806390be10cc14610214578063ab3dbf3b1461021c578063abd70aa21461022f57600080fd5b80634089b170116100f45780634089b170146101865780635c975abb1461018f57806365119f72146101ac578063715018a6146101cc57806376d58e1a146101d457600080fd5b80630221038a1461013157806315770f92146101465780632d9e3f62146101625780633dadde20146101755780633f4ba83a1461017e575b600080fd5b61014461013f366004610f0b565b61029f565b005b61014f60015481565b6040519081526020015b60405180910390f35b610144610170366004610f35565b6104ef565b61014f60025481565b61014461072d565b61014f60035481565b600054600160a01b900460ff166040519015158152602001610159565b61014f6101ba366004610f4e565b60056020526000908152604090205481565b61014461073f565b6101446101e2366004610f35565b610751565b61014461083f565b6000546001600160a01b03165b6040516001600160a01b039091168152602001610159565b61014f61084f565b6004546101fc906001600160a01b031681565b61014f610909565b610144610245366004610f4e565b610999565b610144610258366004610f0b565b610a3a565b61014f610b50565b6101fc7f000000000000000000000000000000000000000000000000000000000000000081565b61014461029a366004610f4e565b610bb0565b6004546001600160a01b031633146102f35760405162461bcd60e51b81526020600482015260126024820152712737ba103837b634b1bc9036b0b730b3b2b960711b60448201526064015b60405180910390fd5b6102fb610beb565b610303610c07565b6001600160a01b03821661034d5760405162461bcd60e51b8152602060048201526011602482015270125b9d985b1a59081c9958da5c1a595b9d607a1b60448201526064016102ea565b6000811161036d5760405162461bcd60e51b81526004016102ea90610f70565b6040516370a0823160e01b815230600482015281907f00000000000000000000000000000000000000000000000000000000000000006001600160a01b0316906370a0823190602401602060405180830381865afa1580156103d3573d6000803e3d6000fd5b505050506040513d601f19601f820116820180604052508101906103f79190610f9c565b10156104455760405162461bcd60e51b815260206004820152601960248201527f496e73756666696369656e7420706f6f6c2062616c616e63650000000000000060448201526064016102ea565b80600360008282546104579190610fcb565b9091555061049190506001600160a01b037f0000000000000000000000000000000000000000000000000000000000000000168383610c32565b816001600160a01b03167f6d7b5ea65a17fdff1d0c494389ca865c65f34300cb05078e09421e8a397e42d1826040516104cc91815260200190565b60405180910390a26104eb6001600080516020610ff883398151915255565b5050565b6104f7610c6c565b6104ff610beb565b610507610c07565b600081116105275760405162461bcd60e51b81526004016102ea90610f70565b600061053161084f565b90508082111561058f5760405162461bcd60e51b815260206004820152602360248201527f416d6f756e74206578636565647320776974686472617761626c652062616c616044820152626e636560e81b60648201526084016102ea565b3360009081526005602052604090205480156105d45760008184116105b457836105b6565b815b90506105c28183610fe4565b33600090815260056020526040902055505b6001541561060c57600060015484116105ed57836105f1565b6001545b905080600160008282546106059190610fe4565b9091555050505b6106406001600160a01b037f0000000000000000000000000000000000000000000000000000000000000000163385610c32565b337f9746cd459b192e14d25047ee6f0c763709fc38435eb4883830cf715de0a40ac08461066b610b50565b6040516370a0823160e01b81523060048201527f00000000000000000000000000000000000000000000000000000000000000006001600160a01b0316906370a0823190602401602060405180830381865afa1580156106cf573d6000803e3d6000fd5b505050506040513d601f19601f820116820180604052508101906106f39190610f9c565b6040805193845260208401929092529082015260600160405180910390a2505061072a6001600080516020610ff883398151915255565b50565b610735610c6c565b61073d610c99565b565b610747610c6c565b61073d6000610cee565b610759610beb565b610761610c07565b600081116107815760405162461bcd60e51b81526004016102ea90610f70565b6107b66001600160a01b037f000000000000000000000000000000000000000000000000000000000000000016333084610d3e565b33600090815260056020526040812080548392906107d5908490610fcb565b9250508190555080600160008282546107ee9190610fcb565b909155505060405181815233907f7ff07ce9a287649537e4b012e45cf012d90228b12e2b56bb03515a6b5436fcdf9060200160405180910390a261072a6001600080516020610ff883398151915255565b610847610c6c565b61073d610d7a565b6040516370a0823160e01b815230600482015260009081906001600160a01b037f000000000000000000000000000000000000000000000000000000000000000016906370a0823190602401602060405180830381865afa1580156108b8573d6000803e3d6000fd5b505050506040513d601f19601f820116820180604052508101906108dc9190610f9c565b905060006108e8610b50565b90508082116108f8576000610902565b6109028183610fe4565b9250505090565b6040516370a0823160e01b81523060048201526000907f00000000000000000000000000000000000000000000000000000000000000006001600160a01b0316906370a0823190602401602060405180830381865afa158015610970573d6000803e3d6000fd5b505050506040513d601f19601f820116820180604052508101906109949190610f9c565b905090565b6109a1610c6c565b6001600160a01b0381166109f05760405162461bcd60e51b815260206004820152601660248201527524b73b30b634b2103837b634b1bc9036b0b730b3b2b960511b60448201526064016102ea565b600480546001600160a01b0319166001600160a01b0383169081179091556040517f7459f7f9aac6fc4ca8cf3734456a89022a8afccd59e1789f17777ec2012f21ed90600090a250565b6004546001600160a01b03163314610a895760405162461bcd60e51b81526020600482015260126024820152712737ba103837b634b1bc9036b0b730b3b2b960711b60448201526064016102ea565b610a91610c07565b6001600160a01b038216610ad75760405162461bcd60e51b815260206004820152600d60248201526c24b73b30b634b2103830bcb2b960991b60448201526064016102ea565b60008111610af75760405162461bcd60e51b81526004016102ea90610f70565b8060026000828254610b099190610fcb565b90915550506040518181526001600160a01b038316907f9bf27b4e5eb1daa68da6772f8e0b994f96da65aadc40d58b37f58baed878cd009060200160405180910390a25050565b6004546000906001600160a01b0316610b695750600090565b6004805460408051636527a2b360e01b815290516001600160a01b0390921692636527a2b39282820192602092908290030181865afa158015610970573d6000803e3d6000fd5b610bb8610c6c565b6001600160a01b038116610be257604051631e4fbdf760e01b8152600060048201526024016102ea565b61072a81610cee565b610bf3610dbd565b6002600080516020610ff883398151915255565b600054600160a01b900460ff161561073d5760405163d93c066560e01b815260040160405180910390fd5b610c3f8383836001610ded565b610c6757604051635274afe760e01b81526001600160a01b03841660048201526024016102ea565b505050565b6000546001600160a01b0316331461073d5760405163118cdaa760e01b81523360048201526024016102ea565b610ca1610e53565b6000805460ff60a01b191690557f5db9ee0a495bf2e6ff9c91a7834c1ba4fdd244a5e8aa4e537bd38aeae4b073aa335b6040516001600160a01b03909116815260200160405180910390a1565b600080546001600160a01b038381166001600160a01b0319831681178455604051919092169283917f8be0079c531659141344cd1fd0a4f28419497f9722a3daafe3b4186f6b6457e09190a35050565b610d4c848484846001610e7d565b610d7457604051635274afe760e01b81526001600160a01b03851660048201526024016102ea565b50505050565b610d82610c07565b6000805460ff60a01b1916600160a01b1790557f62e78cea01bee320cd4e420270b5ea74000d11b0c9f74754ebdbfc544b05a258610cd13390565b600080516020610ff88339815191525460020361073d57604051633ee5aeb560e01b815260040160405180910390fd5b60405163a9059cbb60e01b60008181526001600160a01b038616600452602485905291602083604481808b5af192506001600051148316610e47578383151615610e3a573d6000823e3d81fd5b6000873b113d1516831692505b60405250949350505050565b600054600160a01b900460ff1661073d57604051638dfc202b60e01b815260040160405180910390fd5b6040516323b872dd60e01b60008181526001600160a01b038781166004528616602452604485905291602083606481808c5af192506001600051148316610edd578383151615610ed0573d6000823e3d81fd5b6000883b113d1516831692505b60405250600060605295945050505050565b80356001600160a01b0381168114610f0657600080fd5b919050565b60008060408385031215610f1e57600080fd5b610f2783610eef565b946020939093013593505050565b600060208284031215610f4757600080fd5b5035919050565b600060208284031215610f6057600080fd5b610f6982610eef565b9392505050565b6020808252601290820152710416d6f756e74206d757374206265203e20360741b604082015260600190565b600060208284031215610fae57600080fd5b5051919050565b634e487b7160e01b600052601160045260246000fd5b80820180821115610fde57610fde610fb5565b92915050565b81810381811115610fde57610fde610fb556fe9b779b17422d0df92223018b32b4d1fa46e071723d6817e2486d003becc55f00a2646970667358221220f6b1a7afc22c83a1e0a25b10597c30aefdfdab8cff03c1c62e2d247907a0c9a364736f6c634300081e0033",
  "devdoc": {
    "errors": {
      "EnforcedPause()": [
        {
          "details": "The operation failed because the contract is paused."
        }
      ],
      "ExpectedPause()": [
        {
          "details": "The operation failed because the contract is not paused."
        }
      ],
      "OwnableInvalidOwner(address)": [
        {
          "details": "The owner is not a valid owner account. (eg. `address(0)`)"
        }
      ],
      "OwnableUnauthorizedAccount(address)": [
        {
          "details": "The caller account is not authorized to perform an operation."
        }
      ],
      "ReentrancyGuardReentrantCall()": [
        {
          "details": "Unauthorized reentrant call."
        }
      ],
      "SafeERC20FailedOperation(address)": [
        {
          "details": "An operation with an ERC-20 token failed."
        }
      ]
    },
    "events": {
      "Paused(address)": {
        "details": "Emitted when the pause is triggered by `account`."
      },
      "Unpaused(address)": {
        "details": "Emitted when the pause is lifted by `account`."
      }
    },
    "kind": "dev",
    "methods": {
      "owner()": {
        "details": "Returns the address of the current owner."
      },
      "paused()": {
        "details": "Returns true if the contract is paused, and false otherwise."
      },
      "renounceOwnership()": {
        "details": "Leaves the contract without owner. It will not be possible to call `onlyOwner` functions. Can only be called by the current owner. NOTE: Renouncing ownership will leave the contract without an owner, thereby disabling any functionality that is only available to the owner."
      },
      "transferOwnership(address)": {
        "details": "Transfers ownership of the contract to a new account (`newOwner`). Can only be called by the current owner."
      }
    },
    "version": 1
  },
  "userdoc": {
    "kind": "user",
    "methods": {},
    "version": 1
  },
  "storageLayout": {
    "storage": [
      {
        "astId": 8,
        "contract": "contracts/InsurancePool.sol:InsurancePool",
        "label": "_owner",
        "offset": 0,
        "slot": "0",
        "type": "t_address"
      },
      {
        "astId": 809,
        "contract": "contracts/InsurancePool.sol:InsurancePool",
        "label": "_paused",
        "offset": 20,
        "slot": "0",
        "type": "t_bool"
      },
      {
        "astId": 1185,
        "contract": "contracts/InsurancePool.sol:InsurancePool",
        "label": "totalLiquidity",
        "offset": 0,
        "slot": "1",
        "type": "t_uint256"
      },
      {
        "astId": 1187,
        "contract": "contracts/InsurancePool.sol:InsurancePool",
        "label": "totalPremiumsCollected",
        "offset": 0,
        "slot": "2",
        "type": "t_uint256"
      },
      {
        "astId": 1189,
        "contract": "contracts/InsurancePool.sol:InsurancePool",
        "label": "totalPayouts",
        "offset": 0,
        "slot": "3",
        "type": "t_uint256"
      },
      {
        "astId": 1191,
        "contract": "contracts/InsurancePool.sol:InsurancePool",
        "label": "policyManager",
        "offset": 0,
        "slot": "4",
        "type": "t_address"
      },
      {
        "astId": 1195,
        "contract": "contracts/InsurancePool.sol:InsurancePool",
        "label": "liquidityProvided",
        "offset": 0,
        "slot": "5",
        "type": "t_mapping(t_address,t_uint256)"
      }
    ],
    "types": {
      "t_address": {
        "encoding": "inplace",
        "label": "address",
        "numberOfBytes": "20"
      },
      "t_bool": {
        "encoding": "inplace",
        "label": "bool",
        "numberOfBytes": "1"
      },
      "t_mapping(t_address,t_uint256)": {
        "encoding": "mapping",
        "key": "t_address",
        "label": "mapping(address => uint256)",
        "numberOfBytes": "32",
        "value": "t_uint256"
      },
      "t_uint256": {
        "encoding": "inplace",
        "label": "uint256",
        "numberOfBytes": "32"
      }
    }
  }
}