{
  "address": "0xC6Cce21C3Dd70F8D94af389bdC4ac9d027fa9AdF",
  "abi": [
    {
      "inputs": [
        {
          "internalType": "address",
          "name": "_stablecoin",
          "type": "address"
        },
        {
          "internalType": "address",
          "name": "initialOwner",
          "type": "address"
        }
      ],
      "stateMutability": "nonpayable",
      "type": "constructor"
    },
    {
      "inputs": [],
      "name": "EnforcedPause",
      "type": "error"
    },
    {
      "inputs": [],
      "name": "ExpectedPause",
      "type": "error"
    },
    {
      "inputs": [
        {
          "internalType": "address",
          "name": "owner",
          "type": "address"
        }
      ],
      "name": "OwnableInvalidOwner",
      "type": "error"
    },
    {
      "inputs": [
        {
          "internalType": "address",
          "name": "account",
          "type": "address"
        }
      ],
      "name": "OwnableUnauthorizedAccount",
      "type": "error"
    },
    {
      "inputs": [],
      "name": "ReentrancyGuardReentrantCall",
      "type": "error"
    },
    {
      "anonymous": false,
      "inputs": [
        {
          "indexed": true,
          "internalType": "address",
          "name": "provider",
          "type": "address"
        },
        {
          "indexed": false,
          "internalType": "uint256",
          "name": "amount",
          "type": "uint256"
        }
      ],
      "name": "LiquidityDeposited",
      "type": "event"
    },
    {
      "anonymous": false,
      "inputs": [
        {
          "indexed": true,
          "internalType": "address",
          "name": "previousOwner",
          "type": "address"
        },
        {
          "indexed": true,
          "internalType": "address",
          "name": "newOwner",
          "type": "address"
        }
      ],
      "name": "OwnershipTransferred",
      "type": "event"
    },
    {
      "anonymous": false,
      "inputs": [
        {
          "indexed": false,
          "internalType": "address",
          "name": "account",
          "type": "address"
        }
      ],
      "name": "Paused",
      "type": "event"
    },
    {
      "anonymous": false,
      "inputs": [
        {
          "indexed": true,
          "internalType": "address",
          "name": "policyManager",
          "type": "address"
        }
      ],
      "name": "PolicyManagerSet",
      "type": "event"
    },
    {
      "anonymous": false,
      "inputs": [
        {
          "indexed": true,
          "internalType": "address",
          "name": "payer",
          "type": "address"
        },
        {
          "indexed": false,
          "internalType": "uint256",
          "name": "amount",
          "type": "uint256"
        }
      ],
      "name": "PremiumReceived",
      "type": "event"
    },
    {
      "anonymous": false,
      "inputs": [
        {
          "indexed": false,
          "internalType": "address",
          "name": "account",
          "type": "address"
        }
      ],
      "name": "Unpaused",
      "type": "event"
    },
    {
      "inputs": [
        {
          "internalType": "uint256",
          "name": "amount",
          "type": "uint256"
        }
      ],
      "name": "depositLiquidity",
      "outputs": [],
      "stateMutability": "nonpayable",
      "type": "function"
    },
    {
      "inputs": [],
      "name": "getPoolBalance",
      "outputs": [
        {
          "internalType": "uint256",
          "name": "",
          "type": "uint256"
        }
      ],
      "stateMutability": "view",
      "type": "function"
    },
    {
      "inputs": [
        {
          "internalType": "address",
          "name": "",
          "type": "address"
        }
      ],
      "name": "liquidityProvided",
      "outputs": [
        {
          "internalType": "uint256",
          "name": "",
          "type": "uint256"
        }
      ],
      "stateMutability": "view",
      "type": "function"
    },
    {
      "inputs": [],
      "name": "owner",
      "outputs": [
        {
          "internalType": "address",
          "name": "",
          "type": "address"
        }
      ],
      "stateMutability": "view",
      "type": "function"
    },
    {
      "inputs": [],
      "name": "pause",
      "outputs": [],
      "stateMutability": "nonpayable",
      "type": "function"
    },
    {
      "inputs": [],
      "name": "paused",
      "outputs": [
        {
          "internalType": "bool",
          "name": "",
          "type": "bool"
        }
      ],
      "stateMutability": "view",
      "type": "function"
    },
    {
      "inputs": [],
      "name": "policyManager",
      "outputs": [
        {
          "internalType": "address",
          "name": "",
          "type": "address"
        }
      ],
      "stateMutability": "view",
      "type": "function"
    },
    {
      "inputs": [
        {
          "internalType": "address",
          "name": "payer",
          "type": "address"
        },
        {
          "internalType": "uint256",
          "name": "amount",
          "type": "uint256"
        }
      ],
      "name": "receivePremium",
      "outputs": [],
      "stateMutability": "nonpayable",
      "type": "function"
    },
    {
      "inputs": [],
      "name": "renounceOwnership",
      "outputs": [],
      "stateMutability": "nonpayable",
      "type": "function"
    },
    {
      "inputs": [
        {
          "internalType": "address",
          "name": "_policyManager",
          "type": "address"
        }
      ],
      "name": "setPolicyManager",
      "outputs": [],
      "stateMutability": "nonpayable",
      "type": "function"
    },
    {
      "inputs": [],
      "name": "stablecoin",
      "outputs": [
        {
          "internalType": "contract IERC20",
          "name": "",
          "type": "address"
        }
      ],
      "stateMutability": "view",
      "type": "function"
    },
    {
      "inputs": [],
      "name": "totalLiquidity",
      "outputs": [
        {
          "internalType": "uint256",
          "name": "",
          "type": "uint256"
        }
      ],
      "stateMutability": "view",
      "type": "function"
    },
    {
      "inputs": [],
      "name": "totalPremiumsCollected",
      "outputs": [
        {
          "internalType": "uint256",
          "name": "",
          "type": "uint256"
        }
      ],
      "stateMutability": "view",
      "type": "function"
    },
    {
      "inputs": [
        {
          "internalType": "address",
          "name": "newOwner",
          "type": "address"
        }
      ],
      "name": "transferOwnership",
      "outputs": [],
      "stateMutability": "nonpayable",
      "type": "function"
    },
    {
      "inputs": [],
      "name": "unpause",
      "outputs": [],
      "stateMutability": "nonpayable",
      "type": "function"
    }
  ],
  "transactionHash": "0x23fb36f3d10bb2d7e1d65e02a644436ed6ebc758cc06c3d956655846817b4773",
  "args": [
    "0xFA71294055CbAF8272269b3b875cBFFdCA382Bb6",
    "0x7ab4b089C35F0502d3b739a5A84c2DcfC3b3d990"
  ],
  "numDeployments": 1,
  "solcInputHash": "3a98926217ea4365ab3f745292f91226",
  "bytecode": "0x60a060405234801561001057600080fd5b50604051610bce380380610bce83398101604081905261002f916101a7565b806001600160a01b03811661005f57604051631e4fbdf760e01b8152600060048201526024015b60405180910390fd5b6100688161013b565b5060017f9b779b17422d0df92223018b32b4d1fa46e071723d6817e2486d003becc55f00556001600160a01b0382166100e35760405162461bcd60e51b815260206004820152601a60248201527f496e76616c696420737461626c65636f696e20616464726573730000000000006044820152606401610056565b6001600160a01b0381166101295760405162461bcd60e51b815260206004820152600d60248201526c24b73b30b634b21037bbb732b960991b6044820152606401610056565b506001600160a01b03166080526101da565b600080546001600160a01b038381166001600160a01b0319831681178455604051919092169283917f8be0079c531659141344cd1fd0a4f28419497f9722a3daafe3b4186f6b6457e09190a35050565b80516001600160a01b03811681146101a257600080fd5b919050565b600080604083850312156101ba57600080fd5b6101c38361018b565b91506101d16020840161018b565b90509250929050565b6080516109cb610203600039600081816101f4015281816102cc015261044901526109cb6000f3fe608060405234801561001057600080fd5b50600436106100f55760003560e01c80638456cb5911610097578063adde41e111610066578063adde41e1146101c9578063d5a867b7146101dc578063e9cbd822146101ef578063f2fde38b1461021657600080fd5b80638456cb59146101815780638da5cb5b14610189578063ab3dbf3b146101ae578063abd70aa2146101c157600080fd5b80635c975abb116100d35780635c975abb1461012957806365119f7214610146578063715018a61461016657806376d58e1a1461016e57600080fd5b806315770f92146100fa5780633dadde20146101165780633f4ba83a1461011f575b600080fd5b61010360015481565b6040519081526020015b60405180910390f35b61010360025481565b610127610229565b005b600054600160a01b900460ff16604051901515815260200161010d565b6101036101543660046108ce565b60046020526000908152604090205481565b61012761023b565b61012761017c3660046108f0565b61024d565b610127610421565b6000546001600160a01b03165b6040516001600160a01b03909116815260200161010d565b600354610196906001600160a01b031681565b610103610431565b6101276101d73660046108ce565b6104c1565b6101276101ea366004610909565b610562565b6101967f000000000000000000000000000000000000000000000000000000000000000081565b6101276102243660046108ce565b61069d565b6102316106d8565b610239610705565b565b6102436106d8565b610239600061075a565b6102556107aa565b61025d6107d8565b600081116102a75760405162461bcd60e51b81526020600482015260126024820152710416d6f756e74206d757374206265203e20360741b60448201526064015b60405180910390fd5b6040516323b872dd60e01b8152336004820152306024820152604481018290526000907f00000000000000000000000000000000000000000000000000000000000000006001600160a01b0316906323b872dd906064016020604051808303816000875af115801561031d573d6000803e3d6000fd5b505050506040513d601f19601f820116820180604052508101906103419190610933565b9050806103825760405162461bcd60e51b815260206004820152600f60248201526e151c985b9cd9995c8819985a5b1959608a1b604482015260640161029e565b33600090815260046020526040812080548492906103a1908490610955565b9250508190555081600160008282546103ba9190610955565b909155505060405182815233907f7ff07ce9a287649537e4b012e45cf012d90228b12e2b56bb03515a6b5436fcdf9060200160405180910390a25061041e60017f9b779b17422d0df92223018b32b4d1fa46e071723d6817e2486d003becc55f0055565b50565b6104296106d8565b610239610803565b6040516370a0823160e01b81523060048201526000907f00000000000000000000000000000000000000000000000000000000000000006001600160a01b0316906370a0823190602401602060405180830381865afa158015610498573d6000803e3d6000fd5b505050506040513d601f19601f820116820180604052508101906104bc919061097c565b905090565b6104c96106d8565b6001600160a01b0381166105185760405162461bcd60e51b815260206004820152601660248201527524b73b30b634b2103837b634b1bc9036b0b730b3b2b960511b604482015260640161029e565b600380546001600160a01b0319166001600160a01b0383169081179091556040517f7459f7f9aac6fc4ca8cf3734456a89022a8afccd59e1789f17777ec2012f21ed90600090a250565b6003546001600160a01b031633146105b15760405162461bcd60e51b81526020600482015260126024820152712737ba103837b634b1bc9036b0b730b3b2b960711b604482015260640161029e565b6105b96107d8565b6001600160a01b0382166105ff5760405162461bcd60e51b815260206004820152600d60248201526c24b73b30b634b2103830bcb2b960991b604482015260640161029e565b600081116106445760405162461bcd60e51b81526020600482015260126024820152710416d6f756e74206d757374206265203e20360741b604482015260640161029e565b80600260008282546106569190610955565b90915550506040518181526001600160a01b038316907f9bf27b4e5eb1daa68da6772f8e0b994f96da65aadc40d58b37f58baed878cd009060200160405180910390a25050565b6106a56106d8565b6001600160a01b0381166106cf57604051631e4fbdf760e01b81526000600482015260240161029e565b61041e8161075a565b6000546001600160a01b031633146102395760405163118cdaa760e01b815233600482015260240161029e565b61070d610846565b6000805460ff60a01b191690557f5db9ee0a495bf2e6ff9c91a7834c1ba4fdd244a5e8aa4e537bd38aeae4b073aa335b6040516001600160a01b03909116815260200160405180910390a1565b600080546001600160a01b038381166001600160a01b0319831681178455604051919092169283917f8be0079c531659141344cd1fd0a4f28419497f9722a3daafe3b4186f6b6457e09190a35050565b6107b2610870565b60027f9b779b17422d0df92223018b32b4d1fa46e071723d6817e2486d003becc55f0055565b600054600160a01b900460ff16156102395760405163d93c066560e01b815260040160405180910390fd5b61080b6107d8565b6000805460ff60a01b1916600160a01b1790557f62e78cea01bee320cd4e420270b5ea74000d11b0c9f74754ebdbfc544b05a25861073d3390565b600054600160a01b900460ff1661023957604051638dfc202b60e01b815260040160405180910390fd5b7f9b779b17422d0df92223018b32b4d1fa46e071723d6817e2486d003becc55f005460020361023957604051633ee5aeb560e01b815260040160405180910390fd5b80356001600160a01b03811681146108c957600080fd5b919050565b6000602082840312156108e057600080fd5b6108e9826108b2565b9392505050565b60006020828403121561090257600080fd5b5035919050565b6000806040838503121561091c57600080fd5b610925836108b2565b946020939093013593505050565b60006020828403121561094557600080fd5b815180151581146108e957600080fd5b8082018082111561097657634e487b7160e01b600052601160045260246000fd5b92915050565b60006020828403121561098e57600080fd5b505191905056fea2646970667358221220f71b3c7cca6d5817d0af27e2a543d8b1a09ab656a24c88ae9e838c586f7dfec064736f6c634300081e0033",
  "devdoc": {
    "errors": {
      "EnforcedPause()": [
        {
          "details": "The operation failed because the contract is paused."
        }
      ],
      "ExpectedPause()": [
        {
          "details": "The operation failed because the contract is not paused."
        }
      ],
      "OwnableInvalidOwner(address)": [
        {
          "details": "The owner is not a valid owner account. (eg. `address(0)`)"
        }
      ],
      "OwnableUnauthorizedAccount(address)": [
        {
          "details": "The caller account is not authorized to perform an operation."
        }
      ],
      "ReentrancyGuardReentrantCall()": [
        {
          "details": "Unauthorized reentrant call."
        }
      ]
    },
    "events": {
      "Paused(address)": {
        "details": "Emitted when the pause is triggered by `account`."
      },
      "Unpaused(address)": {
        "details": "Emitted when the pause is lifted by `account`."
      }
    },
    "kind": "dev",
    "methods": {
      "owner()": {
        "details": "Returns the address of the current owner."
      },
      "paused()": {
        "details": "Returns true if the contract is paused, and false otherwise."
      },
      "renounceOwnership()": {
        "details": "Leaves the contract without owner. It will not be possible to call `onlyOwner` functions. Can only be called by the current owner. NOTE: Renouncing ownership will leave the contract without an owner, thereby disabling any functionality that is only available to the owner."
      },
      "transferOwnership(address)": {
        "details": "Transfers ownership of the contract to a new account (`newOwner`). Can only be called by the current owner."
      }
    },
    "version": 1
  },
  "userdoc": {
    "kind": "user",
    "methods": {},
    "version": 1
  },
  "storageLayout": {
    "storage": [
      {
        "astId": 8,
        "contract": "contracts/InsurancePool.sol:InsurancePool",
        "label": "_owner",
        "offset": 0,
        "slot": "0",
        "type": "t_address"
      },
      {
        "astId": 809,
        "contract": "contracts/InsurancePool.sol:InsurancePool",
        "label": "_paused",
        "offset": 20,
        "slot": "0",
        "type": "t_bool"
      },
      {
        "astId": 1174,
        "contract": "contracts/InsurancePool.sol:InsurancePool",
        "label": "totalLiquidity",
        "offset": 0,
        "slot": "1",
        "type": "t_uint256"
      },
      {
        "astId": 1176,
        "contract": "contracts/InsurancePool.sol:InsurancePool",
        "label": "totalPremiumsCollected",
        "offset": 0,
        "slot": "2",
        "type": "t_uint256"
      },
      {
        "astId": 1178,
        "contract": "contracts/InsurancePool.sol:InsurancePool",
        "label": "policyManager",
        "offset": 0,
        "slot": "3",
        "type": "t_address"
      },
      {
        "astId": 1182,
        "contract": "contracts/InsurancePool.sol:InsurancePool",
        "label": "liquidityProvided",
        "offset": 0,
        "slot": "4",
        "type": "t_mapping(t_address,t_uint256)"
      }
    ],
    "types": {
      "t_address": {
        "encoding": "inplace",
        "label": "address",
        "numberOfBytes": "20"
      },
      "t_bool": {
        "encoding": "inplace",
        "label": "bool",
        "numberOfBytes": "1"
      },
      "t_mapping(t_address,t_uint256)": {
        "encoding": "mapping",
        "key": "t_address",
        "label": "mapping(address => uint256)",
        "numberOfBytes": "32",
        "value": "t_uint256"
      },
      "t_uint256": {
        "encoding": "inplace",
        "label": "uint256",
        "numberOfBytes": "32"
      }
    }
  }
}