{
  "address": "0xE829e46105cbc7AB4EF0b88c32490615488E5E69",
  "abi": [
    {
      "inputs": [
        {
          "internalType": "address",
          "name": "initialOwner",
          "type": "address"
        }
      ],
      "stateMutability": "nonpayable",
      "type": "constructor"
    },
    {
      "inputs": [],
      "name": "EnforcedPause",
      "type": "error"
    },
    {
      "inputs": [],
      "name": "ExpectedPause",
      "type": "error"
    },
    {
      "inputs": [
        {
          "internalType": "address",
          "name": "owner",
          "type": "address"
        }
      ],
      "name": "OwnableInvalidOwner",
      "type": "error"
    },
    {
      "inputs": [
        {
          "internalType": "address",
          "name": "account",
          "type": "address"
        }
      ],
      "name": "OwnableUnauthorizedAccount",
      "type": "error"
    },
    {
      "anonymous": false,
      "inputs": [
        {
          "indexed": true,
          "internalType": "address",
          "name": "newAutomationForwarder",
          "type": "address"
        }
      ],
      "name": "AutomationForwarderUpdated",
      "type": "event"
    },
    {
      "anonymous": false,
      "inputs": [
        {
          "indexed": true,
          "internalType": "uint256",
          "name": "requestId",
          "type": "uint256"
        },
        {
          "indexed": true,
          "internalType": "uint256",
          "name": "policyId",
          "type": "uint256"
        },
        {
          "indexed": false,
          "internalType": "enum OracleCoordinator.FlightOutcome",
          "name": "outcome",
          "type": "uint8"
        },
        {
          "indexed": false,
          "internalType": "uint256",
          "name": "delayMinutes",
          "type": "uint256"
        },
        {
          "indexed": false,
          "internalType": "bool",
          "name": "payoutExecuted",
          "type": "bool"
        },
        {
          "indexed": false,
          "internalType": "uint256",
          "name": "payoutAmount",
          "type": "uint256"
        },
        {
          "indexed": false,
          "internalType": "address",
          "name": "reporter",
          "type": "address"
        }
      ],
      "name": "OracleCheckFulfilled",
      "type": "event"
    },
    {
      "anonymous": false,
      "inputs": [
        {
          "indexed": true,
          "internalType": "uint256",
          "name": "requestId",
          "type": "uint256"
        },
        {
          "indexed": true,
          "internalType": "uint256",
          "name": "policyId",
          "type": "uint256"
        },
        {
          "indexed": true,
          "internalType": "address",
          "name": "requester",
          "type": "address"
        }
      ],
      "name": "OracleCheckRequested",
      "type": "event"
    },
    {
      "anonymous": false,
      "inputs": [
        {
          "indexed": true,
          "internalType": "address",
          "name": "previousOwner",
          "type": "address"
        },
        {
          "indexed": true,
          "internalType": "address",
          "name": "newOwner",
          "type": "address"
        }
      ],
      "name": "OwnershipTransferred",
      "type": "event"
    },
    {
      "anonymous": false,
      "inputs": [
        {
          "indexed": false,
          "internalType": "address",
          "name": "account",
          "type": "address"
        }
      ],
      "name": "Paused",
      "type": "event"
    },
    {
      "anonymous": false,
      "inputs": [
        {
          "indexed": true,
          "internalType": "address",
          "name": "newPolicyManager",
          "type": "address"
        }
      ],
      "name": "PolicyManagerUpdated",
      "type": "event"
    },
    {
      "anonymous": false,
      "inputs": [
        {
          "indexed": true,
          "internalType": "address",
          "name": "reporter",
          "type": "address"
        },
        {
          "indexed": false,
          "internalType": "bool",
          "name": "isAuthorized",
          "type": "bool"
        }
      ],
      "name": "ReporterUpdated",
      "type": "event"
    },
    {
      "anonymous": false,
      "inputs": [
        {
          "indexed": false,
          "internalType": "address",
          "name": "account",
          "type": "address"
        }
      ],
      "name": "Unpaused",
      "type": "event"
    },
    {
      "inputs": [],
      "name": "automationForwarder",
      "outputs": [
        {
          "internalType": "address",
          "name": "",
          "type": "address"
        }
      ],
      "stateMutability": "view",
      "type": "function"
    },
    {
      "inputs": [
        {
          "internalType": "bytes",
          "name": "checkData",
          "type": "bytes"
        }
      ],
      "name": "checkUpkeep",
      "outputs": [
        {
          "internalType": "bool",
          "name": "upkeepNeeded",
          "type": "bool"
        },
        {
          "internalType": "bytes",
          "name": "performData",
          "type": "bytes"
        }
      ],
      "stateMutability": "view",
      "type": "function"
    },
    {
      "inputs": [
        {
          "internalType": "uint256",
          "name": "policyId",
          "type": "uint256"
        },
        {
          "internalType": "uint8",
          "name": "outcome",
          "type": "uint8"
        },
        {
          "internalType": "uint256",
          "name": "delayMinutes",
          "type": "uint256"
        }
      ],
      "name": "fulfillOracleCheck",
      "outputs": [],
      "stateMutability": "nonpayable",
      "type": "function"
    },
    {
      "inputs": [],
      "name": "nextRequestId",
      "outputs": [
        {
          "internalType": "uint256",
          "name": "",
          "type": "uint256"
        }
      ],
      "stateMutability": "view",
      "type": "function"
    },
    {
      "inputs": [],
      "name": "owner",
      "outputs": [
        {
          "internalType": "address",
          "name": "",
          "type": "address"
        }
      ],
      "stateMutability": "view",
      "type": "function"
    },
    {
      "inputs": [],
      "name": "pause",
      "outputs": [],
      "stateMutability": "nonpayable",
      "type": "function"
    },
    {
      "inputs": [],
      "name": "paused",
      "outputs": [
        {
          "internalType": "bool",
          "name": "",
          "type": "bool"
        }
      ],
      "stateMutability": "view",
      "type": "function"
    },
    {
      "inputs": [
        {
          "internalType": "bytes",
          "name": "performData",
          "type": "bytes"
        }
      ],
      "name": "performUpkeep",
      "outputs": [],
      "stateMutability": "nonpayable",
      "type": "function"
    },
    {
      "inputs": [],
      "name": "policyManager",
      "outputs": [
        {
          "internalType": "address",
          "name": "",
          "type": "address"
        }
      ],
      "stateMutability": "view",
      "type": "function"
    },
    {
      "inputs": [],
      "name": "renounceOwnership",
      "outputs": [],
      "stateMutability": "nonpayable",
      "type": "function"
    },
    {
      "inputs": [
        {
          "internalType": "address",
          "name": "",
          "type": "address"
        }
      ],
      "name": "reporters",
      "outputs": [
        {
          "internalType": "bool",
          "name": "",
          "type": "bool"
        }
      ],
      "stateMutability": "view",
      "type": "function"
    },
    {
      "inputs": [
        {
          "internalType": "uint256",
          "name": "policyId",
          "type": "uint256"
        }
      ],
      "name": "requestOracleCheck",
      "outputs": [],
      "stateMutability": "nonpayable",
      "type": "function"
    },
    {
      "inputs": [
        {
          "internalType": "uint256",
          "name": "",
          "type": "uint256"
        }
      ],
      "name": "requestsByPolicyId",
      "outputs": [
        {
          "internalType": "uint256",
          "name": "requestId",
          "type": "uint256"
        },
        {
          "internalType": "uint256",
          "name": "policyId",
          "type": "uint256"
        },
        {
          "internalType": "uint256",
          "name": "requestedAt",
          "type": "uint256"
        },
        {
          "internalType": "uint256",
          "name": "fulfilledAt",
          "type": "uint256"
        },
        {
          "internalType": "bool",
          "name": "pending",
          "type": "bool"
        },
        {
          "internalType": "bool",
          "name": "fulfilled",
          "type": "bool"
        },
        {
          "internalType": "enum OracleCoordinator.FlightOutcome",
          "name": "outcome",
          "type": "uint8"
        },
        {
          "internalType": "uint256",
          "name": "delayMinutes",
          "type": "uint256"
        },
        {
          "internalType": "bool",
          "name": "payoutExecuted",
          "type": "bool"
        },
        {
          "internalType": "uint256",
          "name": "payoutAmount",
          "type": "uint256"
        }
      ],
      "stateMutability": "view",
      "type": "function"
    },
    {
      "inputs": [
        {
          "internalType": "address",
          "name": "newAutomationForwarder",
          "type": "address"
        }
      ],
      "name": "setAutomationForwarder",
      "outputs": [],
      "stateMutability": "nonpayable",
      "type": "function"
    },
    {
      "inputs": [
        {
          "internalType": "address",
          "name": "newPolicyManager",
          "type": "address"
        }
      ],
      "name": "setPolicyManager",
      "outputs": [],
      "stateMutability": "nonpayable",
      "type": "function"
    },
    {
      "inputs": [
        {
          "internalType": "address",
          "name": "reporter",
          "type": "address"
        },
        {
          "internalType": "bool",
          "name": "isAuthorized",
          "type": "bool"
        }
      ],
      "name": "setReporter",
      "outputs": [],
      "stateMutability": "nonpayable",
      "type": "function"
    },
    {
      "inputs": [
        {
          "internalType": "address",
          "name": "newOwner",
          "type": "address"
        }
      ],
      "name": "transferOwnership",
      "outputs": [],
      "stateMutability": "nonpayable",
      "type": "function"
    },
    {
      "inputs": [],
      "name": "unpause",
      "outputs": [],
      "stateMutability": "nonpayable",
      "type": "function"
    }
  ],
  "transactionHash": "0x8165abb55ffdced205f31ab238ce8b22a41de4666106448dea5eb33b82d1f405",
  "args": [
    "0x7ab4b089C35F0502d3b739a5A84c2DcfC3b3d990"
  ],
  "numDeployments": 1,
  "solcInputHash": "611de110309b80cf6d0c10006e344b68",
  "bytecode": "0x6080604052600160035534801561001557600080fd5b5060405161139f38038061139f8339810160408190526100349161010a565b806001600160a01b03811661006457604051631e4fbdf760e01b8152600060048201526024015b60405180910390fd5b61006d816100ba565b506001600160a01b0381166100b45760405162461bcd60e51b815260206004820152600d60248201526c24b73b30b634b21037bbb732b960991b604482015260640161005b565b5061013a565b600080546001600160a01b038381166001600160a01b0319831681178455604051919092169283917f8be0079c531659141344cd1fd0a4f28419497f9722a3daafe3b4186f6b6457e09190a35050565b60006020828403121561011c57600080fd5b81516001600160a01b038116811461013357600080fd5b9392505050565b611256806101496000396000f3fe608060405234801561001057600080fd5b50600436106101165760003560e01c806377352cf9116100a2578063adde41e111610071578063adde41e1146102ad578063d40d17bc146102c0578063e1bb5133146102d3578063f2fde38b146102e6578063f652e63d146102f957600080fd5b806377352cf91461026e5780638456cb59146102815780638da5cb5b14610289578063ab3dbf3b1461029a57600080fd5b80634585e33b116100e95780634585e33b146102095780635c975abb1461021c5780636a84a9851461022e5780636e04ff0d14610245578063715018a61461026657600080fd5b80632cc1cd9e1461011b57806334ae117a146101535780633b2786cb146101d45780633f4ba83a146101ff575b600080fd5b61013e610129366004610f55565b60046020526000908152604090205460ff1681565b60405190151581526020015b60405180910390f35b6101be610161366004610f77565b600560208190526000918252604090912080546001820154600283015460038401546004850154958501546006860154600790960154949693959294919360ff80821694610100830482169462010000909304821693929116908a565b60405161014a9a99989796959493929190610fc8565b6002546101e7906001600160a01b031681565b6040516001600160a01b03909116815260200161014a565b61020761030c565b005b610207610217366004611026565b61031e565b600054600160a01b900460ff1661013e565b61023760035481565b60405190815260200161014a565b610258610253366004611026565b6103be565b60405161014a92919061109a565b610207610564565b61020761027c366004610f77565b610576565b6102076108d2565b6000546001600160a01b03166101e7565b6001546101e7906001600160a01b031681565b6102076102bb366004610f55565b6108e2565b6102076102ce366004610f55565b610983565b6102076102e13660046110ff565b6109d5565b6102076102f4366004610f55565b610a85565b610207610307366004611136565b610ac3565b610314610dcf565b61031c610dfc565b565b6000546001600160a01b031633148061035657506002546001600160a01b03161580159061035657506002546001600160a01b031633145b6103985760405162461bcd60e51b815260206004820152600e60248201526d2737ba1030baba37b6b0ba34b7b760911b60448201526064015b60405180910390fd5b6103a0610e51565b60006103ae82840184610f77565b90506103b981610576565b505050565b60006060816103cf84860186610f77565b6000818152600560209081526040808320815161014081018352815481526001820154938101939093526002810154918301919091526003808201546060840152600482015460ff8082161515608086015261010082048116151560a086015295965093949293919260c0850192620100009004169081111561045457610454610f90565b600381111561046557610465610f90565b815260058201546020820152600682015460ff1615156040820152600790910154606090910152608081015190915060009080156104a557508160a00151155b6001549091506001600160a01b0316158015906104c0575080155b80156105345750600154604051630eae939360e31b8152600481018590526001600160a01b03909116906375749c9890602401602060405180830381865afa158015610510573d6000803e3d6000fd5b505050506040513d601f19601f820116820180604052508101906105349190611174565b94508260405160200161054991815260200190565b60405160208183030381529060405293505050509250929050565b61056c610dcf565b61031c6000610e7c565b6000546001600160a01b03163314806105ae57506002546001600160a01b0316158015906105ae57506002546001600160a01b031633145b6105eb5760405162461bcd60e51b815260206004820152600e60248201526d2737ba1030baba37b6b0ba34b7b760911b604482015260640161038f565b6105f3610e51565b6001546001600160a01b03166106445760405162461bcd60e51b8152602060048201526016602482015275141bdb1a58de481b585b9859d95c881b9bdd081cd95d60521b604482015260640161038f565b600154604051630eae939360e31b8152600481018390526001600160a01b03909116906375749c9890602401602060405180830381865afa15801561068d573d6000803e3d6000fd5b505050506040513d601f19601f820116820180604052508101906106b19190611174565b6106f05760405162461bcd60e51b815260206004820152601060248201526f506f6c696379206e6f7420726561647960801b604482015260640161038f565b6000818152600560205260409020600481015460ff16801561071c57506004810154610100900460ff16155b156107695760405162461bcd60e51b815260206004820152601760248201527f5265717565737420616c72656164792070656e64696e67000000000000000000604482015260640161038f565b600380546000918261077a83611191565b91905055905060405180610140016040528082815260200184815260200142815260200160008152602001600115158152602001600015158152602001600060038111156107ca576107ca610f90565b8152600060208083018290526040808401839052606093840183905287835260058252918290208451815590840151600182015590830151600282015590820151600380830191909155608083015160048301805460a086015115156101000261ff00199315159390931661ffff19909116179190911780825560c08501519262ff000019909116906201000090849081111561086957610869610f90565b021790555060e0820151600582015561010082015160068201805460ff1916911515919091179055610120909101516007909101556040513390849083907f345636036a215f24c782d7bd29248841333812452fcd9c8e988acc0053b3d28a90600090a4505050565b6108da610dcf565b61031c610ecc565b6108ea610dcf565b6001600160a01b0381166109395760405162461bcd60e51b815260206004820152601660248201527524b73b30b634b2103837b634b1bc9036b0b730b3b2b960511b604482015260640161038f565b600180546001600160a01b0319166001600160a01b0383169081179091556040517f5106d9fe21e5ccaebfff5e5b6191d80ca628c317ef02f88ec6abbc39e505f6c390600090a250565b61098b610dcf565b600280546001600160a01b0319166001600160a01b0383169081179091556040517ffb54319616130cee7ea920b30db448cec25791aeb64a5d0e65ea1ecc8dc3986290600090a250565b6109dd610dcf565b6001600160a01b038216610a265760405162461bcd60e51b815260206004820152601060248201526f24b73b30b634b2103932b837b93a32b960811b604482015260640161038f565b6001600160a01b038216600081815260046020908152604091829020805460ff191685151590811790915591519182527f3852f36d292dc71d9e7d1a5a7612b2cf3d10b1772f1909c3bf23aac036db7e18910160405180910390a25050565b610a8d610dcf565b6001600160a01b038116610ab757604051631e4fbdf760e01b81526000600482015260240161038f565b610ac081610e7c565b50565b3360009081526004602052604090205460ff16610b225760405162461bcd60e51b815260206004820152601760248201527f4e6f7420617574686f72697a6564207265706f72746572000000000000000000604482015260640161038f565b610b2a610e51565b6001546001600160a01b0316610b7b5760405162461bcd60e51b8152602060048201526016602482015275141bdb1a58de481b585b9859d95c881b9bdd081cd95d60521b604482015260640161038f565b600360ff83161115610bc15760405162461bcd60e51b815260206004820152600f60248201526e496e76616c6964206f7574636f6d6560881b604482015260640161038f565b60008381526005602052604081208054909103610c145760405162461bcd60e51b815260206004820152601160248201527014995c5d595cdd081b9bdd08199bdd5b99607a1b604482015260640161038f565b600481015460ff168015610c3257506004810154610100900460ff16155b610c745760405162461bcd60e51b815260206004820152601360248201527252657175657374206e6f742070656e64696e6760681b604482015260640161038f565b600154604051637a7157c960e11b81526004810186905260ff851660248201526044810184905260009182916001600160a01b039091169063f4e2af929060640160408051808303816000875af1158015610cd3573d6000803e3d6000fd5b505050506040513d601f19601f82011682018060405250810190610cf791906111b8565b60048501805461ffff191661010017905542600380870191909155919350915060ff861690811115610d2b57610d2b610f90565b60048401805462ff0000191662010000836003811115610d4d57610d4d610f90565b02179055506005830184905560068301805460ff191683151517905560078301819055825486907f20195d0651f5f49d601ea3c89c02cb5f776e3ebe5cd731f648a950ee22f9658460ff88166003811115610daa57610daa610f90565b87868633604051610dbf9594939291906111e6565b60405180910390a3505050505050565b6000546001600160a01b0316331461031c5760405163118cdaa760e01b815233600482015260240161038f565b610e04610f0f565b6000805460ff60a01b191690557f5db9ee0a495bf2e6ff9c91a7834c1ba4fdd244a5e8aa4e537bd38aeae4b073aa335b6040516001600160a01b03909116815260200160405180910390a1565b600054600160a01b900460ff161561031c5760405163d93c066560e01b815260040160405180910390fd5b600080546001600160a01b038381166001600160a01b0319831681178455604051919092169283917f8be0079c531659141344cd1fd0a4f28419497f9722a3daafe3b4186f6b6457e09190a35050565b610ed4610e51565b6000805460ff60a01b1916600160a01b1790557f62e78cea01bee320cd4e420270b5ea74000d11b0c9f74754ebdbfc544b05a258610e343390565b600054600160a01b900460ff1661031c57604051638dfc202b60e01b815260040160405180910390fd5b80356001600160a01b0381168114610f5057600080fd5b919050565b600060208284031215610f6757600080fd5b610f7082610f39565b9392505050565b600060208284031215610f8957600080fd5b5035919050565b634e487b7160e01b600052602160045260246000fd5b60048110610fc457634e487b7160e01b600052602160045260246000fd5b9052565b6000610140820190508b82528a6020830152896040830152886060830152871515608083015286151560a083015261100360c0830187610fa6565b60e082019490945291151561010083015261012090910152979650505050505050565b6000806020838503121561103957600080fd5b823567ffffffffffffffff81111561105057600080fd5b8301601f8101851361106157600080fd5b803567ffffffffffffffff81111561107857600080fd5b85602082840101111561108a57600080fd5b6020919091019590945092505050565b8215158152604060208201526000825180604084015260005b818110156110d057602081860181015160608684010152016110b3565b506000606082850101526060601f19601f8301168401019150509392505050565b8015158114610ac057600080fd5b6000806040838503121561111257600080fd5b61111b83610f39565b9150602083013561112b816110f1565b809150509250929050565b60008060006060848603121561114b57600080fd5b83359250602084013560ff8116811461116357600080fd5b929592945050506040919091013590565b60006020828403121561118657600080fd5b8151610f70816110f1565b6000600182016111b157634e487b7160e01b600052601160045260246000fd5b5060010190565b600080604083850312156111cb57600080fd5b82516111d6816110f1565b6020939093015192949293505050565b60a081016111f48288610fa6565b6020820195909552921515604084015260608301919091526001600160a01b031660809091015291905056fea264697066735822122027b7b099fe491e1f463aa3f5aa176b4297c64be5722fbe95dfb36a2a9397f9d564736f6c634300081e0033",
  "devdoc": {
    "errors": {
      "EnforcedPause()": [
        {
          "details": "The operation failed because the contract is paused."
        }
      ],
      "ExpectedPause()": [
        {
          "details": "The operation failed because the contract is not paused."
        }
      ],
      "OwnableInvalidOwner(address)": [
        {
          "details": "The owner is not a valid owner account. (eg. `address(0)`)"
        }
      ],
      "OwnableUnauthorizedAccount(address)": [
        {
          "details": "The caller account is not authorized to perform an operation."
        }
      ]
    },
    "events": {
      "Paused(address)": {
        "details": "Emitted when the pause is triggered by `account`."
      },
      "Unpaused(address)": {
        "details": "Emitted when the pause is lifted by `account`."
      }
    },
    "kind": "dev",
    "methods": {
      "owner()": {
        "details": "Returns the address of the current owner."
      },
      "paused()": {
        "details": "Returns true if the contract is paused, and false otherwise."
      },
      "renounceOwnership()": {
        "details": "Leaves the contract without owner. It will not be possible to call `onlyOwner` functions. Can only be called by the current owner. NOTE: Renouncing ownership will leave the contract without an owner, thereby disabling any functionality that is only available to the owner."
      },
      "transferOwnership(address)": {
        "details": "Transfers ownership of the contract to a new account (`newOwner`). Can only be called by the current owner."
      }
    },
    "version": 1
  },
  "userdoc": {
    "kind": "user",
    "methods": {},
    "version": 1
  },
  "storageLayout": {
    "storage": [
      {
        "astId": 8,
        "contract": "contracts/OracleCoordinator.sol:OracleCoordinator",
        "label": "_owner",
        "offset": 0,
        "slot": "0",
        "type": "t_address"
      },
      {
        "astId": 809,
        "contract": "contracts/OracleCoordinator.sol:OracleCoordinator",
        "label": "_paused",
        "offset": 20,
        "slot": "0",
        "type": "t_bool"
      },
      {
        "astId": 1521,
        "contract": "contracts/OracleCoordinator.sol:OracleCoordinator",
        "label": "policyManager",
        "offset": 0,
        "slot": "1",
        "type": "t_address"
      },
      {
        "astId": 1523,
        "contract": "contracts/OracleCoordinator.sol:OracleCoordinator",
        "label": "automationForwarder",
        "offset": 0,
        "slot": "2",
        "type": "t_address"
      },
      {
        "astId": 1526,
        "contract": "contracts/OracleCoordinator.sol:OracleCoordinator",
        "label": "nextRequestId",
        "offset": 0,
        "slot": "3",
        "type": "t_uint256"
      },
      {
        "astId": 1530,
        "contract": "contracts/OracleCoordinator.sol:OracleCoordinator",
        "label": "reporters",
        "offset": 0,
        "slot": "4",
        "type": "t_mapping(t_address,t_bool)"
      },
      {
        "astId": 1535,
        "contract": "contracts/OracleCoordinator.sol:OracleCoordinator",
        "label": "requestsByPolicyId",
        "offset": 0,
        "slot": "5",
        "type": "t_mapping(t_uint256,t_struct(OracleRequest)1519_storage)"
      }
    ],
    "types": {
      "t_address": {
        "encoding": "inplace",
        "label": "address",
        "numberOfBytes": "20"
      },
      "t_bool": {
        "encoding": "inplace",
        "label": "bool",
        "numberOfBytes": "1"
      },
      "t_enum(FlightOutcome)1497": {
        "encoding": "inplace",
        "label": "enum OracleCoordinator.FlightOutcome",
        "numberOfBytes": "1"
      },
      "t_mapping(t_address,t_bool)": {
        "encoding": "mapping",
        "key": "t_address",
        "label": "mapping(address => bool)",
        "numberOfBytes": "32",
        "value": "t_bool"
      },
      "t_mapping(t_uint256,t_struct(OracleRequest)1519_storage)": {
        "encoding": "mapping",
        "key": "t_uint256",
        "label": "mapping(uint256 => struct OracleCoordinator.OracleRequest)",
        "numberOfBytes": "32",
        "value": "t_struct(OracleRequest)1519_storage"
      },
      "t_struct(OracleRequest)1519_storage": {
        "encoding": "inplace",
        "label": "struct OracleCoordinator.OracleRequest",
        "members": [
          {
            "astId": 1499,
            "contract": "contracts/OracleCoordinator.sol:OracleCoordinator",
            "label": "requestId",
            "offset": 0,
            "slot": "0",
            "type": "t_uint256"
          },
          {
            "astId": 1501,
            "contract": "contracts/OracleCoordinator.sol:OracleCoordinator",
            "label": "policyId",
            "offset": 0,
            "slot": "1",
            "type": "t_uint256"
          },
          {
            "astId": 1503,
            "contract": "contracts/OracleCoordinator.sol:OracleCoordinator",
            "label": "requestedAt",
            "offset": 0,
            "slot": "2",
            "type": "t_uint256"
          },
          {
            "astId": 1505,
            "contract": "contracts/OracleCoordinator.sol:OracleCoordinator",
            "label": "fulfilledAt",
            "offset": 0,
            "slot": "3",
            "type": "t_uint256"
          },
          {
            "astId": 1507,
            "contract": "contracts/OracleCoordinator.sol:OracleCoordinator",
            "label": "pending",
            "offset": 0,
            "slot": "4",
            "type": "t_bool"
          },
          {
            "astId": 1509,
            "contract": "contracts/OracleCoordinator.sol:OracleCoordinator",
            "label": "fulfilled",
            "offset": 1,
            "slot": "4",
            "type": "t_bool"
          },
          {
            "astId": 1512,
            "contract": "contracts/OracleCoordinator.sol:OracleCoordinator",
            "label": "outcome",
            "offset": 2,
            "slot": "4",
            "type": "t_enum(FlightOutcome)1497"
          },
          {
            "astId": 1514,
            "contract": "contracts/OracleCoordinator.sol:OracleCoordinator",
            "label": "delayMinutes",
            "offset": 0,
            "slot": "5",
            "type": "t_uint256"
          },
          {
            "astId": 1516,
            "contract": "contracts/OracleCoordinator.sol:OracleCoordinator",
            "label": "payoutExecuted",
            "offset": 0,
            "slot": "6",
            "type": "t_bool"
          },
          {
            "astId": 1518,
            "contract": "contracts/OracleCoordinator.sol:OracleCoordinator",
            "label": "payoutAmount",
            "offset": 0,
            "slot": "7",
            "type": "t_uint256"
          }
        ],
        "numberOfBytes": "256"
      },
      "t_uint256": {
        "encoding": "inplace",
        "label": "uint256",
        "numberOfBytes": "32"
      }
    }
  }
}