{
  "address": "0x29675C0F6593D9Fd290CC4f67ac0bFB324a853D5",
  "abi": [
    {
      "inputs": [
        {
          "internalType": "address",
          "name": "initialOwner",
          "type": "address"
        }
      ],
      "stateMutability": "nonpayable",
      "type": "constructor"
    },
    {
      "inputs": [],
      "name": "EnforcedPause",
      "type": "error"
    },
    {
      "inputs": [],
      "name": "ExpectedPause",
      "type": "error"
    },
    {
      "inputs": [
        {
          "internalType": "address",
          "name": "owner",
          "type": "address"
        }
      ],
      "name": "OwnableInvalidOwner",
      "type": "error"
    },
    {
      "inputs": [
        {
          "internalType": "address",
          "name": "account",
          "type": "address"
        }
      ],
      "name": "OwnableUnauthorizedAccount",
      "type": "error"
    },
    {
      "anonymous": false,
      "inputs": [
        {
          "indexed": true,
          "internalType": "address",
          "name": "newAutomationForwarder",
          "type": "address"
        }
      ],
      "name": "AutomationForwarderUpdated",
      "type": "event"
    },
    {
      "anonymous": false,
      "inputs": [
        {
          "indexed": true,
          "internalType": "address",
          "name": "newOracleCallbackConsumer",
          "type": "address"
        }
      ],
      "name": "OracleCallbackConsumerUpdated",
      "type": "event"
    },
    {
      "anonymous": false,
      "inputs": [
        {
          "indexed": true,
          "internalType": "uint256",
          "name": "requestId",
          "type": "uint256"
        },
        {
          "indexed": true,
          "internalType": "uint256",
          "name": "policyId",
          "type": "uint256"
        },
        {
          "indexed": false,
          "internalType": "enum OracleCoordinator.FlightOutcome",
          "name": "outcome",
          "type": "uint8"
        },
        {
          "indexed": false,
          "internalType": "uint256",
          "name": "delayMinutes",
          "type": "uint256"
        },
        {
          "indexed": false,
          "internalType": "bool",
          "name": "payoutExecuted",
          "type": "bool"
        },
        {
          "indexed": false,
          "internalType": "uint256",
          "name": "payoutAmount",
          "type": "uint256"
        },
        {
          "indexed": false,
          "internalType": "address",
          "name": "reporter",
          "type": "address"
        }
      ],
      "name": "OracleCheckFulfilled",
      "type": "event"
    },
    {
      "anonymous": false,
      "inputs": [
        {
          "indexed": true,
          "internalType": "uint256",
          "name": "requestId",
          "type": "uint256"
        },
        {
          "indexed": true,
          "internalType": "uint256",
          "name": "policyId",
          "type": "uint256"
        },
        {
          "indexed": true,
          "internalType": "address",
          "name": "requester",
          "type": "address"
        }
      ],
      "name": "OracleCheckRequested",
      "type": "event"
    },
    {
      "anonymous": false,
      "inputs": [
        {
          "indexed": true,
          "internalType": "address",
          "name": "previousOwner",
          "type": "address"
        },
        {
          "indexed": true,
          "internalType": "address",
          "name": "newOwner",
          "type": "address"
        }
      ],
      "name": "OwnershipTransferred",
      "type": "event"
    },
    {
      "anonymous": false,
      "inputs": [
        {
          "indexed": false,
          "internalType": "address",
          "name": "account",
          "type": "address"
        }
      ],
      "name": "Paused",
      "type": "event"
    },
    {
      "anonymous": false,
      "inputs": [
        {
          "indexed": true,
          "internalType": "address",
          "name": "newPolicyManager",
          "type": "address"
        }
      ],
      "name": "PolicyManagerUpdated",
      "type": "event"
    },
    {
      "anonymous": false,
      "inputs": [
        {
          "indexed": true,
          "internalType": "address",
          "name": "reporter",
          "type": "address"
        },
        {
          "indexed": false,
          "internalType": "bool",
          "name": "isAuthorized",
          "type": "bool"
        }
      ],
      "name": "ReporterUpdated",
      "type": "event"
    },
    {
      "anonymous": false,
      "inputs": [
        {
          "indexed": false,
          "internalType": "address",
          "name": "account",
          "type": "address"
        }
      ],
      "name": "Unpaused",
      "type": "event"
    },
    {
      "inputs": [],
      "name": "automationForwarder",
      "outputs": [
        {
          "internalType": "address",
          "name": "",
          "type": "address"
        }
      ],
      "stateMutability": "view",
      "type": "function"
    },
    {
      "inputs": [
        {
          "internalType": "bytes",
          "name": "checkData",
          "type": "bytes"
        }
      ],
      "name": "checkUpkeep",
      "outputs": [
        {
          "internalType": "bool",
          "name": "upkeepNeeded",
          "type": "bool"
        },
        {
          "internalType": "bytes",
          "name": "performData",
          "type": "bytes"
        }
      ],
      "stateMutability": "view",
      "type": "function"
    },
    {
      "inputs": [
        {
          "internalType": "uint256",
          "name": "policyId",
          "type": "uint256"
        },
        {
          "internalType": "uint8",
          "name": "outcome",
          "type": "uint8"
        },
        {
          "internalType": "uint256",
          "name": "delayMinutes",
          "type": "uint256"
        }
      ],
      "name": "fulfillOracleCheck",
      "outputs": [],
      "stateMutability": "nonpayable",
      "type": "function"
    },
    {
      "inputs": [],
      "name": "nextRequestId",
      "outputs": [
        {
          "internalType": "uint256",
          "name": "",
          "type": "uint256"
        }
      ],
      "stateMutability": "view",
      "type": "function"
    },
    {
      "inputs": [],
      "name": "oracleCallbackConsumer",
      "outputs": [
        {
          "internalType": "address",
          "name": "",
          "type": "address"
        }
      ],
      "stateMutability": "view",
      "type": "function"
    },
    {
      "inputs": [],
      "name": "owner",
      "outputs": [
        {
          "internalType": "address",
          "name": "",
          "type": "address"
        }
      ],
      "stateMutability": "view",
      "type": "function"
    },
    {
      "inputs": [],
      "name": "pause",
      "outputs": [],
      "stateMutability": "nonpayable",
      "type": "function"
    },
    {
      "inputs": [],
      "name": "paused",
      "outputs": [
        {
          "internalType": "bool",
          "name": "",
          "type": "bool"
        }
      ],
      "stateMutability": "view",
      "type": "function"
    },
    {
      "inputs": [
        {
          "internalType": "bytes",
          "name": "performData",
          "type": "bytes"
        }
      ],
      "name": "performUpkeep",
      "outputs": [],
      "stateMutability": "nonpayable",
      "type": "function"
    },
    {
      "inputs": [],
      "name": "policyManager",
      "outputs": [
        {
          "internalType": "address",
          "name": "",
          "type": "address"
        }
      ],
      "stateMutability": "view",
      "type": "function"
    },
    {
      "inputs": [],
      "name": "renounceOwnership",
      "outputs": [],
      "stateMutability": "nonpayable",
      "type": "function"
    },
    {
      "inputs": [
        {
          "internalType": "address",
          "name": "",
          "type": "address"
        }
      ],
      "name": "reporters",
      "outputs": [
        {
          "internalType": "bool",
          "name": "",
          "type": "bool"
        }
      ],
      "stateMutability": "view",
      "type": "function"
    },
    {
      "inputs": [
        {
          "internalType": "uint256",
          "name": "policyId",
          "type": "uint256"
        }
      ],
      "name": "requestOracleCheck",
      "outputs": [],
      "stateMutability": "nonpayable",
      "type": "function"
    },
    {
      "inputs": [
        {
          "internalType": "uint256",
          "name": "",
          "type": "uint256"
        }
      ],
      "name": "requestsByPolicyId",
      "outputs": [
        {
          "internalType": "uint256",
          "name": "requestId",
          "type": "uint256"
        },
        {
          "internalType": "uint256",
          "name": "policyId",
          "type": "uint256"
        },
        {
          "internalType": "uint256",
          "name": "requestedAt",
          "type": "uint256"
        },
        {
          "internalType": "uint256",
          "name": "fulfilledAt",
          "type": "uint256"
        },
        {
          "internalType": "bool",
          "name": "pending",
          "type": "bool"
        },
        {
          "internalType": "bool",
          "name": "fulfilled",
          "type": "bool"
        },
        {
          "internalType": "enum OracleCoordinator.FlightOutcome",
          "name": "outcome",
          "type": "uint8"
        },
        {
          "internalType": "uint256",
          "name": "delayMinutes",
          "type": "uint256"
        },
        {
          "internalType": "bool",
          "name": "payoutExecuted",
          "type": "bool"
        },
        {
          "internalType": "uint256",
          "name": "payoutAmount",
          "type": "uint256"
        }
      ],
      "stateMutability": "view",
      "type": "function"
    },
    {
      "inputs": [
        {
          "internalType": "address",
          "name": "newAutomationForwarder",
          "type": "address"
        }
      ],
      "name": "setAutomationForwarder",
      "outputs": [],
      "stateMutability": "nonpayable",
      "type": "function"
    },
    {
      "inputs": [
        {
          "internalType": "address",
          "name": "newOracleCallbackConsumer",
          "type": "address"
        }
      ],
      "name": "setOracleCallbackConsumer",
      "outputs": [],
      "stateMutability": "nonpayable",
      "type": "function"
    },
    {
      "inputs": [
        {
          "internalType": "address",
          "name": "newPolicyManager",
          "type": "address"
        }
      ],
      "name": "setPolicyManager",
      "outputs": [],
      "stateMutability": "nonpayable",
      "type": "function"
    },
    {
      "inputs": [
        {
          "internalType": "address",
          "name": "reporter",
          "type": "address"
        },
        {
          "internalType": "bool",
          "name": "isAuthorized",
          "type": "bool"
        }
      ],
      "name": "setReporter",
      "outputs": [],
      "stateMutability": "nonpayable",
      "type": "function"
    },
    {
      "inputs": [
        {
          "internalType": "address",
          "name": "newOwner",
          "type": "address"
        }
      ],
      "name": "transferOwnership",
      "outputs": [],
      "stateMutability": "nonpayable",
      "type": "function"
    },
    {
      "inputs": [],
      "name": "unpause",
      "outputs": [],
      "stateMutability": "nonpayable",
      "type": "function"
    }
  ],
  "transactionHash": "0x20ea6532407245b7888f21ae56a6622f7af939532b0d1e13582bb0414b6a0224",
  "args": [
    "0x7ab4b089C35F0502d3b739a5A84c2DcfC3b3d990"
  ],
  "numDeployments": 3,
  "solcInputHash": "b626d6b9d4f0231d38028397895dec66",
  "bytecode": "0x6080604052600160045534801561001557600080fd5b5060405161146f38038061146f8339810160408190526100349161010a565b806001600160a01b03811661006457604051631e4fbdf760e01b8152600060048201526024015b60405180910390fd5b61006d816100ba565b506001600160a01b0381166100b45760405162461bcd60e51b815260206004820152600d60248201526c24b73b30b634b21037bbb732b960991b604482015260640161005b565b5061013a565b600080546001600160a01b038381166001600160a01b0319831681178455604051919092169283917f8be0079c531659141344cd1fd0a4f28419497f9722a3daafe3b4186f6b6457e09190a35050565b60006020828403121561011c57600080fd5b81516001600160a01b038116811461013357600080fd5b9392505050565b611326806101496000396000f3fe608060405234801561001057600080fd5b506004361061012c5760003560e01c80638456cb59116100ad578063d40d17bc11610071578063d40d17bc146102e8578063e1bb5133146102fb578063edb85dc91461030e578063f2fde38b14610321578063f652e63d1461033457600080fd5b80638456cb59146102965780638da5cb5b1461029e5780638ff9ee3b146102af578063ab3dbf3b146102c2578063adde41e1146102d557600080fd5b80635c975abb116100f45780635c975abb146102315780636a84a985146102435780636e04ff0d1461025a578063715018a61461027b57806377352cf91461028357600080fd5b80632cc1cd9e1461013157806334ae117a146101695780633b2786cb146101e95780633f4ba83a146102145780634585e33b1461021e575b600080fd5b61015461013f366004611025565b60056020526000908152604090205460ff1681565b60405190151581526020015b60405180910390f35b6101d3610177366004611047565b600660208190526000918252604090912080546001820154600283015460038401546004850154600586015496860154600790960154949693959294919360ff808316946101008404821694620100009094048216939116908a565b6040516101609a99989796959493929190611098565b6002546101fc906001600160a01b031681565b6040516001600160a01b039091168152602001610160565b61021c610347565b005b61021c61022c3660046110f6565b610359565b600054600160a01b900460ff16610154565b61024c60045481565b604051908152602001610160565b61026d6102683660046110f6565b6103e5565b60405161016092919061116a565b61021c61058b565b61021c610291366004611047565b61059d565b61021c6108e5565b6000546001600160a01b03166101fc565b61021c6102bd366004611025565b6108f5565b6001546101fc906001600160a01b031681565b61021c6102e3366004611025565b610947565b61021c6102f6366004611025565b6109e8565b61021c6103093660046111cf565b610a90565b6003546101fc906001600160a01b031681565b61021c61032f366004611025565b610b40565b61021c610342366004611206565b610b7e565b61034f610e9f565b610357610ecc565b565b6002546001600160a01b03161580159061037d57506002546001600160a01b031633145b6103bf5760405162461bcd60e51b815260206004820152600e60248201526d2737ba1030baba37b6b0ba34b7b760911b60448201526064015b60405180910390fd5b6103c7610f21565b60006103d582840184611047565b90506103e08161059d565b505050565b60006060816103f684860186611047565b6000818152600660209081526040808320815161014081018352815481526001820154938101939093526002810154918301919091526003808201546060840152600482015460ff8082161515608086015261010082048116151560a086015295965093949293919260c0850192620100009004169081111561047b5761047b611060565b600381111561048c5761048c611060565b815260058201546020820152600682015460ff1615156040820152600790910154606090910152608081015190915060009080156104cc57508160a00151155b6001549091506001600160a01b0316158015906104e7575080155b801561055b5750600154604051630eae939360e31b8152600481018590526001600160a01b03909116906375749c9890602401602060405180830381865afa158015610537573d6000803e3d6000fd5b505050506040513d601f19601f8201168201806040525081019061055b9190611244565b94508260405160200161057091815260200190565b60405160208183030381529060405293505050509250929050565b610593610e9f565b6103576000610f4c565b6002546001600160a01b0316158015906105c157506002546001600160a01b031633145b6105fe5760405162461bcd60e51b815260206004820152600e60248201526d2737ba1030baba37b6b0ba34b7b760911b60448201526064016103b6565b610606610f21565b6001546001600160a01b03166106575760405162461bcd60e51b8152602060048201526016602482015275141bdb1a58de481b585b9859d95c881b9bdd081cd95d60521b60448201526064016103b6565b600154604051630eae939360e31b8152600481018390526001600160a01b03909116906375749c9890602401602060405180830381865afa1580156106a0573d6000803e3d6000fd5b505050506040513d601f19601f820116820180604052508101906106c49190611244565b6107035760405162461bcd60e51b815260206004820152601060248201526f506f6c696379206e6f7420726561647960801b60448201526064016103b6565b6000818152600660205260409020600481015460ff16801561072f57506004810154610100900460ff16155b1561077c5760405162461bcd60e51b815260206004820152601760248201527f5265717565737420616c72656164792070656e64696e6700000000000000000060448201526064016103b6565b600480546000918261078d83611261565b91905055905060405180610140016040528082815260200184815260200142815260200160008152602001600115158152602001600015158152602001600060038111156107dd576107dd611060565b8152600060208083018290526040808401839052606093840183905287835260068252918290208451815590840151600182015590830151600282015590820151600380830191909155608083015160048301805460a086015115156101000261ff00199315159390931661ffff19909116179190911780825560c08501519262ff000019909116906201000090849081111561087c5761087c611060565b021790555060e0820151600582015561010082015160068201805460ff1916911515919091179055610120909101516007909101556040513390849083907f345636036a215f24c782d7bd29248841333812452fcd9c8e988acc0053b3d28a90600090a4505050565b6108ed610e9f565b610357610f9c565b6108fd610e9f565b600380546001600160a01b0319166001600160a01b0383169081179091556040517f14f4a66acc23f7dd85317fa16d0e731cb957f61d7be4daff2cfb2c1a231216d390600090a250565b61094f610e9f565b6001600160a01b03811661099e5760405162461bcd60e51b815260206004820152601660248201527524b73b30b634b2103837b634b1bc9036b0b730b3b2b960511b60448201526064016103b6565b600180546001600160a01b0319166001600160a01b0383169081179091556040517f5106d9fe21e5ccaebfff5e5b6191d80ca628c317ef02f88ec6abbc39e505f6c390600090a250565b6109f0610e9f565b6001600160a01b038116610a465760405162461bcd60e51b815260206004820152601c60248201527f496e76616c6964206175746f6d6174696f6e20666f727761726465720000000060448201526064016103b6565b600280546001600160a01b0319166001600160a01b0383169081179091556040517ffb54319616130cee7ea920b30db448cec25791aeb64a5d0e65ea1ecc8dc3986290600090a250565b610a98610e9f565b6001600160a01b038216610ae15760405162461bcd60e51b815260206004820152601060248201526f24b73b30b634b2103932b837b93a32b960811b60448201526064016103b6565b6001600160a01b038216600081815260056020908152604091829020805460ff191685151590811790915591519182527f3852f36d292dc71d9e7d1a5a7612b2cf3d10b1772f1909c3bf23aac036db7e18910160405180910390a25050565b610b48610e9f565b6001600160a01b038116610b7257604051631e4fbdf760e01b8152600060048201526024016103b6565b610b7b81610f4c565b50565b3360009081526005602052604090205460ff1680610ba657506003546001600160a01b031633145b610bf25760405162461bcd60e51b815260206004820152601760248201527f4e6f7420617574686f72697a6564207265706f7274657200000000000000000060448201526064016103b6565b610bfa610f21565b6001546001600160a01b0316610c4b5760405162461bcd60e51b8152602060048201526016602482015275141bdb1a58de481b585b9859d95c881b9bdd081cd95d60521b60448201526064016103b6565b600360ff83161115610c915760405162461bcd60e51b815260206004820152600f60248201526e496e76616c6964206f7574636f6d6560881b60448201526064016103b6565b60008381526006602052604081208054909103610ce45760405162461bcd60e51b815260206004820152601160248201527014995c5d595cdd081b9bdd08199bdd5b99607a1b60448201526064016103b6565b600481015460ff168015610d0257506004810154610100900460ff16155b610d445760405162461bcd60e51b815260206004820152601360248201527252657175657374206e6f742070656e64696e6760681b60448201526064016103b6565b600154604051637a7157c960e11b81526004810186905260ff851660248201526044810184905260009182916001600160a01b039091169063f4e2af929060640160408051808303816000875af1158015610da3573d6000803e3d6000fd5b505050506040513d601f19601f82011682018060405250810190610dc79190611288565b60048501805461ffff191661010017905542600380870191909155919350915060ff861690811115610dfb57610dfb611060565b60048401805462ff0000191662010000836003811115610e1d57610e1d611060565b02179055506005830184905560068301805460ff191683151517905560078301819055825486907f20195d0651f5f49d601ea3c89c02cb5f776e3ebe5cd731f648a950ee22f9658460ff88166003811115610e7a57610e7a611060565b87868633604051610e8f9594939291906112b6565b60405180910390a3505050505050565b6000546001600160a01b031633146103575760405163118cdaa760e01b81523360048201526024016103b6565b610ed4610fdf565b6000805460ff60a01b191690557f5db9ee0a495bf2e6ff9c91a7834c1ba4fdd244a5e8aa4e537bd38aeae4b073aa335b6040516001600160a01b03909116815260200160405180910390a1565b600054600160a01b900460ff16156103575760405163d93c066560e01b815260040160405180910390fd5b600080546001600160a01b038381166001600160a01b0319831681178455604051919092169283917f8be0079c531659141344cd1fd0a4f28419497f9722a3daafe3b4186f6b6457e09190a35050565b610fa4610f21565b6000805460ff60a01b1916600160a01b1790557f62e78cea01bee320cd4e420270b5ea74000d11b0c9f74754ebdbfc544b05a258610f043390565b600054600160a01b900460ff1661035757604051638dfc202b60e01b815260040160405180910390fd5b80356001600160a01b038116811461102057600080fd5b919050565b60006020828403121561103757600080fd5b61104082611009565b9392505050565b60006020828403121561105957600080fd5b5035919050565b634e487b7160e01b600052602160045260246000fd5b6004811061109457634e487b7160e01b600052602160045260246000fd5b9052565b6000610140820190508b82528a6020830152896040830152886060830152871515608083015286151560a08301526110d360c0830187611076565b60e082019490945291151561010083015261012090910152979650505050505050565b6000806020838503121561110957600080fd5b823567ffffffffffffffff81111561112057600080fd5b8301601f8101851361113157600080fd5b803567ffffffffffffffff81111561114857600080fd5b85602082840101111561115a57600080fd5b6020919091019590945092505050565b8215158152604060208201526000825180604084015260005b818110156111a05760208186018101516060868401015201611183565b506000606082850101526060601f19601f8301168401019150509392505050565b8015158114610b7b57600080fd5b600080604083850312156111e257600080fd5b6111eb83611009565b915060208301356111fb816111c1565b809150509250929050565b60008060006060848603121561121b57600080fd5b83359250602084013560ff8116811461123357600080fd5b929592945050506040919091013590565b60006020828403121561125657600080fd5b8151611040816111c1565b60006001820161128157634e487b7160e01b600052601160045260246000fd5b5060010190565b6000806040838503121561129b57600080fd5b82516112a6816111c1565b6020939093015192949293505050565b60a081016112c48288611076565b6020820195909552921515604084015260608301919091526001600160a01b031660809091015291905056fea26469706673582212203ad5329af24d26d3831d0e8c7db93ba5fe6bf3c0201fb12a95507145f5b57eb664736f6c634300081e0033",
  "devdoc": {
    "errors": {
      "EnforcedPause()": [
        {
          "details": "The operation failed because the contract is paused."
        }
      ],
      "ExpectedPause()": [
        {
          "details": "The operation failed because the contract is not paused."
        }
      ],
      "OwnableInvalidOwner(address)": [
        {
          "details": "The owner is not a valid owner account. (eg. `address(0)`)"
        }
      ],
      "OwnableUnauthorizedAccount(address)": [
        {
          "details": "The caller account is not authorized to perform an operation."
        }
      ]
    },
    "events": {
      "Paused(address)": {
        "details": "Emitted when the pause is triggered by `account`."
      },
      "Unpaused(address)": {
        "details": "Emitted when the pause is lifted by `account`."
      }
    },
    "kind": "dev",
    "methods": {
      "owner()": {
        "details": "Returns the address of the current owner."
      },
      "paused()": {
        "details": "Returns true if the contract is paused, and false otherwise."
      },
      "renounceOwnership()": {
        "details": "Leaves the contract without owner. It will not be possible to call `onlyOwner` functions. Can only be called by the current owner. NOTE: Renouncing ownership will leave the contract without an owner, thereby disabling any functionality that is only available to the owner."
      },
      "transferOwnership(address)": {
        "details": "Transfers ownership of the contract to a new account (`newOwner`). Can only be called by the current owner."
      }
    },
    "version": 1
  },
  "userdoc": {
    "kind": "user",
    "methods": {},
    "version": 1
  },
  "storageLayout": {
    "storage": [
      {
        "astId": 8,
        "contract": "contracts/OracleCoordinator.sol:OracleCoordinator",
        "label": "_owner",
        "offset": 0,
        "slot": "0",
        "type": "t_address"
      },
      {
        "astId": 186,
        "contract": "contracts/OracleCoordinator.sol:OracleCoordinator",
        "label": "_paused",
        "offset": 20,
        "slot": "0",
        "type": "t_bool"
      },
      {
        "astId": 509,
        "contract": "contracts/OracleCoordinator.sol:OracleCoordinator",
        "label": "policyManager",
        "offset": 0,
        "slot": "1",
        "type": "t_address"
      },
      {
        "astId": 511,
        "contract": "contracts/OracleCoordinator.sol:OracleCoordinator",
        "label": "automationForwarder",
        "offset": 0,
        "slot": "2",
        "type": "t_address"
      },
      {
        "astId": 513,
        "contract": "contracts/OracleCoordinator.sol:OracleCoordinator",
        "label": "oracleCallbackConsumer",
        "offset": 0,
        "slot": "3",
        "type": "t_address"
      },
      {
        "astId": 516,
        "contract": "contracts/OracleCoordinator.sol:OracleCoordinator",
        "label": "nextRequestId",
        "offset": 0,
        "slot": "4",
        "type": "t_uint256"
      },
      {
        "astId": 520,
        "contract": "contracts/OracleCoordinator.sol:OracleCoordinator",
        "label": "reporters",
        "offset": 0,
        "slot": "5",
        "type": "t_mapping(t_address,t_bool)"
      },
      {
        "astId": 525,
        "contract": "contracts/OracleCoordinator.sol:OracleCoordinator",
        "label": "requestsByPolicyId",
        "offset": 0,
        "slot": "6",
        "type": "t_mapping(t_uint256,t_struct(OracleRequest)507_storage)"
      }
    ],
    "types": {
      "t_address": {
        "encoding": "inplace",
        "label": "address",
        "numberOfBytes": "20"
      },
      "t_bool": {
        "encoding": "inplace",
        "label": "bool",
        "numberOfBytes": "1"
      },
      "t_enum(FlightOutcome)485": {
        "encoding": "inplace",
        "label": "enum OracleCoordinator.FlightOutcome",
        "numberOfBytes": "1"
      },
      "t_mapping(t_address,t_bool)": {
        "encoding": "mapping",
        "key": "t_address",
        "label": "mapping(address => bool)",
        "numberOfBytes": "32",
        "value": "t_bool"
      },
      "t_mapping(t_uint256,t_struct(OracleRequest)507_storage)": {
        "encoding": "mapping",
        "key": "t_uint256",
        "label": "mapping(uint256 => struct OracleCoordinator.OracleRequest)",
        "numberOfBytes": "32",
        "value": "t_struct(OracleRequest)507_storage"
      },
      "t_struct(OracleRequest)507_storage": {
        "encoding": "inplace",
        "label": "struct OracleCoordinator.OracleRequest",
        "members": [
          {
            "astId": 487,
            "contract": "contracts/OracleCoordinator.sol:OracleCoordinator",
            "label": "requestId",
            "offset": 0,
            "slot": "0",
            "type": "t_uint256"
          },
          {
            "astId": 489,
            "contract": "contracts/OracleCoordinator.sol:OracleCoordinator",
            "label": "policyId",
            "offset": 0,
            "slot": "1",
            "type": "t_uint256"
          },
          {
            "astId": 491,
            "contract": "contracts/OracleCoordinator.sol:OracleCoordinator",
            "label": "requestedAt",
            "offset": 0,
            "slot": "2",
            "type": "t_uint256"
          },
          {
            "astId": 493,
            "contract": "contracts/OracleCoordinator.sol:OracleCoordinator",
            "label": "fulfilledAt",
            "offset": 0,
            "slot": "3",
            "type": "t_uint256"
          },
          {
            "astId": 495,
            "contract": "contracts/OracleCoordinator.sol:OracleCoordinator",
            "label": "pending",
            "offset": 0,
            "slot": "4",
            "type": "t_bool"
          },
          {
            "astId": 497,
            "contract": "contracts/OracleCoordinator.sol:OracleCoordinator",
            "label": "fulfilled",
            "offset": 1,
            "slot": "4",
            "type": "t_bool"
          },
          {
            "astId": 500,
            "contract": "contracts/OracleCoordinator.sol:OracleCoordinator",
            "label": "outcome",
            "offset": 2,
            "slot": "4",
            "type": "t_enum(FlightOutcome)485"
          },
          {
            "astId": 502,
            "contract": "contracts/OracleCoordinator.sol:OracleCoordinator",
            "label": "delayMinutes",
            "offset": 0,
            "slot": "5",
            "type": "t_uint256"
          },
          {
            "astId": 504,
            "contract": "contracts/OracleCoordinator.sol:OracleCoordinator",
            "label": "payoutExecuted",
            "offset": 0,
            "slot": "6",
            "type": "t_bool"
          },
          {
            "astId": 506,
            "contract": "contracts/OracleCoordinator.sol:OracleCoordinator",
            "label": "payoutAmount",
            "offset": 0,
            "slot": "7",
            "type": "t_uint256"
          }
        ],
        "numberOfBytes": "256"
      },
      "t_uint256": {
        "encoding": "inplace",
        "label": "uint256",
        "numberOfBytes": "32"
      }
    }
  }
}