{
  "address": "0x9F75c70e8E22Bb6Fdc8b71e62F485EAD99A2Ebbb",
  "abi": [
    {
      "inputs": [
        {
          "internalType": "address",
          "name": "_stablecoin",
          "type": "address"
        },
        {
          "internalType": "address",
          "name": "_insurancePool",
          "type": "address"
        },
        {
          "internalType": "address",
          "name": "initialOwner",
          "type": "address"
        }
      ],
      "stateMutability": "nonpayable",
      "type": "constructor"
    },
    {
      "inputs": [],
      "name": "EnforcedPause",
      "type": "error"
    },
    {
      "inputs": [],
      "name": "ExpectedPause",
      "type": "error"
    },
    {
      "inputs": [
        {
          "internalType": "address",
          "name": "owner",
          "type": "address"
        }
      ],
      "name": "OwnableInvalidOwner",
      "type": "error"
    },
    {
      "inputs": [
        {
          "internalType": "address",
          "name": "account",
          "type": "address"
        }
      ],
      "name": "OwnableUnauthorizedAccount",
      "type": "error"
    },
    {
      "inputs": [],
      "name": "ReentrancyGuardReentrantCall",
      "type": "error"
    },
    {
      "inputs": [
        {
          "internalType": "address",
          "name": "token",
          "type": "address"
        }
      ],
      "name": "SafeERC20FailedOperation",
      "type": "error"
    },
    {
      "anonymous": false,
      "inputs": [
        {
          "indexed": true,
          "internalType": "address",
          "name": "newPool",
          "type": "address"
        }
      ],
      "name": "InsurancePoolUpdated",
      "type": "event"
    },
    {
      "anonymous": false,
      "inputs": [
        {
          "indexed": true,
          "internalType": "address",
          "name": "previousOwner",
          "type": "address"
        },
        {
          "indexed": true,
          "internalType": "address",
          "name": "newOwner",
          "type": "address"
        }
      ],
      "name": "OwnershipTransferred",
      "type": "event"
    },
    {
      "anonymous": false,
      "inputs": [
        {
          "indexed": false,
          "internalType": "address",
          "name": "account",
          "type": "address"
        }
      ],
      "name": "Paused",
      "type": "event"
    },
    {
      "anonymous": false,
      "inputs": [
        {
          "indexed": true,
          "internalType": "uint256",
          "name": "policyId",
          "type": "uint256"
        },
        {
          "indexed": true,
          "internalType": "address",
          "name": "holder",
          "type": "address"
        },
        {
          "indexed": false,
          "internalType": "string",
          "name": "flightNumber",
          "type": "string"
        },
        {
          "indexed": false,
          "internalType": "uint256",
          "name": "departureTimestamp",
          "type": "uint256"
        },
        {
          "indexed": false,
          "internalType": "enum PolicyManager.PolicyType",
          "name": "policyType",
          "type": "uint8"
        },
        {
          "indexed": false,
          "internalType": "uint256",
          "name": "premium",
          "type": "uint256"
        },
        {
          "indexed": false,
          "internalType": "uint256",
          "name": "coverageAmount",
          "type": "uint256"
        },
        {
          "indexed": false,
          "internalType": "uint256",
          "name": "purchaseTime",
          "type": "uint256"
        },
        {
          "indexed": false,
          "internalType": "uint256",
          "name": "endTime",
          "type": "uint256"
        }
      ],
      "name": "PolicyPurchased",
      "type": "event"
    },
    {
      "anonymous": false,
      "inputs": [
        {
          "indexed": false,
          "internalType": "address",
          "name": "account",
          "type": "address"
        }
      ],
      "name": "Unpaused",
      "type": "event"
    },
    {
      "inputs": [],
      "name": "MAX_FLIGHT_NUMBER_LENGTH",
      "outputs": [
        {
          "internalType": "uint256",
          "name": "",
          "type": "uint256"
        }
      ],
      "stateMutability": "view",
      "type": "function"
    },
    {
      "inputs": [
        {
          "internalType": "string",
          "name": "flightNumber",
          "type": "string"
        },
        {
          "internalType": "uint256",
          "name": "departureTimestamp",
          "type": "uint256"
        },
        {
          "internalType": "uint8",
          "name": "policyType",
          "type": "uint8"
        },
        {
          "internalType": "uint256",
          "name": "coverageAmount",
          "type": "uint256"
        },
        {
          "internalType": "uint256",
          "name": "duration",
          "type": "uint256"
        },
        {
          "internalType": "uint256",
          "name": "premium",
          "type": "uint256"
        }
      ],
      "name": "buyPolicy",
      "outputs": [],
      "stateMutability": "nonpayable",
      "type": "function"
    },
    {
      "inputs": [
        {
          "internalType": "uint256",
          "name": "policyId",
          "type": "uint256"
        }
      ],
      "name": "getPolicy",
      "outputs": [
        {
          "components": [
            {
              "internalType": "uint256",
              "name": "policyId",
              "type": "uint256"
            },
            {
              "internalType": "address",
              "name": "holder",
              "type": "address"
            },
            {
              "internalType": "string",
              "name": "flightNumber",
              "type": "string"
            },
            {
              "internalType": "uint256",
              "name": "purchaseTime",
              "type": "uint256"
            },
            {
              "internalType": "uint256",
              "name": "departureTimestamp",
              "type": "uint256"
            },
            {
              "internalType": "uint256",
              "name": "premium",
              "type": "uint256"
            },
            {
              "internalType": "uint256",
              "name": "coverageAmount",
              "type": "uint256"
            },
            {
              "internalType": "uint256",
              "name": "endTime",
              "type": "uint256"
            },
            {
              "internalType": "enum PolicyManager.PolicyType",
              "name": "policyType",
              "type": "uint8"
            },
            {
              "internalType": "enum PolicyManager.PolicyStatus",
              "name": "status",
              "type": "uint8"
            }
          ],
          "internalType": "struct PolicyManager.Policy",
          "name": "",
          "type": "tuple"
        }
      ],
      "stateMutability": "view",
      "type": "function"
    },
    {
      "inputs": [
        {
          "internalType": "address",
          "name": "user",
          "type": "address"
        }
      ],
      "name": "getUserPolicies",
      "outputs": [
        {
          "internalType": "uint256[]",
          "name": "",
          "type": "uint256[]"
        }
      ],
      "stateMutability": "view",
      "type": "function"
    },
    {
      "inputs": [],
      "name": "insurancePool",
      "outputs": [
        {
          "internalType": "address",
          "name": "",
          "type": "address"
        }
      ],
      "stateMutability": "view",
      "type": "function"
    },
    {
      "inputs": [],
      "name": "nextPolicyId",
      "outputs": [
        {
          "internalType": "uint256",
          "name": "",
          "type": "uint256"
        }
      ],
      "stateMutability": "view",
      "type": "function"
    },
    {
      "inputs": [],
      "name": "owner",
      "outputs": [
        {
          "internalType": "address",
          "name": "",
          "type": "address"
        }
      ],
      "stateMutability": "view",
      "type": "function"
    },
    {
      "inputs": [],
      "name": "pause",
      "outputs": [],
      "stateMutability": "nonpayable",
      "type": "function"
    },
    {
      "inputs": [],
      "name": "paused",
      "outputs": [
        {
          "internalType": "bool",
          "name": "",
          "type": "bool"
        }
      ],
      "stateMutability": "view",
      "type": "function"
    },
    {
      "inputs": [
        {
          "internalType": "uint256",
          "name": "",
          "type": "uint256"
        }
      ],
      "name": "policies",
      "outputs": [
        {
          "internalType": "uint256",
          "name": "policyId",
          "type": "uint256"
        },
        {
          "internalType": "address",
          "name": "holder",
          "type": "address"
        },
        {
          "internalType": "string",
          "name": "flightNumber",
          "type": "string"
        },
        {
          "internalType": "uint256",
          "name": "purchaseTime",
          "type": "uint256"
        },
        {
          "internalType": "uint256",
          "name": "departureTimestamp",
          "type": "uint256"
        },
        {
          "internalType": "uint256",
          "name": "premium",
          "type": "uint256"
        },
        {
          "internalType": "uint256",
          "name": "coverageAmount",
          "type": "uint256"
        },
        {
          "internalType": "uint256",
          "name": "endTime",
          "type": "uint256"
        },
        {
          "internalType": "enum PolicyManager.PolicyType",
          "name": "policyType",
          "type": "uint8"
        },
        {
          "internalType": "enum PolicyManager.PolicyStatus",
          "name": "status",
          "type": "uint8"
        }
      ],
      "stateMutability": "view",
      "type": "function"
    },
    {
      "inputs": [],
      "name": "renounceOwnership",
      "outputs": [],
      "stateMutability": "nonpayable",
      "type": "function"
    },
    {
      "inputs": [
        {
          "internalType": "address",
          "name": "_insurancePool",
          "type": "address"
        }
      ],
      "name": "setInsurancePool",
      "outputs": [],
      "stateMutability": "nonpayable",
      "type": "function"
    },
    {
      "inputs": [],
      "name": "stablecoin",
      "outputs": [
        {
          "internalType": "contract IERC20",
          "name": "",
          "type": "address"
        }
      ],
      "stateMutability": "view",
      "type": "function"
    },
    {
      "inputs": [
        {
          "internalType": "address",
          "name": "newOwner",
          "type": "address"
        }
      ],
      "name": "transferOwnership",
      "outputs": [],
      "stateMutability": "nonpayable",
      "type": "function"
    },
    {
      "inputs": [],
      "name": "unpause",
      "outputs": [],
      "stateMutability": "nonpayable",
      "type": "function"
    },
    {
      "inputs": [
        {
          "internalType": "address",
          "name": "",
          "type": "address"
        },
        {
          "internalType": "uint256",
          "name": "",
          "type": "uint256"
        }
      ],
      "name": "userPolicies",
      "outputs": [
        {
          "internalType": "uint256",
          "name": "",
          "type": "uint256"
        }
      ],
      "stateMutability": "view",
      "type": "function"
    }
  ],
  "transactionHash": "0xe82cdf002eb073ba94238f758bfd991cca8b0d5129eb45ca571eb4b9cd0f7ab3",
  "args": [
    "0xFA71294055CbAF8272269b3b875cBFFdCA382Bb6",
    "0xC6Cce21C3Dd70F8D94af389bdC4ac9d027fa9AdF",
    "0x7ab4b089C35F0502d3b739a5A84c2DcfC3b3d990"
  ],
  "numDeployments": 1,
  "solcInputHash": "cc44cb452095ddbf7a214c02df1dfac8",
  "bytecode": "0x60a060405234801561001057600080fd5b5060405161173d38038061173d83398101604081905261002f91610217565b806001600160a01b03811661005f57604051631e4fbdf760e01b8152600060048201526024015b60405180910390fd5b610068816101ab565b5060017f9b779b17422d0df92223018b32b4d1fa46e071723d6817e2486d003becc55f00556001600160a01b0383166100e35760405162461bcd60e51b815260206004820152601a60248201527f496e76616c696420737461626c65636f696e20616464726573730000000000006044820152606401610056565b6001600160a01b0382166101395760405162461bcd60e51b815260206004820152601460248201527f496e76616c696420706f6f6c20616464726573730000000000000000000000006044820152606401610056565b6001600160a01b03811661017f5760405162461bcd60e51b815260206004820152600d60248201526c24b73b30b634b21037bbb732b960991b6044820152606401610056565b506001600160a01b03918216608052600180546001600160a01b0319169190921617815560025561025a565b600080546001600160a01b038381166001600160a01b0319831681178455604051919092169283917f8be0079c531659141344cd1fd0a4f28419497f9722a3daafe3b4186f6b6457e09190a35050565b80516001600160a01b038116811461021257600080fd5b919050565b60008060006060848603121561022c57600080fd5b610235846101fb565b9250610243602085016101fb565b9150610251604085016101fb565b90509250925092565b6080516114ba61028360003960008181610243015281816104a901526104e201526114ba6000f3fe608060405234801561001057600080fd5b50600436106101005760003560e01c80638da5cb5b11610097578063d3e8948311610066578063d3e894831461020d578063dc45bb6e14610236578063e9cbd8221461023e578063f2fde38b1461026557600080fd5b80638da5cb5b146101b9578063a94c487e146101de578063ab2adc00146101f1578063cad0b8db1461020457600080fd5b80633f4ba83a116100d35780633f4ba83a146101845780635c975abb1461018c578063715018a6146101a95780638456cb59146101b157600080fd5b806318d551b91461010557806319ac46141461011a5780632b07fce3146101435780633d36adc514610163575b600080fd5b610118610113366004610f74565b610278565b005b61012d610128366004611032565b6107bc565b60405161013a9190611054565b60405180910390f35b610156610151366004611097565b610828565b60405161013a9190611130565b6101766101713660046111d9565b6109a0565b60405190815260200161013a565b6101186109d1565b600054600160a01b900460ff16604051901515815260200161013a565b6101186109e3565b6101186109f5565b6000546001600160a01b03165b6040516001600160a01b03909116815260200161013a565b6101186101ec366004611032565b610a05565b6001546101c6906001600160a01b031681565b61017660025481565b61022061021b366004611097565b610aa4565b60405161013a9a99989796959493929190611203565b610176601481565b6101c67f000000000000000000000000000000000000000000000000000000000000000081565b610118610273366004611032565b610b8c565b610280610bca565b610288610bf8565b856102d35760405162461bcd60e51b8152602060048201526016602482015275119b1a59da1d081b9d5b58995c881c995c5d5a5c995960521b60448201526064015b60405180910390fd5b601486111561031d5760405162461bcd60e51b8152602060048201526016602482015275466c69676874206e756d62657220746f6f206c6f6e6760501b60448201526064016102ca565b42851161036c5760405162461bcd60e51b815260206004820152601b60248201527f446570617274757265206d75737420626520696e20667574757265000000000060448201526064016102ca565b600160ff851611156103b65760405162461bcd60e51b8152602060048201526013602482015272496e76616c696420706f6c696379207479706560681b60448201526064016102ca565b600083116103fd5760405162461bcd60e51b81526020600482015260146024820152730436f766572616765206d757374206265203e20360641b60448201526064016102ca565b600082116104445760405162461bcd60e51b815260206004820152601460248201527304475726174696f6e206d757374206265203e20360641b60448201526064016102ca565b6000811161048a5760405162461bcd60e51b815260206004820152601360248201527205072656d69756d206d757374206265203e203606c1b60448201526064016102ca565b60025442600061049a858961128f565b90506104d16001600160a01b037f000000000000000000000000000000000000000000000000000000000000000016333087610c23565b60015461050b906001600160a01b037f00000000000000000000000000000000000000000000000000000000000000008116911686610c5f565b60015460405163d5a867b760e01b8152336004820152602481018690526001600160a01b039091169063d5a867b790604401600060405180830381600087803b15801561055757600080fd5b505af115801561056b573d6000803e3d6000fd5b50505050604051806101400160405280848152602001336001600160a01b031681526020018b8b8080601f01602080910402602001604051908101604052809392919081815260200183838082843760009201919091525050509082525060208101849052604081018a9052606081018690526080810188905260a0810183905260c00160ff89166001811115610604576106046110f6565b6001811115610615576106156110f6565b81526020016000905260008481526003602090815260409182902083518155908301516001820180546001600160a01b0319166001600160a01b0390921691909117905590820151600282019061066c9082611346565b50606082015160038201556080820151600482015560a0820151600582015560c0820151600682015560e0820151600782015561010082015160088201805460ff1916600183818111156106c2576106c26110f6565b021790555061012082015160088201805461ff0019166101008360038111156106ed576106ed6110f6565b02179055505033600090815260046020908152604082208054600181018255908352908220018590556002805492509061072683611405565b90915550339050837f25d058c1df72d2e828b3e09d843bdbec027e300c78100340ad4084b761fc0f168c8c8c60ff8d166001811115610767576107676110f6565b8a8d8a8a60405161077f98979695949392919061141e565b60405180910390a35050506107b360017f9b779b17422d0df92223018b32b4d1fa46e071723d6817e2486d003becc55f0055565b50505050505050565b6001600160a01b03811660009081526004602090815260409182902080548351818402810184019094528084526060939283018282801561081c57602002820191906000526020600020905b815481526020019060010190808311610808575b50505050509050919050565b610830610ef2565b6000828152600360209081526040918290208251610140810184528154815260018201546001600160a01b031692810192909252600281018054929391929184019161087b906112be565b80601f01602080910402602001604051908101604052809291908181526020018280546108a7906112be565b80156108f45780601f106108c9576101008083540402835291602001916108f4565b820191906000526020600020905b8154815290600101906020018083116108d757829003601f168201915b505050918352505060038201546020820152600482015460408201526005820154606082015260068201546080820152600782015460a0820152600882015460c09091019060ff16600181111561094d5761094d6110f6565b600181111561095e5761095e6110f6565b81526020016008820160019054906101000a900460ff166003811115610986576109866110f6565b6003811115610997576109976110f6565b90525092915050565b600460205281600052604060002081815481106109bc57600080fd5b90600052602060002001600091509150505481565b6109d9610c99565b6109e1610cc6565b565b6109eb610c99565b6109e16000610d1b565b6109fd610c99565b6109e1610d6b565b610a0d610c99565b6001600160a01b038116610a5a5760405162461bcd60e51b8152602060048201526014602482015273496e76616c696420706f6f6c206164647265737360601b60448201526064016102ca565b600180546001600160a01b0319166001600160a01b0383169081179091556040517fe9c1e3beb9c8e189902322f6d6860eb1f59417b2bd7813d91132e3a3d8075ac490600090a250565b60036020526000908152604090208054600182015460028301805492936001600160a01b0390921692610ad6906112be565b80601f0160208091040260200160405190810160405280929190818152602001828054610b02906112be565b8015610b4f5780601f10610b2457610100808354040283529160200191610b4f565b820191906000526020600020905b815481529060010190602001808311610b3257829003601f168201915b5050506003840154600485015460058601546006870154600788015460089098015496979396929550909350919060ff808216916101009004168a565b610b94610c99565b6001600160a01b038116610bbe57604051631e4fbdf760e01b8152600060048201526024016102ca565b610bc781610d1b565b50565b610bd2610dae565b60027f9b779b17422d0df92223018b32b4d1fa46e071723d6817e2486d003becc55f0055565b600054600160a01b900460ff16156109e15760405163d93c066560e01b815260040160405180910390fd5b610c31848484846001610df0565b610c5957604051635274afe760e01b81526001600160a01b03851660048201526024016102ca565b50505050565b610c6c8383836001610e62565b610c9457604051635274afe760e01b81526001600160a01b03841660048201526024016102ca565b505050565b6000546001600160a01b031633146109e15760405163118cdaa760e01b81523360048201526024016102ca565b610cce610ec8565b6000805460ff60a01b191690557f5db9ee0a495bf2e6ff9c91a7834c1ba4fdd244a5e8aa4e537bd38aeae4b073aa335b6040516001600160a01b03909116815260200160405180910390a1565b600080546001600160a01b038381166001600160a01b0319831681178455604051919092169283917f8be0079c531659141344cd1fd0a4f28419497f9722a3daafe3b4186f6b6457e09190a35050565b610d73610bf8565b6000805460ff60a01b1916600160a01b1790557f62e78cea01bee320cd4e420270b5ea74000d11b0c9f74754ebdbfc544b05a258610cfe3390565b7f9b779b17422d0df92223018b32b4d1fa46e071723d6817e2486d003becc55f00546002036109e157604051633ee5aeb560e01b815260040160405180910390fd5b6040516323b872dd60e01b60008181526001600160a01b038781166004528616602452604485905291602083606481808c5af192506001600051148316610e50578383151615610e43573d6000823e3d81fd5b6000883b113d1516831692505b60405250600060605295945050505050565b60405163a9059cbb60e01b60008181526001600160a01b038616600452602485905291602083604481808b5af192506001600051148316610ebc578383151615610eaf573d6000823e3d81fd5b6000873b113d1516831692505b60405250949350505050565b600054600160a01b900460ff166109e157604051638dfc202b60e01b815260040160405180910390fd5b6040518061014001604052806000815260200160006001600160a01b0316815260200160608152602001600081526020016000815260200160008152602001600081526020016000815260200160006001811115610f5257610f526110f6565b81526020016000905290565b803560ff81168114610f6f57600080fd5b919050565b600080600080600080600060c0888a031215610f8f57600080fd5b873567ffffffffffffffff811115610fa657600080fd5b8801601f81018a13610fb757600080fd5b803567ffffffffffffffff811115610fce57600080fd5b8a6020828401011115610fe057600080fd5b6020918201985096508801359450610ffa60408901610f5e565b969995985093966060810135956080820135955060a0909101359350915050565b80356001600160a01b0381168114610f6f57600080fd5b60006020828403121561104457600080fd5b61104d8261101b565b9392505050565b602080825282518282018190526000918401906040840190835b8181101561108c57835183526020938401939092019160010161106e565b509095945050505050565b6000602082840312156110a957600080fd5b5035919050565b6000815180845260005b818110156110d6576020818501810151868301820152016110ba565b506000602082860101526020601f19601f83011685010191505092915050565b634e487b7160e01b600052602160045260246000fd5b6002811061111c5761111c6110f6565b9052565b6004811061111c5761111c6110f6565b60208152815160208201526000602083015161115760408401826001600160a01b03169052565b50604083015161014060608401526111736101608401826110b0565b905060608401516080840152608084015160a084015260a084015160c084015260c084015160e084015260e08401516101008401526101008401516111bc61012085018261110c565b506101208401516111d1610140850182611120565b509392505050565b600080604083850312156111ec57600080fd5b6111f58361101b565b946020939093013593505050565b8a81526001600160a01b038a1660208201526101406040820181905260009061122e9083018b6110b0565b90508860608301528760808301528660a08301528560c08301528460e083015261125c61010083018561110c565b61126a610120830184611120565b9b9a5050505050505050505050565b634e487b7160e01b600052601160045260246000fd5b808201808211156112a2576112a2611279565b92915050565b634e487b7160e01b600052604160045260246000fd5b600181811c908216806112d257607f821691505b6020821081036112f257634e487b7160e01b600052602260045260246000fd5b50919050565b601f821115610c9457806000526020600020601f840160051c8101602085101561131f5750805b601f840160051c820191505b8181101561133f576000815560010161132b565b5050505050565b815167ffffffffffffffff811115611360576113606112a8565b6113748161136e84546112be565b846112f8565b6020601f8211600181146113a857600083156113905750848201515b600019600385901b1c1916600184901b17845561133f565b600084815260208120601f198516915b828110156113d857878501518255602094850194600190920191016113b8565b50848210156113f65786840151600019600387901b60f8161c191681555b50505050600190811b01905550565b60006001820161141757611417611279565b5060010190565b60e081528760e08201528789610100830137600061010089830101526000610100601f19601f8b0116830101905087602083015261145f604083018861110c565b8560608301528460808301528360a08301528260c0830152999850505050505050505056fea2646970667358221220fd45f00700b19e5cc45da7f47cb372d1a7f61e4f0fb6f0bd2ccb2ea0da15dd8664736f6c634300081e0033",
  "devdoc": {
    "errors": {
      "EnforcedPause()": [
        {
          "details": "The operation failed because the contract is paused."
        }
      ],
      "ExpectedPause()": [
        {
          "details": "The operation failed because the contract is not paused."
        }
      ],
      "OwnableInvalidOwner(address)": [
        {
          "details": "The owner is not a valid owner account. (eg. `address(0)`)"
        }
      ],
      "OwnableUnauthorizedAccount(address)": [
        {
          "details": "The caller account is not authorized to perform an operation."
        }
      ],
      "ReentrancyGuardReentrantCall()": [
        {
          "details": "Unauthorized reentrant call."
        }
      ],
      "SafeERC20FailedOperation(address)": [
        {
          "details": "An operation with an ERC-20 token failed."
        }
      ]
    },
    "events": {
      "Paused(address)": {
        "details": "Emitted when the pause is triggered by `account`."
      },
      "Unpaused(address)": {
        "details": "Emitted when the pause is lifted by `account`."
      }
    },
    "kind": "dev",
    "methods": {
      "owner()": {
        "details": "Returns the address of the current owner."
      },
      "paused()": {
        "details": "Returns true if the contract is paused, and false otherwise."
      },
      "renounceOwnership()": {
        "details": "Leaves the contract without owner. It will not be possible to call `onlyOwner` functions. Can only be called by the current owner. NOTE: Renouncing ownership will leave the contract without an owner, thereby disabling any functionality that is only available to the owner."
      },
      "transferOwnership(address)": {
        "details": "Transfers ownership of the contract to a new account (`newOwner`). Can only be called by the current owner."
      }
    },
    "version": 1
  },
  "userdoc": {
    "kind": "user",
    "methods": {},
    "version": 1
  },
  "storageLayout": {
    "storage": [
      {
        "astId": 8,
        "contract": "contracts/PolicyManager.sol:PolicyManager",
        "label": "_owner",
        "offset": 0,
        "slot": "0",
        "type": "t_address"
      },
      {
        "astId": 809,
        "contract": "contracts/PolicyManager.sol:PolicyManager",
        "label": "_paused",
        "offset": 20,
        "slot": "0",
        "type": "t_bool"
      },
      {
        "astId": 1187,
        "contract": "contracts/PolicyManager.sol:PolicyManager",
        "label": "insurancePool",
        "offset": 0,
        "slot": "1",
        "type": "t_address"
      },
      {
        "astId": 1189,
        "contract": "contracts/PolicyManager.sol:PolicyManager",
        "label": "nextPolicyId",
        "offset": 0,
        "slot": "2",
        "type": "t_uint256"
      },
      {
        "astId": 1228,
        "contract": "contracts/PolicyManager.sol:PolicyManager",
        "label": "policies",
        "offset": 0,
        "slot": "3",
        "type": "t_mapping(t_uint256,t_struct(Policy)1223_storage)"
      },
      {
        "astId": 1233,
        "contract": "contracts/PolicyManager.sol:PolicyManager",
        "label": "userPolicies",
        "offset": 0,
        "slot": "4",
        "type": "t_mapping(t_address,t_array(t_uint256)dyn_storage)"
      }
    ],
    "types": {
      "t_address": {
        "encoding": "inplace",
        "label": "address",
        "numberOfBytes": "20"
      },
      "t_array(t_uint256)dyn_storage": {
        "base": "t_uint256",
        "encoding": "dynamic_array",
        "label": "uint256[]",
        "numberOfBytes": "32"
      },
      "t_bool": {
        "encoding": "inplace",
        "label": "bool",
        "numberOfBytes": "1"
      },
      "t_enum(PolicyStatus)1200": {
        "encoding": "inplace",
        "label": "enum PolicyManager.PolicyStatus",
        "numberOfBytes": "1"
      },
      "t_enum(PolicyType)1195": {
        "encoding": "inplace",
        "label": "enum PolicyManager.PolicyType",
        "numberOfBytes": "1"
      },
      "t_mapping(t_address,t_array(t_uint256)dyn_storage)": {
        "encoding": "mapping",
        "key": "t_address",
        "label": "mapping(address => uint256[])",
        "numberOfBytes": "32",
        "value": "t_array(t_uint256)dyn_storage"
      },
      "t_mapping(t_uint256,t_struct(Policy)1223_storage)": {
        "encoding": "mapping",
        "key": "t_uint256",
        "label": "mapping(uint256 => struct PolicyManager.Policy)",
        "numberOfBytes": "32",
        "value": "t_struct(Policy)1223_storage"
      },
      "t_string_storage": {
        "encoding": "bytes",
        "label": "string",
        "numberOfBytes": "32"
      },
      "t_struct(Policy)1223_storage": {
        "encoding": "inplace",
        "label": "struct PolicyManager.Policy",
        "members": [
          {
            "astId": 1202,
            "contract": "contracts/PolicyManager.sol:PolicyManager",
            "label": "policyId",
            "offset": 0,
            "slot": "0",
            "type": "t_uint256"
          },
          {
            "astId": 1204,
            "contract": "contracts/PolicyManager.sol:PolicyManager",
            "label": "holder",
            "offset": 0,
            "slot": "1",
            "type": "t_address"
          },
          {
            "astId": 1206,
            "contract": "contracts/PolicyManager.sol:PolicyManager",
            "label": "flightNumber",
            "offset": 0,
            "slot": "2",
            "type": "t_string_storage"
          },
          {
            "astId": 1208,
            "contract": "contracts/PolicyManager.sol:PolicyManager",
            "label": "purchaseTime",
            "offset": 0,
            "slot": "3",
            "type": "t_uint256"
          },
          {
            "astId": 1210,
            "contract": "contracts/PolicyManager.sol:PolicyManager",
            "label": "departureTimestamp",
            "offset": 0,
            "slot": "4",
            "type": "t_uint256"
          },
          {
            "astId": 1212,
            "contract": "contracts/PolicyManager.sol:PolicyManager",
            "label": "premium",
            "offset": 0,
            "slot": "5",
            "type": "t_uint256"
          },
          {
            "astId": 1214,
            "contract": "contracts/PolicyManager.sol:PolicyManager",
            "label": "coverageAmount",
            "offset": 0,
            "slot": "6",
            "type": "t_uint256"
          },
          {
            "astId": 1216,
            "contract": "contracts/PolicyManager.sol:PolicyManager",
            "label": "endTime",
            "offset": 0,
            "slot": "7",
            "type": "t_uint256"
          },
          {
            "astId": 1219,
            "contract": "contracts/PolicyManager.sol:PolicyManager",
            "label": "policyType",
            "offset": 0,
            "slot": "8",
            "type": "t_enum(PolicyType)1195"
          },
          {
            "astId": 1222,
            "contract": "contracts/PolicyManager.sol:PolicyManager",
            "label": "status",
            "offset": 1,
            "slot": "8",
            "type": "t_enum(PolicyStatus)1200"
          }
        ],
        "numberOfBytes": "288"
      },
      "t_uint256": {
        "encoding": "inplace",
        "label": "uint256",
        "numberOfBytes": "32"
      }
    }
  }
}