{
  "address": "0x3a402279766C03bEEC104331810d6dCeB80ea0C3",
  "abi": [
    {
      "inputs": [
        {
          "internalType": "address",
          "name": "_stablecoin",
          "type": "address"
        },
        {
          "internalType": "address",
          "name": "_insurancePool",
          "type": "address"
        },
        {
          "internalType": "address",
          "name": "_oracleCoordinator",
          "type": "address"
        },
        {
          "internalType": "address",
          "name": "initialOwner",
          "type": "address"
        }
      ],
      "stateMutability": "nonpayable",
      "type": "constructor"
    },
    {
      "inputs": [],
      "name": "EnforcedPause",
      "type": "error"
    },
    {
      "inputs": [],
      "name": "ExpectedPause",
      "type": "error"
    },
    {
      "inputs": [
        {
          "internalType": "address",
          "name": "owner",
          "type": "address"
        }
      ],
      "name": "OwnableInvalidOwner",
      "type": "error"
    },
    {
      "inputs": [
        {
          "internalType": "address",
          "name": "account",
          "type": "address"
        }
      ],
      "name": "OwnableUnauthorizedAccount",
      "type": "error"
    },
    {
      "inputs": [],
      "name": "ReentrancyGuardReentrantCall",
      "type": "error"
    },
    {
      "inputs": [
        {
          "internalType": "address",
          "name": "token",
          "type": "address"
        }
      ],
      "name": "SafeERC20FailedOperation",
      "type": "error"
    },
    {
      "anonymous": false,
      "inputs": [
        {
          "indexed": true,
          "internalType": "address",
          "name": "newPool",
          "type": "address"
        }
      ],
      "name": "InsurancePoolUpdated",
      "type": "event"
    },
    {
      "anonymous": false,
      "inputs": [
        {
          "indexed": true,
          "internalType": "address",
          "name": "newCoordinator",
          "type": "address"
        }
      ],
      "name": "OracleCoordinatorUpdated",
      "type": "event"
    },
    {
      "anonymous": false,
      "inputs": [
        {
          "indexed": true,
          "internalType": "address",
          "name": "previousOwner",
          "type": "address"
        },
        {
          "indexed": true,
          "internalType": "address",
          "name": "newOwner",
          "type": "address"
        }
      ],
      "name": "OwnershipTransferred",
      "type": "event"
    },
    {
      "anonymous": false,
      "inputs": [
        {
          "indexed": false,
          "internalType": "address",
          "name": "account",
          "type": "address"
        }
      ],
      "name": "Paused",
      "type": "event"
    },
    {
      "anonymous": false,
      "inputs": [
        {
          "indexed": true,
          "internalType": "uint256",
          "name": "policyId",
          "type": "uint256"
        },
        {
          "indexed": true,
          "internalType": "address",
          "name": "holder",
          "type": "address"
        },
        {
          "indexed": false,
          "internalType": "string",
          "name": "flightNumber",
          "type": "string"
        },
        {
          "indexed": false,
          "internalType": "uint256",
          "name": "departureTimestamp",
          "type": "uint256"
        },
        {
          "indexed": false,
          "internalType": "enum PolicyManager.PolicyType",
          "name": "policyType",
          "type": "uint8"
        },
        {
          "indexed": false,
          "internalType": "uint256",
          "name": "premium",
          "type": "uint256"
        },
        {
          "indexed": false,
          "internalType": "uint256",
          "name": "coverageAmount",
          "type": "uint256"
        },
        {
          "indexed": false,
          "internalType": "uint256",
          "name": "purchaseTime",
          "type": "uint256"
        },
        {
          "indexed": false,
          "internalType": "uint256",
          "name": "endTime",
          "type": "uint256"
        }
      ],
      "name": "PolicyPurchased",
      "type": "event"
    },
    {
      "anonymous": false,
      "inputs": [
        {
          "indexed": true,
          "internalType": "uint256",
          "name": "policyId",
          "type": "uint256"
        },
        {
          "indexed": true,
          "internalType": "address",
          "name": "holder",
          "type": "address"
        },
        {
          "indexed": false,
          "internalType": "uint256",
          "name": "payoutAmount",
          "type": "uint256"
        },
        {
          "indexed": false,
          "internalType": "bool",
          "name": "payoutExecuted",
          "type": "bool"
        },
        {
          "indexed": false,
          "internalType": "uint8",
          "name": "oracleOutcome",
          "type": "uint8"
        },
        {
          "indexed": false,
          "internalType": "uint256",
          "name": "delayMinutes",
          "type": "uint256"
        }
      ],
      "name": "PolicyResolved",
      "type": "event"
    },
    {
      "anonymous": false,
      "inputs": [
        {
          "indexed": false,
          "internalType": "address",
          "name": "account",
          "type": "address"
        }
      ],
      "name": "Unpaused",
      "type": "event"
    },
    {
      "inputs": [],
      "name": "MAX_FLIGHT_NUMBER_LENGTH",
      "outputs": [
        {
          "internalType": "uint256",
          "name": "",
          "type": "uint256"
        }
      ],
      "stateMutability": "view",
      "type": "function"
    },
    {
      "inputs": [
        {
          "internalType": "string",
          "name": "flightNumber",
          "type": "string"
        },
        {
          "internalType": "uint256",
          "name": "departureTimestamp",
          "type": "uint256"
        },
        {
          "internalType": "uint8",
          "name": "policyType",
          "type": "uint8"
        },
        {
          "internalType": "uint256",
          "name": "coverageAmount",
          "type": "uint256"
        },
        {
          "internalType": "uint256",
          "name": "duration",
          "type": "uint256"
        },
        {
          "internalType": "uint256",
          "name": "delayThresholdMinutes",
          "type": "uint256"
        },
        {
          "internalType": "uint256",
          "name": "premium",
          "type": "uint256"
        }
      ],
      "name": "buyPolicy",
      "outputs": [],
      "stateMutability": "nonpayable",
      "type": "function"
    },
    {
      "inputs": [
        {
          "internalType": "uint256",
          "name": "policyId",
          "type": "uint256"
        }
      ],
      "name": "canRequestOracleCheck",
      "outputs": [
        {
          "internalType": "bool",
          "name": "",
          "type": "bool"
        }
      ],
      "stateMutability": "view",
      "type": "function"
    },
    {
      "inputs": [
        {
          "internalType": "string",
          "name": "flightNumber",
          "type": "string"
        },
        {
          "internalType": "uint256",
          "name": "departureTimestamp",
          "type": "uint256"
        }
      ],
      "name": "getFlightKey",
      "outputs": [
        {
          "internalType": "bytes32",
          "name": "",
          "type": "bytes32"
        }
      ],
      "stateMutability": "pure",
      "type": "function"
    },
    {
      "inputs": [
        {
          "internalType": "uint256",
          "name": "policyId",
          "type": "uint256"
        }
      ],
      "name": "getPolicy",
      "outputs": [
        {
          "components": [
            {
              "internalType": "uint256",
              "name": "policyId",
              "type": "uint256"
            },
            {
              "internalType": "address",
              "name": "holder",
              "type": "address"
            },
            {
              "internalType": "string",
              "name": "flightNumber",
              "type": "string"
            },
            {
              "internalType": "uint256",
              "name": "purchaseTime",
              "type": "uint256"
            },
            {
              "internalType": "uint256",
              "name": "departureTimestamp",
              "type": "uint256"
            },
            {
              "internalType": "uint256",
              "name": "premium",
              "type": "uint256"
            },
            {
              "internalType": "uint256",
              "name": "coverageAmount",
              "type": "uint256"
            },
            {
              "internalType": "uint256",
              "name": "endTime",
              "type": "uint256"
            },
            {
              "internalType": "uint256",
              "name": "delayThresholdMinutes",
              "type": "uint256"
            },
            {
              "internalType": "enum PolicyManager.PolicyType",
              "name": "policyType",
              "type": "uint8"
            },
            {
              "internalType": "enum PolicyManager.PolicyStatus",
              "name": "status",
              "type": "uint8"
            }
          ],
          "internalType": "struct PolicyManager.Policy",
          "name": "",
          "type": "tuple"
        }
      ],
      "stateMutability": "view",
      "type": "function"
    },
    {
      "inputs": [
        {
          "internalType": "address",
          "name": "user",
          "type": "address"
        }
      ],
      "name": "getUserPolicies",
      "outputs": [
        {
          "internalType": "uint256[]",
          "name": "",
          "type": "uint256[]"
        }
      ],
      "stateMutability": "view",
      "type": "function"
    },
    {
      "inputs": [],
      "name": "insurancePool",
      "outputs": [
        {
          "internalType": "address",
          "name": "",
          "type": "address"
        }
      ],
      "stateMutability": "view",
      "type": "function"
    },
    {
      "inputs": [],
      "name": "nextPolicyId",
      "outputs": [
        {
          "internalType": "uint256",
          "name": "",
          "type": "uint256"
        }
      ],
      "stateMutability": "view",
      "type": "function"
    },
    {
      "inputs": [],
      "name": "oracleCoordinator",
      "outputs": [
        {
          "internalType": "address",
          "name": "",
          "type": "address"
        }
      ],
      "stateMutability": "view",
      "type": "function"
    },
    {
      "inputs": [],
      "name": "owner",
      "outputs": [
        {
          "internalType": "address",
          "name": "",
          "type": "address"
        }
      ],
      "stateMutability": "view",
      "type": "function"
    },
    {
      "inputs": [],
      "name": "pause",
      "outputs": [],
      "stateMutability": "nonpayable",
      "type": "function"
    },
    {
      "inputs": [],
      "name": "paused",
      "outputs": [
        {
          "internalType": "bool",
          "name": "",
          "type": "bool"
        }
      ],
      "stateMutability": "view",
      "type": "function"
    },
    {
      "inputs": [
        {
          "internalType": "uint256",
          "name": "",
          "type": "uint256"
        }
      ],
      "name": "policies",
      "outputs": [
        {
          "internalType": "uint256",
          "name": "policyId",
          "type": "uint256"
        },
        {
          "internalType": "address",
          "name": "holder",
          "type": "address"
        },
        {
          "internalType": "string",
          "name": "flightNumber",
          "type": "string"
        },
        {
          "internalType": "uint256",
          "name": "purchaseTime",
          "type": "uint256"
        },
        {
          "internalType": "uint256",
          "name": "departureTimestamp",
          "type": "uint256"
        },
        {
          "internalType": "uint256",
          "name": "premium",
          "type": "uint256"
        },
        {
          "internalType": "uint256",
          "name": "coverageAmount",
          "type": "uint256"
        },
        {
          "internalType": "uint256",
          "name": "endTime",
          "type": "uint256"
        },
        {
          "internalType": "uint256",
          "name": "delayThresholdMinutes",
          "type": "uint256"
        },
        {
          "internalType": "enum PolicyManager.PolicyType",
          "name": "policyType",
          "type": "uint8"
        },
        {
          "internalType": "enum PolicyManager.PolicyStatus",
          "name": "status",
          "type": "uint8"
        }
      ],
      "stateMutability": "view",
      "type": "function"
    },
    {
      "inputs": [],
      "name": "renounceOwnership",
      "outputs": [],
      "stateMutability": "nonpayable",
      "type": "function"
    },
    {
      "inputs": [
        {
          "internalType": "uint256",
          "name": "policyId",
          "type": "uint256"
        },
        {
          "internalType": "uint8",
          "name": "outcome",
          "type": "uint8"
        },
        {
          "internalType": "uint256",
          "name": "delayMinutes",
          "type": "uint256"
        }
      ],
      "name": "resolvePolicyFromOracle",
      "outputs": [
        {
          "internalType": "bool",
          "name": "payoutExecuted",
          "type": "bool"
        },
        {
          "internalType": "uint256",
          "name": "payoutAmount",
          "type": "uint256"
        }
      ],
      "stateMutability": "nonpayable",
      "type": "function"
    },
    {
      "inputs": [
        {
          "internalType": "address",
          "name": "_insurancePool",
          "type": "address"
        }
      ],
      "name": "setInsurancePool",
      "outputs": [],
      "stateMutability": "nonpayable",
      "type": "function"
    },
    {
      "inputs": [
        {
          "internalType": "address",
          "name": "_oracleCoordinator",
          "type": "address"
        }
      ],
      "name": "setOracleCoordinator",
      "outputs": [],
      "stateMutability": "nonpayable",
      "type": "function"
    },
    {
      "inputs": [],
      "name": "stablecoin",
      "outputs": [
        {
          "internalType": "contract IERC20",
          "name": "",
          "type": "address"
        }
      ],
      "stateMutability": "view",
      "type": "function"
    },
    {
      "inputs": [
        {
          "internalType": "address",
          "name": "newOwner",
          "type": "address"
        }
      ],
      "name": "transferOwnership",
      "outputs": [],
      "stateMutability": "nonpayable",
      "type": "function"
    },
    {
      "inputs": [],
      "name": "unpause",
      "outputs": [],
      "stateMutability": "nonpayable",
      "type": "function"
    },
    {
      "inputs": [
        {
          "internalType": "address",
          "name": "",
          "type": "address"
        },
        {
          "internalType": "uint256",
          "name": "",
          "type": "uint256"
        }
      ],
      "name": "userPolicies",
      "outputs": [
        {
          "internalType": "uint256",
          "name": "",
          "type": "uint256"
        }
      ],
      "stateMutability": "view",
      "type": "function"
    }
  ],
  "transactionHash": "0xcabd2f869b22783a273bbb452fe93c3fb888a44089b91c0dd2b6ec9a6345a39b",
  "args": [
    "0xFA71294055CbAF8272269b3b875cBFFdCA382Bb6",
    "0xd296bBE0f4A394fCa72e9cab4478f5BE4B7DD8e6",
    "0xE829e46105cbc7AB4EF0b88c32490615488E5E69",
    "0x7ab4b089C35F0502d3b739a5A84c2DcfC3b3d990"
  ],
  "numDeployments": 1,
  "solcInputHash": "611de110309b80cf6d0c10006e344b68",
  "bytecode": "0x60a060405234801561001057600080fd5b5060405161218638038061218683398101604081905261002f9161027e565b806001600160a01b03811661005f57604051631e4fbdf760e01b8152600060048201526024015b60405180910390fd5b61006881610212565b5060017f9b779b17422d0df92223018b32b4d1fa46e071723d6817e2486d003becc55f00556001600160a01b0384166100e35760405162461bcd60e51b815260206004820152601a60248201527f496e76616c696420737461626c65636f696e20616464726573730000000000006044820152606401610056565b6001600160a01b0383166101395760405162461bcd60e51b815260206004820152601460248201527f496e76616c696420706f6f6c20616464726573730000000000000000000000006044820152606401610056565b6001600160a01b03821661018f5760405162461bcd60e51b815260206004820152601a60248201527f496e76616c6964206f7261636c6520636f6f7264696e61746f720000000000006044820152606401610056565b6001600160a01b0381166101d55760405162461bcd60e51b815260206004820152600d60248201526c24b73b30b634b21037bbb732b960991b6044820152606401610056565b506001600160a01b03928316608052600180549284166001600160a01b0319938416178155600280549290941691909216179091556003556102d2565b600080546001600160a01b038381166001600160a01b0319831681178455604051919092169283917f8be0079c531659141344cd1fd0a4f28419497f9722a3daafe3b4186f6b6457e09190a35050565b80516001600160a01b038116811461027957600080fd5b919050565b6000806000806080858703121561029457600080fd5b61029d85610262565b93506102ab60208601610262565b92506102b960408601610262565b91506102c760608601610262565b905092959194509250565b608051611e8b6102fb600039600081816102cc01528181610b160152610b4f0152611e8b6000f3fe608060405234801561001057600080fd5b50600436106101375760003560e01c8063a94c487e116100b8578063d3e894831161007c578063d3e8948314610282578063dc45bb6e146102ac578063e80adc4d146102b4578063e9cbd822146102c7578063f2fde38b146102ee578063f4e2af921461030157600080fd5b8063a94c487e1461022d578063ab2adc0014610240578063bff6e7fa14610253578063cad0b8db14610266578063cd112e241461026f57600080fd5b80635c975abb116100ff5780635c975abb146101db578063715018a6146101f957806375749c98146102015780638456cb59146102145780638da5cb5b1461021c57600080fd5b806319ac46141461013c5780632b07fce3146101655780633d36adc5146101855780633f4ba83a146101a6578063407726ac146101b0575b600080fd5b61014f61014a3660046117ff565b61032b565b60405161015c919061181a565b60405180910390f35b61017861017336600461185d565b610397565b60405161015c9190611900565b6101986101933660046119b5565b610519565b60405190815260200161015c565b6101ae61054a565b005b6002546101c3906001600160a01b031681565b6040516001600160a01b03909116815260200161015c565b600054600160a01b900460ff165b604051901515815260200161015c565b6101ae61055c565b6101e961020f36600461185d565b61056e565b6101ae610736565b6000546001600160a01b03166101c3565b6101ae61023b3660046117ff565b610746565b6001546101c3906001600160a01b031681565b6101ae6102613660046117ff565b6107ea565b61019860035481565b6101ae61027d3660046119f0565b610892565b61029561029036600461185d565b610e2a565b60405161015c9b9a99989796959493929190611a9f565b610198601481565b6101986102c2366004611b33565b610f17565b6101c37f000000000000000000000000000000000000000000000000000000000000000081565b6101ae6102fc3660046117ff565b610f4b565b61031461030f366004611bee565b610f89565b60408051921515835260208301919091520161015c565b6001600160a01b03811660009081526005602090815260409182902080548351818402810184019094528084526060939283018282801561038b57602002820191906000526020600020905b815481526020019060010190808311610377575b50505050509050919050565b61039f611770565b6000828152600460209081526040918290208251610160810184528154815260018201546001600160a01b03169281019290925260028101805492939192918401916103ea90611c24565b80601f016020809104026020016040519081016040528092919081815260200182805461041690611c24565b80156104635780601f1061043857610100808354040283529160200191610463565b820191906000526020600020905b81548152906001019060200180831161044657829003601f168201915b505050918352505060038201546020820152600482015460408201526005820154606082015260068201546080820152600782015460a0820152600882015460c0820152600982015460e09091019060ff1660018111156104c6576104c66118c6565b60018111156104d7576104d76118c6565b81526020016009820160019054906101000a900460ff1660038111156104ff576104ff6118c6565b6003811115610510576105106118c6565b90525092915050565b6005602052816000526040600020818154811061053557600080fd5b90600052602060002001600091509150505481565b6105526113f9565b61055a611426565b565b6105646113f9565b61055a600061147b565b60008181526004602090815260408083208151610160810183528154815260018201546001600160a01b031693810193909352600281018054859493840191906105b790611c24565b80601f01602080910402602001604051908101604052809291908181526020018280546105e390611c24565b80156106305780601f1061060557610100808354040283529160200191610630565b820191906000526020600020905b81548152906001019060200180831161061357829003601f168201915b505050918352505060038201546020820152600482015460408201526005820154606082015260068201546080820152600782015460a0820152600882015460c0820152600982015460e09091019060ff166001811115610693576106936118c6565b60018111156106a4576106a46118c6565b81526020016009820160019054906101000a900460ff1660038111156106cc576106cc6118c6565b60038111156106dd576106dd6118c6565b9052506002549091506001600160a01b0316158015906106fd5750805115155b801561071f57506000816101400151600381111561071d5761071d6118c6565b145b801561072f575080608001514210155b9392505050565b61073e6113f9565b61055a6114cb565b61074e6113f9565b6001600160a01b0381166107a05760405162461bcd60e51b8152602060048201526014602482015273496e76616c696420706f6f6c206164647265737360601b60448201526064015b60405180910390fd5b600180546001600160a01b0319166001600160a01b0383169081179091556040517fe9c1e3beb9c8e189902322f6d6860eb1f59417b2bd7813d91132e3a3d8075ac490600090a250565b6107f26113f9565b6001600160a01b0381166108485760405162461bcd60e51b815260206004820152601a60248201527f496e76616c6964206f7261636c6520636f6f7264696e61746f720000000000006044820152606401610797565b600280546001600160a01b0319166001600160a01b0383169081179091556040517f2ec89eb4a661480d151d6b48d64c2bbf2fe0891a1af1a553126da3627baa1c3490600090a250565b61089a61150e565b6108a261152a565b866108e85760405162461bcd60e51b8152602060048201526016602482015275119b1a59da1d081b9d5b58995c881c995c5d5a5c995960521b6044820152606401610797565b60148711156109325760405162461bcd60e51b8152602060048201526016602482015275466c69676874206e756d62657220746f6f206c6f6e6760501b6044820152606401610797565b4286116109815760405162461bcd60e51b815260206004820152601b60248201527f446570617274757265206d75737420626520696e2066757475726500000000006044820152606401610797565b600160ff861611156109cb5760405162461bcd60e51b8152602060048201526013602482015272496e76616c696420706f6c696379207479706560681b6044820152606401610797565b60008411610a125760405162461bcd60e51b81526020600482015260146024820152730436f766572616765206d757374206265203e20360641b6044820152606401610797565b60008311610a595760405162461bcd60e51b815260206004820152601460248201527304475726174696f6e206d757374206265203e20360641b6044820152606401610797565b60ff8516610ab15760008211610ab15760405162461bcd60e51b815260206004820152601860248201527f44656c6179207468726573686f6c6420726571756972656400000000000000006044820152606401610797565b60008111610af75760405162461bcd60e51b815260206004820152601360248201527205072656d69756d206d757374206265203e203606c1b6044820152606401610797565b600354426000610b07868a611c74565b9050610b3e6001600160a01b037f000000000000000000000000000000000000000000000000000000000000000016333087611555565b600154610b78906001600160a01b037f00000000000000000000000000000000000000000000000000000000000000008116911686611591565b60015460405163d5a867b760e01b8152336004820152602481018690526001600160a01b039091169063d5a867b790604401600060405180830381600087803b158015610bc457600080fd5b505af1158015610bd8573d6000803e3d6000fd5b50505050604051806101600160405280848152602001336001600160a01b031681526020018c8c8080601f01602080910402602001604051908101604052809392919081815260200183838082843760009201919091525050509082525060208101849052604081018b9052606081018690526080810189905260a0810183905260c0810187905260e00160ff8a166001811115610c7857610c786118c6565b6001811115610c8957610c896118c6565b81526020016000905260008481526004602090815260409182902083518155908301516001820180546001600160a01b0319166001600160a01b03909216919091179055908201516002820190610ce09082611cd5565b50606082015160038201556080820151600482015560a0820151600582015560c0820151600682015560e08201516007820155610100820151600882015561012082015160098201805460ff191660018381811115610d4157610d416118c6565b021790555061014082015160098201805461ff001916610100836003811115610d6c57610d6c6118c6565b021790555050336000908152600560209081526040822080546001810182559083529082200185905560038054925090610da583611d94565b90915550339050837f25d058c1df72d2e828b3e09d843bdbec027e300c78100340ad4084b761fc0f168d8d8d60ff8e166001811115610de657610de66118c6565b8a8e8a8a604051610dfe989796959493929190611dad565b60405180910390a3505050610e206001600080516020611e3683398151915255565b5050505050505050565b60046020526000908152604090208054600182015460028301805492936001600160a01b0390921692610e5c90611c24565b80601f0160208091040260200160405190810160405280929190818152602001828054610e8890611c24565b8015610ed55780601f10610eaa57610100808354040283529160200191610ed5565b820191906000526020600020905b815481529060010190602001808311610eb857829003601f168201915b50505050600383015460048401546005850154600686015460078701546008880154600990980154969794969395509193909260ff808216916101009004168b565b60008282604051602001610f2c929190611e13565b6040516020818303038152906040528051906020012090505b92915050565b610f536113f9565b6001600160a01b038116610f7d57604051631e4fbdf760e01b815260006004820152602401610797565b610f868161147b565b50565b600080610f9461150e565b610f9c61152a565b6002546001600160a01b03163314610fef5760405162461bcd60e51b81526020600482015260166024820152752737ba1037b930b1b6329031b7b7b93234b730ba37b960511b6044820152606401610797565b600085815260046020526040812080549091036110415760405162461bcd60e51b815260206004820152601060248201526f141bdb1a58de481b9bdd08199bdd5b9960821b6044820152606401610797565b60006009820154610100900460ff166003811115611061576110616118c6565b146110a25760405162461bcd60e51b8152602060048201526011602482015270506f6c696379206e6f742061637469766560781b6044820152606401610797565b80600401544210156110f65760405162461bcd60e51b815260206004820152601b60248201527f466c6967687420686173206e6f742064657061727465642079657400000000006044820152606401610797565b60408051610160810182528254815260018301546001600160a01b03166020820152600283018054600093611265939286929184019161113590611c24565b80601f016020809104026020016040519081016040528092919081815260200182805461116190611c24565b80156111ae5780601f10611183576101008083540402835291602001916111ae565b820191906000526020600020905b81548152906001019060200180831161119157829003601f168201915b505050918352505060038201546020820152600482015460408201526005820154606082015260068201546080820152600782015460a0820152600882015460c0820152600982015460e09091019060ff166001811115611211576112116118c6565b6001811115611222576112226118c6565b81526020016009820160019054906101000a900460ff16600381111561124a5761124a6118c6565b600381111561125b5761125b6118c6565b90525087876115cb565b9050806112e85760098201805461ff0019166101001790556001820154604080516000808252602082015260ff8916818301526060810188905290516001600160a01b039092169189917f2e0201d05a6aa01892f5cc5fbd92778cb18eeaf88ef08660cb3dc86cdc0102cf919081900360800190a36000809350935050506113da565b60098201805461030061ff00199091161790556001805490830154600684015460405163011081c560e11b81526001600160a01b0392831660048201526024810191909152911690630221038a90604401600060405180830381600087803b15801561135357600080fd5b505af1158015611367573d6000803e3d6000fd5b50505050600182810154600684015460408051918252602082019390935260ff8916818401526060810188905291516001600160a01b039091169189917f2e0201d05a6aa01892f5cc5fbd92778cb18eeaf88ef08660cb3dc86cdc0102cf9181900360800190a350600601546001925090505b6113f16001600080516020611e3683398151915255565b935093915050565b6000546001600160a01b0316331461055a5760405163118cdaa760e01b8152336004820152602401610797565b61142e61163e565b6000805460ff60a01b191690557f5db9ee0a495bf2e6ff9c91a7834c1ba4fdd244a5e8aa4e537bd38aeae4b073aa335b6040516001600160a01b03909116815260200160405180910390a1565b600080546001600160a01b038381166001600160a01b0319831681178455604051919092169283917f8be0079c531659141344cd1fd0a4f28419497f9722a3daafe3b4186f6b6457e09190a35050565b6114d361152a565b6000805460ff60a01b1916600160a01b1790557f62e78cea01bee320cd4e420270b5ea74000d11b0c9f74754ebdbfc544b05a25861145e3390565b611516611668565b6002600080516020611e3683398151915255565b600054600160a01b900460ff161561055a5760405163d93c066560e01b815260040160405180910390fd5b611563848484846001611698565b61158b57604051635274afe760e01b81526001600160a01b0385166004820152602401610797565b50505050565b61159e838383600161170a565b6115c657604051635274afe760e01b81526001600160a01b0384166004820152602401610797565b505050565b60008084610120015160018111156115e5576115e56118c6565b03611609578260ff16600214801561160257508361010001518210155b905061072f565b60018461012001516001811115611622576116226118c6565b036116345750600360ff83161461072f565b5060009392505050565b600054600160a01b900460ff1661055a57604051638dfc202b60e01b815260040160405180910390fd5b600080516020611e368339815191525460020361055a57604051633ee5aeb560e01b815260040160405180910390fd5b6040516323b872dd60e01b60008181526001600160a01b038781166004528616602452604485905291602083606481808c5af1925060016000511483166116f85783831516156116eb573d6000823e3d81fd5b6000883b113d1516831692505b60405250600060605295945050505050565b60405163a9059cbb60e01b60008181526001600160a01b038616600452602485905291602083604481808b5af192506001600051148316611764578383151615611757573d6000823e3d81fd5b6000873b113d1516831692505b60405250949350505050565b6040518061016001604052806000815260200160006001600160a01b0316815260200160608152602001600081526020016000815260200160008152602001600081526020016000815260200160008152602001600060018111156117d7576117d76118c6565b81526020016000905290565b80356001600160a01b03811681146117fa57600080fd5b919050565b60006020828403121561181157600080fd5b61072f826117e3565b602080825282518282018190526000918401906040840190835b81811015611852578351835260209384019390920191600101611834565b509095945050505050565b60006020828403121561186f57600080fd5b5035919050565b60005b83811015611891578181015183820152602001611879565b50506000910152565b600081518084526118b2816020860160208601611876565b601f01601f19169290920160200192915050565b634e487b7160e01b600052602160045260246000fd5b600281106118ec576118ec6118c6565b9052565b600481106118ec576118ec6118c6565b60208152815160208201526000602083015161192760408401826001600160a01b03169052565b506040830151610160606084015261194361018084018261189a565b905060608401516080840152608084015160a084015260a084015160c084015260c084015160e084015260e08401516101008401526101008401516101208401526101208401516119986101408501826118dc565b506101408401516119ad6101608501826118f0565b509392505050565b600080604083850312156119c857600080fd5b6119d1836117e3565b946020939093013593505050565b803560ff811681146117fa57600080fd5b60008060008060008060008060e0898b031215611a0c57600080fd5b883567ffffffffffffffff811115611a2357600080fd5b8901601f81018b13611a3457600080fd5b803567ffffffffffffffff811115611a4b57600080fd5b8b6020828401011115611a5d57600080fd5b6020918201995097508901359550611a7760408a016119df565b979a96995094976060810135966080820135965060a0820135955060c0909101359350915050565b8b81526001600160a01b038b16602082015261016060408201819052600090611aca9083018c61189a565b90508960608301528860808301528760a08301528660c08301528560e083015284610100830152611aff6101208301856118dc565b611b0d6101408301846118f0565b9c9b505050505050505050505050565b634e487b7160e01b600052604160045260246000fd5b60008060408385031215611b4657600080fd5b823567ffffffffffffffff811115611b5d57600080fd5b8301601f81018513611b6e57600080fd5b803567ffffffffffffffff811115611b8857611b88611b1d565b604051601f8201601f19908116603f0116810167ffffffffffffffff81118282101715611bb757611bb7611b1d565b604052818152828201602001871015611bcf57600080fd5b8160208401602083013760006020928201830152969401359450505050565b600080600060608486031215611c0357600080fd5b83359250611c13602085016119df565b929592945050506040919091013590565b600181811c90821680611c3857607f821691505b602082108103611c5857634e487b7160e01b600052602260045260246000fd5b50919050565b634e487b7160e01b600052601160045260246000fd5b80820180821115610f4557610f45611c5e565b601f8211156115c657806000526020600020601f840160051c81016020851015611cae5750805b601f840160051c820191505b81811015611cce5760008155600101611cba565b5050505050565b815167ffffffffffffffff811115611cef57611cef611b1d565b611d0381611cfd8454611c24565b84611c87565b6020601f821160018114611d375760008315611d1f5750848201515b600019600385901b1c1916600184901b178455611cce565b600084815260208120601f198516915b82811015611d675787850151825560209485019460019092019101611d47565b5084821015611d855786840151600019600387901b60f8161c191681555b50505050600190811b01905550565b600060018201611da657611da6611c5e565b5060010190565b60e081528760e08201528789610100830137600061010089830101526000610100601f19601f8b01168301019050876020830152611dee60408301886118dc565b8560608301528460808301528360a08301528260c08301529998505050505050505050565b60008351611e25818460208801611876565b919091019182525060200191905056fe9b779b17422d0df92223018b32b4d1fa46e071723d6817e2486d003becc55f00a26469706673582212204e920017ed42ea888a835fc3cc227bde281f68d049a9bf452ba7ceee53994a0764736f6c634300081e0033",
  "devdoc": {
    "errors": {
      "EnforcedPause()": [
        {
          "details": "The operation failed because the contract is paused."
        }
      ],
      "ExpectedPause()": [
        {
          "details": "The operation failed because the contract is not paused."
        }
      ],
      "OwnableInvalidOwner(address)": [
        {
          "details": "The owner is not a valid owner account. (eg. `address(0)`)"
        }
      ],
      "OwnableUnauthorizedAccount(address)": [
        {
          "details": "The caller account is not authorized to perform an operation."
        }
      ],
      "ReentrancyGuardReentrantCall()": [
        {
          "details": "Unauthorized reentrant call."
        }
      ],
      "SafeERC20FailedOperation(address)": [
        {
          "details": "An operation with an ERC-20 token failed."
        }
      ]
    },
    "events": {
      "Paused(address)": {
        "details": "Emitted when the pause is triggered by `account`."
      },
      "Unpaused(address)": {
        "details": "Emitted when the pause is lifted by `account`."
      }
    },
    "kind": "dev",
    "methods": {
      "owner()": {
        "details": "Returns the address of the current owner."
      },
      "paused()": {
        "details": "Returns true if the contract is paused, and false otherwise."
      },
      "renounceOwnership()": {
        "details": "Leaves the contract without owner. It will not be possible to call `onlyOwner` functions. Can only be called by the current owner. NOTE: Renouncing ownership will leave the contract without an owner, thereby disabling any functionality that is only available to the owner."
      },
      "transferOwnership(address)": {
        "details": "Transfers ownership of the contract to a new account (`newOwner`). Can only be called by the current owner."
      }
    },
    "version": 1
  },
  "userdoc": {
    "kind": "user",
    "methods": {},
    "version": 1
  },
  "storageLayout": {
    "storage": [
      {
        "astId": 8,
        "contract": "contracts/PolicyManager.sol:PolicyManager",
        "label": "_owner",
        "offset": 0,
        "slot": "0",
        "type": "t_address"
      },
      {
        "astId": 809,
        "contract": "contracts/PolicyManager.sol:PolicyManager",
        "label": "_paused",
        "offset": 20,
        "slot": "0",
        "type": "t_bool"
      },
      {
        "astId": 2058,
        "contract": "contracts/PolicyManager.sol:PolicyManager",
        "label": "insurancePool",
        "offset": 0,
        "slot": "1",
        "type": "t_address"
      },
      {
        "astId": 2060,
        "contract": "contracts/PolicyManager.sol:PolicyManager",
        "label": "oracleCoordinator",
        "offset": 0,
        "slot": "2",
        "type": "t_address"
      },
      {
        "astId": 2062,
        "contract": "contracts/PolicyManager.sol:PolicyManager",
        "label": "nextPolicyId",
        "offset": 0,
        "slot": "3",
        "type": "t_uint256"
      },
      {
        "astId": 2103,
        "contract": "contracts/PolicyManager.sol:PolicyManager",
        "label": "policies",
        "offset": 0,
        "slot": "4",
        "type": "t_mapping(t_uint256,t_struct(Policy)2098_storage)"
      },
      {
        "astId": 2108,
        "contract": "contracts/PolicyManager.sol:PolicyManager",
        "label": "userPolicies",
        "offset": 0,
        "slot": "5",
        "type": "t_mapping(t_address,t_array(t_uint256)dyn_storage)"
      }
    ],
    "types": {
      "t_address": {
        "encoding": "inplace",
        "label": "address",
        "numberOfBytes": "20"
      },
      "t_array(t_uint256)dyn_storage": {
        "base": "t_uint256",
        "encoding": "dynamic_array",
        "label": "uint256[]",
        "numberOfBytes": "32"
      },
      "t_bool": {
        "encoding": "inplace",
        "label": "bool",
        "numberOfBytes": "1"
      },
      "t_enum(PolicyStatus)2073": {
        "encoding": "inplace",
        "label": "enum PolicyManager.PolicyStatus",
        "numberOfBytes": "1"
      },
      "t_enum(PolicyType)2068": {
        "encoding": "inplace",
        "label": "enum PolicyManager.PolicyType",
        "numberOfBytes": "1"
      },
      "t_mapping(t_address,t_array(t_uint256)dyn_storage)": {
        "encoding": "mapping",
        "key": "t_address",
        "label": "mapping(address => uint256[])",
        "numberOfBytes": "32",
        "value": "t_array(t_uint256)dyn_storage"
      },
      "t_mapping(t_uint256,t_struct(Policy)2098_storage)": {
        "encoding": "mapping",
        "key": "t_uint256",
        "label": "mapping(uint256 => struct PolicyManager.Policy)",
        "numberOfBytes": "32",
        "value": "t_struct(Policy)2098_storage"
      },
      "t_string_storage": {
        "encoding": "bytes",
        "label": "string",
        "numberOfBytes": "32"
      },
      "t_struct(Policy)2098_storage": {
        "encoding": "inplace",
        "label": "struct PolicyManager.Policy",
        "members": [
          {
            "astId": 2075,
            "contract": "contracts/PolicyManager.sol:PolicyManager",
            "label": "policyId",
            "offset": 0,
            "slot": "0",
            "type": "t_uint256"
          },
          {
            "astId": 2077,
            "contract": "contracts/PolicyManager.sol:PolicyManager",
            "label": "holder",
            "offset": 0,
            "slot": "1",
            "type": "t_address"
          },
          {
            "astId": 2079,
            "contract": "contracts/PolicyManager.sol:PolicyManager",
            "label": "flightNumber",
            "offset": 0,
            "slot": "2",
            "type": "t_string_storage"
          },
          {
            "astId": 2081,
            "contract": "contracts/PolicyManager.sol:PolicyManager",
            "label": "purchaseTime",
            "offset": 0,
            "slot": "3",
            "type": "t_uint256"
          },
          {
            "astId": 2083,
            "contract": "contracts/PolicyManager.sol:PolicyManager",
            "label": "departureTimestamp",
            "offset": 0,
            "slot": "4",
            "type": "t_uint256"
          },
          {
            "astId": 2085,
            "contract": "contracts/PolicyManager.sol:PolicyManager",
            "label": "premium",
            "offset": 0,
            "slot": "5",
            "type": "t_uint256"
          },
          {
            "astId": 2087,
            "contract": "contracts/PolicyManager.sol:PolicyManager",
            "label": "coverageAmount",
            "offset": 0,
            "slot": "6",
            "type": "t_uint256"
          },
          {
            "astId": 2089,
            "contract": "contracts/PolicyManager.sol:PolicyManager",
            "label": "endTime",
            "offset": 0,
            "slot": "7",
            "type": "t_uint256"
          },
          {
            "astId": 2091,
            "contract": "contracts/PolicyManager.sol:PolicyManager",
            "label": "delayThresholdMinutes",
            "offset": 0,
            "slot": "8",
            "type": "t_uint256"
          },
          {
            "astId": 2094,
            "contract": "contracts/PolicyManager.sol:PolicyManager",
            "label": "policyType",
            "offset": 0,
            "slot": "9",
            "type": "t_enum(PolicyType)2068"
          },
          {
            "astId": 2097,
            "contract": "contracts/PolicyManager.sol:PolicyManager",
            "label": "status",
            "offset": 1,
            "slot": "9",
            "type": "t_enum(PolicyStatus)2073"
          }
        ],
        "numberOfBytes": "320"
      },
      "t_uint256": {
        "encoding": "inplace",
        "label": "uint256",
        "numberOfBytes": "32"
      }
    }
  }
}