{
  "address": "0x00b33293260232f6EC288986EdAb94C3b614E5De",
  "abi": [
    {
      "inputs": [
        {
          "internalType": "address",
          "name": "_stablecoin",
          "type": "address"
        },
        {
          "internalType": "address",
          "name": "_insurancePool",
          "type": "address"
        },
        {
          "internalType": "address",
          "name": "_oracleCoordinator",
          "type": "address"
        },
        {
          "internalType": "address",
          "name": "initialOwner",
          "type": "address"
        }
      ],
      "stateMutability": "nonpayable",
      "type": "constructor"
    },
    {
      "inputs": [],
      "name": "EnforcedPause",
      "type": "error"
    },
    {
      "inputs": [],
      "name": "ExpectedPause",
      "type": "error"
    },
    {
      "inputs": [
        {
          "internalType": "address",
          "name": "owner",
          "type": "address"
        }
      ],
      "name": "OwnableInvalidOwner",
      "type": "error"
    },
    {
      "inputs": [
        {
          "internalType": "address",
          "name": "account",
          "type": "address"
        }
      ],
      "name": "OwnableUnauthorizedAccount",
      "type": "error"
    },
    {
      "inputs": [],
      "name": "ReentrancyGuardReentrantCall",
      "type": "error"
    },
    {
      "inputs": [
        {
          "internalType": "address",
          "name": "token",
          "type": "address"
        }
      ],
      "name": "SafeERC20FailedOperation",
      "type": "error"
    },
    {
      "anonymous": false,
      "inputs": [
        {
          "indexed": true,
          "internalType": "address",
          "name": "newPool",
          "type": "address"
        }
      ],
      "name": "InsurancePoolUpdated",
      "type": "event"
    },
    {
      "anonymous": false,
      "inputs": [
        {
          "indexed": true,
          "internalType": "address",
          "name": "newCoordinator",
          "type": "address"
        }
      ],
      "name": "OracleCoordinatorUpdated",
      "type": "event"
    },
    {
      "anonymous": false,
      "inputs": [
        {
          "indexed": false,
          "internalType": "bool",
          "name": "demoOracleMode",
          "type": "bool"
        },
        {
          "indexed": false,
          "internalType": "uint256",
          "name": "demoOracleDelaySeconds",
          "type": "uint256"
        }
      ],
      "name": "OracleEvaluationConfigUpdated",
      "type": "event"
    },
    {
      "anonymous": false,
      "inputs": [
        {
          "indexed": true,
          "internalType": "address",
          "name": "previousOwner",
          "type": "address"
        },
        {
          "indexed": true,
          "internalType": "address",
          "name": "newOwner",
          "type": "address"
        }
      ],
      "name": "OwnershipTransferred",
      "type": "event"
    },
    {
      "anonymous": false,
      "inputs": [
        {
          "indexed": false,
          "internalType": "address",
          "name": "account",
          "type": "address"
        }
      ],
      "name": "Paused",
      "type": "event"
    },
    {
      "anonymous": false,
      "inputs": [
        {
          "indexed": true,
          "internalType": "uint256",
          "name": "policyId",
          "type": "uint256"
        },
        {
          "indexed": true,
          "internalType": "address",
          "name": "holder",
          "type": "address"
        },
        {
          "indexed": false,
          "internalType": "string",
          "name": "flightNumber",
          "type": "string"
        },
        {
          "indexed": false,
          "internalType": "uint256",
          "name": "departureTimestamp",
          "type": "uint256"
        },
        {
          "indexed": false,
          "internalType": "enum PolicyManager.PolicyType",
          "name": "policyType",
          "type": "uint8"
        },
        {
          "indexed": false,
          "internalType": "uint256",
          "name": "premium",
          "type": "uint256"
        },
        {
          "indexed": false,
          "internalType": "uint256",
          "name": "coverageAmount",
          "type": "uint256"
        },
        {
          "indexed": false,
          "internalType": "uint256",
          "name": "purchaseTime",
          "type": "uint256"
        },
        {
          "indexed": false,
          "internalType": "uint256",
          "name": "endTime",
          "type": "uint256"
        }
      ],
      "name": "PolicyPurchased",
      "type": "event"
    },
    {
      "anonymous": false,
      "inputs": [
        {
          "indexed": true,
          "internalType": "uint256",
          "name": "policyId",
          "type": "uint256"
        },
        {
          "indexed": true,
          "internalType": "address",
          "name": "holder",
          "type": "address"
        },
        {
          "indexed": false,
          "internalType": "uint256",
          "name": "payoutAmount",
          "type": "uint256"
        },
        {
          "indexed": false,
          "internalType": "bool",
          "name": "payoutExecuted",
          "type": "bool"
        },
        {
          "indexed": false,
          "internalType": "uint8",
          "name": "oracleOutcome",
          "type": "uint8"
        },
        {
          "indexed": false,
          "internalType": "uint256",
          "name": "delayMinutes",
          "type": "uint256"
        }
      ],
      "name": "PolicyResolved",
      "type": "event"
    },
    {
      "anonymous": false,
      "inputs": [
        {
          "indexed": false,
          "internalType": "address",
          "name": "account",
          "type": "address"
        }
      ],
      "name": "Unpaused",
      "type": "event"
    },
    {
      "inputs": [],
      "name": "MAX_FLIGHT_NUMBER_LENGTH",
      "outputs": [
        {
          "internalType": "uint256",
          "name": "",
          "type": "uint256"
        }
      ],
      "stateMutability": "view",
      "type": "function"
    },
    {
      "inputs": [
        {
          "internalType": "string",
          "name": "flightNumber",
          "type": "string"
        },
        {
          "internalType": "uint256",
          "name": "departureTimestamp",
          "type": "uint256"
        },
        {
          "internalType": "uint8",
          "name": "policyType",
          "type": "uint8"
        },
        {
          "internalType": "uint256",
          "name": "coverageAmount",
          "type": "uint256"
        },
        {
          "internalType": "uint256",
          "name": "duration",
          "type": "uint256"
        },
        {
          "internalType": "uint256",
          "name": "delayThresholdMinutes",
          "type": "uint256"
        },
        {
          "internalType": "uint256",
          "name": "premium",
          "type": "uint256"
        }
      ],
      "name": "buyPolicy",
      "outputs": [],
      "stateMutability": "nonpayable",
      "type": "function"
    },
    {
      "inputs": [
        {
          "internalType": "uint256",
          "name": "policyId",
          "type": "uint256"
        }
      ],
      "name": "canRequestOracleCheck",
      "outputs": [
        {
          "internalType": "bool",
          "name": "",
          "type": "bool"
        }
      ],
      "stateMutability": "view",
      "type": "function"
    },
    {
      "inputs": [],
      "name": "demoOracleDelaySeconds",
      "outputs": [
        {
          "internalType": "uint256",
          "name": "",
          "type": "uint256"
        }
      ],
      "stateMutability": "view",
      "type": "function"
    },
    {
      "inputs": [],
      "name": "demoOracleMode",
      "outputs": [
        {
          "internalType": "bool",
          "name": "",
          "type": "bool"
        }
      ],
      "stateMutability": "view",
      "type": "function"
    },
    {
      "inputs": [
        {
          "internalType": "string",
          "name": "flightNumber",
          "type": "string"
        },
        {
          "internalType": "uint256",
          "name": "departureTimestamp",
          "type": "uint256"
        }
      ],
      "name": "getFlightKey",
      "outputs": [
        {
          "internalType": "bytes32",
          "name": "",
          "type": "bytes32"
        }
      ],
      "stateMutability": "pure",
      "type": "function"
    },
    {
      "inputs": [
        {
          "internalType": "uint256",
          "name": "policyId",
          "type": "uint256"
        }
      ],
      "name": "getOracleReadyTimestamp",
      "outputs": [
        {
          "internalType": "uint256",
          "name": "",
          "type": "uint256"
        }
      ],
      "stateMutability": "view",
      "type": "function"
    },
    {
      "inputs": [
        {
          "internalType": "uint256",
          "name": "policyId",
          "type": "uint256"
        }
      ],
      "name": "getPolicy",
      "outputs": [
        {
          "components": [
            {
              "internalType": "uint256",
              "name": "policyId",
              "type": "uint256"
            },
            {
              "internalType": "address",
              "name": "holder",
              "type": "address"
            },
            {
              "internalType": "string",
              "name": "flightNumber",
              "type": "string"
            },
            {
              "internalType": "uint256",
              "name": "purchaseTime",
              "type": "uint256"
            },
            {
              "internalType": "uint256",
              "name": "departureTimestamp",
              "type": "uint256"
            },
            {
              "internalType": "uint256",
              "name": "premium",
              "type": "uint256"
            },
            {
              "internalType": "uint256",
              "name": "coverageAmount",
              "type": "uint256"
            },
            {
              "internalType": "uint256",
              "name": "endTime",
              "type": "uint256"
            },
            {
              "internalType": "uint256",
              "name": "delayThresholdMinutes",
              "type": "uint256"
            },
            {
              "internalType": "enum PolicyManager.PolicyType",
              "name": "policyType",
              "type": "uint8"
            },
            {
              "internalType": "enum PolicyManager.PolicyStatus",
              "name": "status",
              "type": "uint8"
            }
          ],
          "internalType": "struct PolicyManager.Policy",
          "name": "",
          "type": "tuple"
        }
      ],
      "stateMutability": "view",
      "type": "function"
    },
    {
      "inputs": [
        {
          "internalType": "address",
          "name": "user",
          "type": "address"
        }
      ],
      "name": "getUserPolicies",
      "outputs": [
        {
          "internalType": "uint256[]",
          "name": "",
          "type": "uint256[]"
        }
      ],
      "stateMutability": "view",
      "type": "function"
    },
    {
      "inputs": [],
      "name": "insurancePool",
      "outputs": [
        {
          "internalType": "address",
          "name": "",
          "type": "address"
        }
      ],
      "stateMutability": "view",
      "type": "function"
    },
    {
      "inputs": [],
      "name": "nextPolicyId",
      "outputs": [
        {
          "internalType": "uint256",
          "name": "",
          "type": "uint256"
        }
      ],
      "stateMutability": "view",
      "type": "function"
    },
    {
      "inputs": [],
      "name": "oracleCoordinator",
      "outputs": [
        {
          "internalType": "address",
          "name": "",
          "type": "address"
        }
      ],
      "stateMutability": "view",
      "type": "function"
    },
    {
      "inputs": [],
      "name": "owner",
      "outputs": [
        {
          "internalType": "address",
          "name": "",
          "type": "address"
        }
      ],
      "stateMutability": "view",
      "type": "function"
    },
    {
      "inputs": [],
      "name": "pause",
      "outputs": [],
      "stateMutability": "nonpayable",
      "type": "function"
    },
    {
      "inputs": [],
      "name": "paused",
      "outputs": [
        {
          "internalType": "bool",
          "name": "",
          "type": "bool"
        }
      ],
      "stateMutability": "view",
      "type": "function"
    },
    {
      "inputs": [
        {
          "internalType": "uint256",
          "name": "",
          "type": "uint256"
        }
      ],
      "name": "policies",
      "outputs": [
        {
          "internalType": "uint256",
          "name": "policyId",
          "type": "uint256"
        },
        {
          "internalType": "address",
          "name": "holder",
          "type": "address"
        },
        {
          "internalType": "string",
          "name": "flightNumber",
          "type": "string"
        },
        {
          "internalType": "uint256",
          "name": "purchaseTime",
          "type": "uint256"
        },
        {
          "internalType": "uint256",
          "name": "departureTimestamp",
          "type": "uint256"
        },
        {
          "internalType": "uint256",
          "name": "premium",
          "type": "uint256"
        },
        {
          "internalType": "uint256",
          "name": "coverageAmount",
          "type": "uint256"
        },
        {
          "internalType": "uint256",
          "name": "endTime",
          "type": "uint256"
        },
        {
          "internalType": "uint256",
          "name": "delayThresholdMinutes",
          "type": "uint256"
        },
        {
          "internalType": "enum PolicyManager.PolicyType",
          "name": "policyType",
          "type": "uint8"
        },
        {
          "internalType": "enum PolicyManager.PolicyStatus",
          "name": "status",
          "type": "uint8"
        }
      ],
      "stateMutability": "view",
      "type": "function"
    },
    {
      "inputs": [],
      "name": "renounceOwnership",
      "outputs": [],
      "stateMutability": "nonpayable",
      "type": "function"
    },
    {
      "inputs": [
        {
          "internalType": "uint256",
          "name": "policyId",
          "type": "uint256"
        },
        {
          "internalType": "uint8",
          "name": "outcome",
          "type": "uint8"
        },
        {
          "internalType": "uint256",
          "name": "delayMinutes",
          "type": "uint256"
        }
      ],
      "name": "resolvePolicyFromOracle",
      "outputs": [
        {
          "internalType": "bool",
          "name": "payoutExecuted",
          "type": "bool"
        },
        {
          "internalType": "uint256",
          "name": "payoutAmount",
          "type": "uint256"
        }
      ],
      "stateMutability": "nonpayable",
      "type": "function"
    },
    {
      "inputs": [
        {
          "internalType": "address",
          "name": "_insurancePool",
          "type": "address"
        }
      ],
      "name": "setInsurancePool",
      "outputs": [],
      "stateMutability": "nonpayable",
      "type": "function"
    },
    {
      "inputs": [
        {
          "internalType": "address",
          "name": "_oracleCoordinator",
          "type": "address"
        }
      ],
      "name": "setOracleCoordinator",
      "outputs": [],
      "stateMutability": "nonpayable",
      "type": "function"
    },
    {
      "inputs": [
        {
          "internalType": "bool",
          "name": "_demoOracleMode",
          "type": "bool"
        },
        {
          "internalType": "uint256",
          "name": "_demoOracleDelaySeconds",
          "type": "uint256"
        }
      ],
      "name": "setOracleEvaluationConfig",
      "outputs": [],
      "stateMutability": "nonpayable",
      "type": "function"
    },
    {
      "inputs": [],
      "name": "stablecoin",
      "outputs": [
        {
          "internalType": "contract IERC20",
          "name": "",
          "type": "address"
        }
      ],
      "stateMutability": "view",
      "type": "function"
    },
    {
      "inputs": [
        {
          "internalType": "address",
          "name": "newOwner",
          "type": "address"
        }
      ],
      "name": "transferOwnership",
      "outputs": [],
      "stateMutability": "nonpayable",
      "type": "function"
    },
    {
      "inputs": [],
      "name": "unpause",
      "outputs": [],
      "stateMutability": "nonpayable",
      "type": "function"
    },
    {
      "inputs": [
        {
          "internalType": "address",
          "name": "",
          "type": "address"
        },
        {
          "internalType": "uint256",
          "name": "",
          "type": "uint256"
        }
      ],
      "name": "userPolicies",
      "outputs": [
        {
          "internalType": "uint256",
          "name": "",
          "type": "uint256"
        }
      ],
      "stateMutability": "view",
      "type": "function"
    }
  ],
  "transactionHash": "0xdad8534b8ca51062c1487291ab85b4d4896c6aa3872fdeb82a2ba9b0b667034f",
  "args": [
    "0xFA71294055CbAF8272269b3b875cBFFdCA382Bb6",
    "0xf33CF818B8188edf692780950f8f1902Fb32b16d",
    "0x29675C0F6593D9Fd290CC4f67ac0bFB324a853D5",
    "0x7ab4b089C35F0502d3b739a5A84c2DcfC3b3d990"
  ],
  "numDeployments": 3,
  "solcInputHash": "4a960cf091bdb10b94004a9a8fa20312",
  "bytecode": "0x60a0604052603c60035534801561001557600080fd5b5060405161263838038061263883398101604081905261003491610283565b806001600160a01b03811661006457604051631e4fbdf760e01b8152600060048201526024015b60405180910390fd5b61006d81610217565b5060017f9b779b17422d0df92223018b32b4d1fa46e071723d6817e2486d003becc55f00556001600160a01b0384166100e85760405162461bcd60e51b815260206004820152601a60248201527f496e76616c696420737461626c65636f696e2061646472657373000000000000604482015260640161005b565b6001600160a01b03831661013e5760405162461bcd60e51b815260206004820152601460248201527f496e76616c696420706f6f6c2061646472657373000000000000000000000000604482015260640161005b565b6001600160a01b0382166101945760405162461bcd60e51b815260206004820152601a60248201527f496e76616c6964206f7261636c6520636f6f7264696e61746f72000000000000604482015260640161005b565b6001600160a01b0381166101da5760405162461bcd60e51b815260206004820152600d60248201526c24b73b30b634b21037bbb732b960991b604482015260640161005b565b506001600160a01b03928316608052600180549284166001600160a01b0319938416178155600280549290941691909216179091556004556102d7565b600080546001600160a01b038381166001600160a01b0319831681178455604051919092169283917f8be0079c531659141344cd1fd0a4f28419497f9722a3daafe3b4186f6b6457e09190a35050565b80516001600160a01b038116811461027e57600080fd5b919050565b6000806000806080858703121561029957600080fd5b6102a285610267565b93506102b060208601610267565b92506102be60408601610267565b91506102cc60608601610267565b905092959194509250565b6080516123386103006000396000818161034b01528181610e140152610e4d01526123386000f3fe608060405234801561001057600080fd5b50600436106101735760003560e01c8063a94c487e116100de578063d3e8948311610097578063e80adc4d11610071578063e80adc4d14610333578063e9cbd82214610346578063f2fde38b1461036d578063f4e2af921461038057600080fd5b8063d3e89483146102ed578063dc45bb6e14610317578063dcccc8fa1461031f57600080fd5b8063a94c487e1461028f578063ab2adc00146102a2578063bff6e7fa146102b5578063cad0b8db146102c8578063cd112e24146102d1578063ce100dcc146102e457600080fd5b8063407726ac11610130578063407726ac146102125780635c975abb1461023d578063715018a61461025b57806375749c98146102635780638456cb59146102765780638da5cb5b1461027e57600080fd5b806319ac46141461017857806322d57ba6146101a15780632b07fce3146101c25780633ba75434146101e25780633d36adc5146101f75780633f4ba83a1461020a575b600080fd5b61018b610186366004611c89565b6103aa565b6040516101989190611ca4565b60405180910390f35b6101b46101af366004611ce7565b610416565b604051908152602001610198565b6101d56101d0366004611ce7565b6105e4565b6040516101989190611d8a565b6101f56101f0366004611e3f565b610766565b005b6101b4610205366004611e70565b610819565b6101f561084a565b600254610225906001600160a01b031681565b6040516001600160a01b039091168152602001610198565b600054600160a01b900460ff165b6040519015158152602001610198565b6101f561085c565b61024b610271366004611ce7565b61086e565b6101f5610a39565b6000546001600160a01b0316610225565b6101f561029d366004611c89565b610a49565b600154610225906001600160a01b031681565b6101f56102c3366004611c89565b610ae8565b6101b460045481565b6101f56102df366004611e9d565b610b90565b6101b460035481565b6103006102fb366004611ce7565b611128565b6040516101989b9a99989796959493929190611f4c565b6101b4601481565b60025461024b90600160a01b900460ff1681565b6101b4610341366004611fe0565b611215565b6102257f000000000000000000000000000000000000000000000000000000000000000081565b6101f561037b366004611c89565b611249565b61039361038e36600461209b565b611287565b604080519215158352602083019190915201610198565b6001600160a01b03811660009081526006602090815260409182902080548351818402810184019094528084526060939283018282801561040a57602002820191906000526020600020905b8154815260200190600101908083116103f6575b50505050509050919050565b60008181526005602090815260408083208151610160810183528154815260018201546001600160a01b0316938101939093526002810180548594938401919061045f906120d1565b80601f016020809104026020016040519081016040528092919081815260200182805461048b906120d1565b80156104d85780601f106104ad576101008083540402835291602001916104d8565b820191906000526020600020905b8154815290600101906020018083116104bb57829003601f168201915b505050918352505060038201546020820152600482015460408201526005820154606082015260068201546080820152600782015460a0820152600882015460c0820152600982015460e09091019060ff16600181111561053b5761053b611d50565b600181111561054c5761054c611d50565b81526020016009820160019054906101000a900460ff16600381111561057457610574611d50565b600381111561058557610585611d50565b90525080519091506000036105d45760405162461bcd60e51b815260206004820152601060248201526f141bdb1a58de481b9bdd08199bdd5b9960821b60448201526064015b60405180910390fd5b6105dd81611854565b9392505050565b6105ec611bfa565b6000828152600560209081526040918290208251610160810184528154815260018201546001600160a01b0316928101929092526002810180549293919291840191610637906120d1565b80601f0160208091040260200160405190810160405280929190818152602001828054610663906120d1565b80156106b05780601f10610685576101008083540402835291602001916106b0565b820191906000526020600020905b81548152906001019060200180831161069357829003601f168201915b505050918352505060038201546020820152600482015460408201526005820154606082015260068201546080820152600782015460a0820152600882015460c0820152600982015460e09091019060ff16600181111561071357610713611d50565b600181111561072457610724611d50565b81526020016009820160019054906101000a900460ff16600381111561074c5761074c611d50565b600381111561075d5761075d611d50565b90525092915050565b61076e611883565b81156107ba57600081116107ba5760405162461bcd60e51b815260206004820152601360248201527211195b5bc819195b185e481c995c5d5a5c9959606a1b60448201526064016105cb565b6002805460ff60a01b1916600160a01b84151590810291909117909155600382905560408051918252602082018390527f61e7a3b5a814a02b71a71b3054074fc573bc953dad31f31a1fcf435190e1f9d3910160405180910390a15050565b6006602052816000526040600020818154811061083557600080fd5b90600052602060002001600091509150505481565b610852611883565b61085a6118b0565b565b610864611883565b61085a6000611905565b60008181526005602090815260408083208151610160810183528154815260018201546001600160a01b031693810193909352600281018054859493840191906108b7906120d1565b80601f01602080910402602001604051908101604052809291908181526020018280546108e3906120d1565b80156109305780601f1061090557610100808354040283529160200191610930565b820191906000526020600020905b81548152906001019060200180831161091357829003601f168201915b505050918352505060038201546020820152600482015460408201526005820154606082015260068201546080820152600782015460a0820152600882015460c0820152600982015460e09091019060ff16600181111561099357610993611d50565b60018111156109a4576109a4611d50565b81526020016009820160019054906101000a900460ff1660038111156109cc576109cc611d50565b60038111156109dd576109dd611d50565b9052506002549091506001600160a01b0316158015906109fd5750805115155b8015610a1f575060008161014001516003811115610a1d57610a1d611d50565b145b80156105dd5750610a2f81611854565b4210159392505050565b610a41611883565b61085a611955565b610a51611883565b6001600160a01b038116610a9e5760405162461bcd60e51b8152602060048201526014602482015273496e76616c696420706f6f6c206164647265737360601b60448201526064016105cb565b600180546001600160a01b0319166001600160a01b0383169081179091556040517fe9c1e3beb9c8e189902322f6d6860eb1f59417b2bd7813d91132e3a3d8075ac490600090a250565b610af0611883565b6001600160a01b038116610b465760405162461bcd60e51b815260206004820152601a60248201527f496e76616c6964206f7261636c6520636f6f7264696e61746f7200000000000060448201526064016105cb565b600280546001600160a01b0319166001600160a01b0383169081179091556040517f2ec89eb4a661480d151d6b48d64c2bbf2fe0891a1af1a553126da3627baa1c3490600090a250565b610b98611998565b610ba06119b4565b86610be65760405162461bcd60e51b8152602060048201526016602482015275119b1a59da1d081b9d5b58995c881c995c5d5a5c995960521b60448201526064016105cb565b6014871115610c305760405162461bcd60e51b8152602060048201526016602482015275466c69676874206e756d62657220746f6f206c6f6e6760501b60448201526064016105cb565b428611610c7f5760405162461bcd60e51b815260206004820152601b60248201527f446570617274757265206d75737420626520696e20667574757265000000000060448201526064016105cb565b600160ff86161115610cc95760405162461bcd60e51b8152602060048201526013602482015272496e76616c696420706f6c696379207479706560681b60448201526064016105cb565b60008411610d105760405162461bcd60e51b81526020600482015260146024820152730436f766572616765206d757374206265203e20360641b60448201526064016105cb565b60008311610d575760405162461bcd60e51b815260206004820152601460248201527304475726174696f6e206d757374206265203e20360641b60448201526064016105cb565b60ff8516610daf5760008211610daf5760405162461bcd60e51b815260206004820152601860248201527f44656c6179207468726573686f6c64207265717569726564000000000000000060448201526064016105cb565b60008111610df55760405162461bcd60e51b815260206004820152601360248201527205072656d69756d206d757374206265203e203606c1b60448201526064016105cb565b600454426000610e05868a612121565b9050610e3c6001600160a01b037f0000000000000000000000000000000000000000000000000000000000000000163330876119df565b600154610e76906001600160a01b037f00000000000000000000000000000000000000000000000000000000000000008116911686611a1b565b60015460405163d5a867b760e01b8152336004820152602481018690526001600160a01b039091169063d5a867b790604401600060405180830381600087803b158015610ec257600080fd5b505af1158015610ed6573d6000803e3d6000fd5b50505050604051806101600160405280848152602001336001600160a01b031681526020018c8c8080601f01602080910402602001604051908101604052809392919081815260200183838082843760009201919091525050509082525060208101849052604081018b9052606081018690526080810189905260a0810183905260c0810187905260e00160ff8a166001811115610f7657610f76611d50565b6001811115610f8757610f87611d50565b81526020016000905260008481526005602090815260409182902083518155908301516001820180546001600160a01b0319166001600160a01b03909216919091179055908201516002820190610fde9082612182565b50606082015160038201556080820151600482015560a0820151600582015560c0820151600682015560e08201516007820155610100820151600882015561012082015160098201805460ff19166001838181111561103f5761103f611d50565b021790555061014082015160098201805461ff00191661010083600381111561106a5761106a611d50565b0217905550503360009081526006602090815260408220805460018101825590835290822001859055600480549250906110a383612241565b90915550339050837f25d058c1df72d2e828b3e09d843bdbec027e300c78100340ad4084b761fc0f168d8d8d60ff8e1660018111156110e4576110e4611d50565b8a8e8a8a6040516110fc98979695949392919061225a565b60405180910390a350505061111e60016000805160206122e383398151915255565b5050505050505050565b60056020526000908152604090208054600182015460028301805492936001600160a01b039092169261115a906120d1565b80601f0160208091040260200160405190810160405280929190818152602001828054611186906120d1565b80156111d35780601f106111a8576101008083540402835291602001916111d3565b820191906000526020600020905b8154815290600101906020018083116111b657829003601f168201915b50505050600383015460048401546005850154600686015460078701546008880154600990980154969794969395509193909260ff808216916101009004168b565b6000828260405160200161122a9291906122c0565b6040516020818303038152906040528051906020012090505b92915050565b611251611883565b6001600160a01b03811661127b57604051631e4fbdf760e01b8152600060048201526024016105cb565b61128481611905565b50565b600080611292611998565b61129a6119b4565b6002546001600160a01b031633146112ed5760405162461bcd60e51b81526020600482015260166024820152752737ba1037b930b1b6329031b7b7b93234b730ba37b960511b60448201526064016105cb565b6000858152600560205260408120805490910361133f5760405162461bcd60e51b815260206004820152601060248201526f141bdb1a58de481b9bdd08199bdd5b9960821b60448201526064016105cb565b60006009820154610100900460ff16600381111561135f5761135f611d50565b146113a05760405162461bcd60e51b8152602060048201526011602482015270506f6c696379206e6f742061637469766560781b60448201526064016105cb565b60408051610160810182528254815260018301546001600160a01b03166020820152600283018054611509938592908401916113db906120d1565b80601f0160208091040260200160405190810160405280929190818152602001828054611407906120d1565b80156114545780601f1061142957610100808354040283529160200191611454565b820191906000526020600020905b81548152906001019060200180831161143757829003601f168201915b505050918352505060038201546020820152600482015460408201526005820154606082015260068201546080820152600782015460a0820152600882015460c0820152600982015460e09091019060ff1660018111156114b7576114b7611d50565b60018111156114c8576114c8611d50565b81526020016009820160019054906101000a900460ff1660038111156114f0576114f0611d50565b600381111561150157611501611d50565b905250611854565b4210156115515760405162461bcd60e51b81526020600482015260166024820152754f7261636c6520636865636b206e6f7420726561647960501b60448201526064016105cb565b60408051610160810182528254815260018301546001600160a01b031660208201526002830180546000936116c09392869291840191611590906120d1565b80601f01602080910402602001604051908101604052809291908181526020018280546115bc906120d1565b80156116095780601f106115de57610100808354040283529160200191611609565b820191906000526020600020905b8154815290600101906020018083116115ec57829003601f168201915b505050918352505060038201546020820152600482015460408201526005820154606082015260068201546080820152600782015460a0820152600882015460c0820152600982015460e09091019060ff16600181111561166c5761166c611d50565b600181111561167d5761167d611d50565b81526020016009820160019054906101000a900460ff1660038111156116a5576116a5611d50565b60038111156116b6576116b6611d50565b9052508787611a55565b9050806117435760098201805461ff0019166101001790556001820154604080516000808252602082015260ff8916818301526060810188905290516001600160a01b039092169189917f2e0201d05a6aa01892f5cc5fbd92778cb18eeaf88ef08660cb3dc86cdc0102cf919081900360800190a3600080935093505050611835565b60098201805461030061ff00199091161790556001805490830154600684015460405163011081c560e11b81526001600160a01b0392831660048201526024810191909152911690630221038a90604401600060405180830381600087803b1580156117ae57600080fd5b505af11580156117c2573d6000803e3d6000fd5b50505050600182810154600684015460408051918252602082019390935260ff8916818401526060810188905291516001600160a01b039091169189917f2e0201d05a6aa01892f5cc5fbd92778cb18eeaf88ef08660cb3dc86cdc0102cf9181900360800190a350600601546001925090505b61184c60016000805160206122e383398151915255565b935093915050565b600254600090600160a01b900460ff161561187b5760035482606001516112439190612121565b506080015190565b6000546001600160a01b0316331461085a5760405163118cdaa760e01b81523360048201526024016105cb565b6118b8611ac8565b6000805460ff60a01b191690557f5db9ee0a495bf2e6ff9c91a7834c1ba4fdd244a5e8aa4e537bd38aeae4b073aa335b6040516001600160a01b03909116815260200160405180910390a1565b600080546001600160a01b038381166001600160a01b0319831681178455604051919092169283917f8be0079c531659141344cd1fd0a4f28419497f9722a3daafe3b4186f6b6457e09190a35050565b61195d6119b4565b6000805460ff60a01b1916600160a01b1790557f62e78cea01bee320cd4e420270b5ea74000d11b0c9f74754ebdbfc544b05a2586118e83390565b6119a0611af2565b60026000805160206122e383398151915255565b600054600160a01b900460ff161561085a5760405163d93c066560e01b815260040160405180910390fd5b6119ed848484846001611b22565b611a1557604051635274afe760e01b81526001600160a01b03851660048201526024016105cb565b50505050565b611a288383836001611b94565b611a5057604051635274afe760e01b81526001600160a01b03841660048201526024016105cb565b505050565b6000808461012001516001811115611a6f57611a6f611d50565b03611a93578260ff166002148015611a8c57508361010001518210155b90506105dd565b60018461012001516001811115611aac57611aac611d50565b03611abe5750600360ff8316146105dd565b5060009392505050565b600054600160a01b900460ff1661085a57604051638dfc202b60e01b815260040160405180910390fd5b6000805160206122e38339815191525460020361085a57604051633ee5aeb560e01b815260040160405180910390fd5b6040516323b872dd60e01b60008181526001600160a01b038781166004528616602452604485905291602083606481808c5af192506001600051148316611b82578383151615611b75573d6000823e3d81fd5b6000883b113d1516831692505b60405250600060605295945050505050565b60405163a9059cbb60e01b60008181526001600160a01b038616600452602485905291602083604481808b5af192506001600051148316611bee578383151615611be1573d6000823e3d81fd5b6000873b113d1516831692505b60405250949350505050565b6040518061016001604052806000815260200160006001600160a01b031681526020016060815260200160008152602001600081526020016000815260200160008152602001600081526020016000815260200160006001811115611c6157611c61611d50565b81526020016000905290565b80356001600160a01b0381168114611c8457600080fd5b919050565b600060208284031215611c9b57600080fd5b6105dd82611c6d565b602080825282518282018190526000918401906040840190835b81811015611cdc578351835260209384019390920191600101611cbe565b509095945050505050565b600060208284031215611cf957600080fd5b5035919050565b60005b83811015611d1b578181015183820152602001611d03565b50506000910152565b60008151808452611d3c816020860160208601611d00565b601f01601f19169290920160200192915050565b634e487b7160e01b600052602160045260246000fd5b60028110611d7657611d76611d50565b9052565b60048110611d7657611d76611d50565b602081528151602082015260006020830151611db160408401826001600160a01b03169052565b5060408301516101606060840152611dcd610180840182611d24565b905060608401516080840152608084015160a084015260a084015160c084015260c084015160e084015260e0840151610100840152610100840151610120840152610120840151611e22610140850182611d66565b50610140840151611e37610160850182611d7a565b509392505050565b60008060408385031215611e5257600080fd5b82358015158114611e6257600080fd5b946020939093013593505050565b60008060408385031215611e8357600080fd5b611e6283611c6d565b803560ff81168114611c8457600080fd5b60008060008060008060008060e0898b031215611eb957600080fd5b883567ffffffffffffffff811115611ed057600080fd5b8901601f81018b13611ee157600080fd5b803567ffffffffffffffff811115611ef857600080fd5b8b6020828401011115611f0a57600080fd5b6020918201995097508901359550611f2460408a01611e8c565b979a96995094976060810135966080820135965060a0820135955060c0909101359350915050565b8b81526001600160a01b038b16602082015261016060408201819052600090611f779083018c611d24565b90508960608301528860808301528760a08301528660c08301528560e083015284610100830152611fac610120830185611d66565b611fba610140830184611d7a565b9c9b505050505050505050505050565b634e487b7160e01b600052604160045260246000fd5b60008060408385031215611ff357600080fd5b823567ffffffffffffffff81111561200a57600080fd5b8301601f8101851361201b57600080fd5b803567ffffffffffffffff81111561203557612035611fca565b604051601f8201601f19908116603f0116810167ffffffffffffffff8111828210171561206457612064611fca565b60405281815282820160200187101561207c57600080fd5b8160208401602083013760006020928201830152969401359450505050565b6000806000606084860312156120b057600080fd5b833592506120c060208501611e8c565b929592945050506040919091013590565b600181811c908216806120e557607f821691505b60208210810361210557634e487b7160e01b600052602260045260246000fd5b50919050565b634e487b7160e01b600052601160045260246000fd5b808201808211156112435761124361210b565b601f821115611a5057806000526020600020601f840160051c8101602085101561215b5750805b601f840160051c820191505b8181101561217b5760008155600101612167565b5050505050565b815167ffffffffffffffff81111561219c5761219c611fca565b6121b0816121aa84546120d1565b84612134565b6020601f8211600181146121e457600083156121cc5750848201515b600019600385901b1c1916600184901b17845561217b565b600084815260208120601f198516915b8281101561221457878501518255602094850194600190920191016121f4565b50848210156122325786840151600019600387901b60f8161c191681555b50505050600190811b01905550565b6000600182016122535761225361210b565b5060010190565b60e081528760e08201528789610100830137600061010089830101526000610100601f19601f8b0116830101905087602083015261229b6040830188611d66565b8560608301528460808301528360a08301528260c08301529998505050505050505050565b600083516122d2818460208801611d00565b919091019182525060200191905056fe9b779b17422d0df92223018b32b4d1fa46e071723d6817e2486d003becc55f00a2646970667358221220d5b7253257b9e0555a798e96233b0fbb4244709c0ec7b948200622b3f9b5341564736f6c634300081e0033",
  "devdoc": {
    "errors": {
      "EnforcedPause()": [
        {
          "details": "The operation failed because the contract is paused."
        }
      ],
      "ExpectedPause()": [
        {
          "details": "The operation failed because the contract is not paused."
        }
      ],
      "OwnableInvalidOwner(address)": [
        {
          "details": "The owner is not a valid owner account. (eg. `address(0)`)"
        }
      ],
      "OwnableUnauthorizedAccount(address)": [
        {
          "details": "The caller account is not authorized to perform an operation."
        }
      ],
      "ReentrancyGuardReentrantCall()": [
        {
          "details": "Unauthorized reentrant call."
        }
      ],
      "SafeERC20FailedOperation(address)": [
        {
          "details": "An operation with an ERC-20 token failed."
        }
      ]
    },
    "events": {
      "Paused(address)": {
        "details": "Emitted when the pause is triggered by `account`."
      },
      "Unpaused(address)": {
        "details": "Emitted when the pause is lifted by `account`."
      }
    },
    "kind": "dev",
    "methods": {
      "owner()": {
        "details": "Returns the address of the current owner."
      },
      "paused()": {
        "details": "Returns true if the contract is paused, and false otherwise."
      },
      "renounceOwnership()": {
        "details": "Leaves the contract without owner. It will not be possible to call `onlyOwner` functions. Can only be called by the current owner. NOTE: Renouncing ownership will leave the contract without an owner, thereby disabling any functionality that is only available to the owner."
      },
      "transferOwnership(address)": {
        "details": "Transfers ownership of the contract to a new account (`newOwner`). Can only be called by the current owner."
      }
    },
    "version": 1
  },
  "userdoc": {
    "kind": "user",
    "methods": {},
    "version": 1
  },
  "storageLayout": {
    "storage": [
      {
        "astId": 8,
        "contract": "contracts/PolicyManager.sol:PolicyManager",
        "label": "_owner",
        "offset": 0,
        "slot": "0",
        "type": "t_address"
      },
      {
        "astId": 809,
        "contract": "contracts/PolicyManager.sol:PolicyManager",
        "label": "_paused",
        "offset": 20,
        "slot": "0",
        "type": "t_bool"
      },
      {
        "astId": 1942,
        "contract": "contracts/PolicyManager.sol:PolicyManager",
        "label": "insurancePool",
        "offset": 0,
        "slot": "1",
        "type": "t_address"
      },
      {
        "astId": 1944,
        "contract": "contracts/PolicyManager.sol:PolicyManager",
        "label": "oracleCoordinator",
        "offset": 0,
        "slot": "2",
        "type": "t_address"
      },
      {
        "astId": 1946,
        "contract": "contracts/PolicyManager.sol:PolicyManager",
        "label": "demoOracleMode",
        "offset": 20,
        "slot": "2",
        "type": "t_bool"
      },
      {
        "astId": 1949,
        "contract": "contracts/PolicyManager.sol:PolicyManager",
        "label": "demoOracleDelaySeconds",
        "offset": 0,
        "slot": "3",
        "type": "t_uint256"
      },
      {
        "astId": 1951,
        "contract": "contracts/PolicyManager.sol:PolicyManager",
        "label": "nextPolicyId",
        "offset": 0,
        "slot": "4",
        "type": "t_uint256"
      },
      {
        "astId": 1992,
        "contract": "contracts/PolicyManager.sol:PolicyManager",
        "label": "policies",
        "offset": 0,
        "slot": "5",
        "type": "t_mapping(t_uint256,t_struct(Policy)1987_storage)"
      },
      {
        "astId": 1997,
        "contract": "contracts/PolicyManager.sol:PolicyManager",
        "label": "userPolicies",
        "offset": 0,
        "slot": "6",
        "type": "t_mapping(t_address,t_array(t_uint256)dyn_storage)"
      }
    ],
    "types": {
      "t_address": {
        "encoding": "inplace",
        "label": "address",
        "numberOfBytes": "20"
      },
      "t_array(t_uint256)dyn_storage": {
        "base": "t_uint256",
        "encoding": "dynamic_array",
        "label": "uint256[]",
        "numberOfBytes": "32"
      },
      "t_bool": {
        "encoding": "inplace",
        "label": "bool",
        "numberOfBytes": "1"
      },
      "t_enum(PolicyStatus)1962": {
        "encoding": "inplace",
        "label": "enum PolicyManager.PolicyStatus",
        "numberOfBytes": "1"
      },
      "t_enum(PolicyType)1957": {
        "encoding": "inplace",
        "label": "enum PolicyManager.PolicyType",
        "numberOfBytes": "1"
      },
      "t_mapping(t_address,t_array(t_uint256)dyn_storage)": {
        "encoding": "mapping",
        "key": "t_address",
        "label": "mapping(address => uint256[])",
        "numberOfBytes": "32",
        "value": "t_array(t_uint256)dyn_storage"
      },
      "t_mapping(t_uint256,t_struct(Policy)1987_storage)": {
        "encoding": "mapping",
        "key": "t_uint256",
        "label": "mapping(uint256 => struct PolicyManager.Policy)",
        "numberOfBytes": "32",
        "value": "t_struct(Policy)1987_storage"
      },
      "t_string_storage": {
        "encoding": "bytes",
        "label": "string",
        "numberOfBytes": "32"
      },
      "t_struct(Policy)1987_storage": {
        "encoding": "inplace",
        "label": "struct PolicyManager.Policy",
        "members": [
          {
            "astId": 1964,
            "contract": "contracts/PolicyManager.sol:PolicyManager",
            "label": "policyId",
            "offset": 0,
            "slot": "0",
            "type": "t_uint256"
          },
          {
            "astId": 1966,
            "contract": "contracts/PolicyManager.sol:PolicyManager",
            "label": "holder",
            "offset": 0,
            "slot": "1",
            "type": "t_address"
          },
          {
            "astId": 1968,
            "contract": "contracts/PolicyManager.sol:PolicyManager",
            "label": "flightNumber",
            "offset": 0,
            "slot": "2",
            "type": "t_string_storage"
          },
          {
            "astId": 1970,
            "contract": "contracts/PolicyManager.sol:PolicyManager",
            "label": "purchaseTime",
            "offset": 0,
            "slot": "3",
            "type": "t_uint256"
          },
          {
            "astId": 1972,
            "contract": "contracts/PolicyManager.sol:PolicyManager",
            "label": "departureTimestamp",
            "offset": 0,
            "slot": "4",
            "type": "t_uint256"
          },
          {
            "astId": 1974,
            "contract": "contracts/PolicyManager.sol:PolicyManager",
            "label": "premium",
            "offset": 0,
            "slot": "5",
            "type": "t_uint256"
          },
          {
            "astId": 1976,
            "contract": "contracts/PolicyManager.sol:PolicyManager",
            "label": "coverageAmount",
            "offset": 0,
            "slot": "6",
            "type": "t_uint256"
          },
          {
            "astId": 1978,
            "contract": "contracts/PolicyManager.sol:PolicyManager",
            "label": "endTime",
            "offset": 0,
            "slot": "7",
            "type": "t_uint256"
          },
          {
            "astId": 1980,
            "contract": "contracts/PolicyManager.sol:PolicyManager",
            "label": "delayThresholdMinutes",
            "offset": 0,
            "slot": "8",
            "type": "t_uint256"
          },
          {
            "astId": 1983,
            "contract": "contracts/PolicyManager.sol:PolicyManager",
            "label": "policyType",
            "offset": 0,
            "slot": "9",
            "type": "t_enum(PolicyType)1957"
          },
          {
            "astId": 1986,
            "contract": "contracts/PolicyManager.sol:PolicyManager",
            "label": "status",
            "offset": 1,
            "slot": "9",
            "type": "t_enum(PolicyStatus)1962"
          }
        ],
        "numberOfBytes": "320"
      },
      "t_uint256": {
        "encoding": "inplace",
        "label": "uint256",
        "numberOfBytes": "32"
      }
    }
  }
}