{
  "address": "0xFF227f485BB9A7A8752F359bB61CfFDeAc57b7F6",
  "abi": [
    {
      "inputs": [
        {
          "internalType": "address",
          "name": "_stablecoin",
          "type": "address"
        },
        {
          "internalType": "address",
          "name": "_insurancePool",
          "type": "address"
        },
        {
          "internalType": "address",
          "name": "_oracleCoordinator",
          "type": "address"
        },
        {
          "internalType": "address",
          "name": "initialOwner",
          "type": "address"
        }
      ],
      "stateMutability": "nonpayable",
      "type": "constructor"
    },
    {
      "inputs": [],
      "name": "EnforcedPause",
      "type": "error"
    },
    {
      "inputs": [],
      "name": "ExpectedPause",
      "type": "error"
    },
    {
      "inputs": [
        {
          "internalType": "address",
          "name": "owner",
          "type": "address"
        }
      ],
      "name": "OwnableInvalidOwner",
      "type": "error"
    },
    {
      "inputs": [
        {
          "internalType": "address",
          "name": "account",
          "type": "address"
        }
      ],
      "name": "OwnableUnauthorizedAccount",
      "type": "error"
    },
    {
      "inputs": [],
      "name": "ReentrancyGuardReentrantCall",
      "type": "error"
    },
    {
      "inputs": [
        {
          "internalType": "address",
          "name": "token",
          "type": "address"
        }
      ],
      "name": "SafeERC20FailedOperation",
      "type": "error"
    },
    {
      "anonymous": false,
      "inputs": [
        {
          "indexed": true,
          "internalType": "address",
          "name": "newPool",
          "type": "address"
        }
      ],
      "name": "InsurancePoolUpdated",
      "type": "event"
    },
    {
      "anonymous": false,
      "inputs": [
        {
          "indexed": true,
          "internalType": "address",
          "name": "newCoordinator",
          "type": "address"
        }
      ],
      "name": "OracleCoordinatorUpdated",
      "type": "event"
    },
    {
      "anonymous": false,
      "inputs": [
        {
          "indexed": false,
          "internalType": "bool",
          "name": "demoOracleMode",
          "type": "bool"
        },
        {
          "indexed": false,
          "internalType": "uint256",
          "name": "demoOracleDelaySeconds",
          "type": "uint256"
        }
      ],
      "name": "OracleEvaluationConfigUpdated",
      "type": "event"
    },
    {
      "anonymous": false,
      "inputs": [
        {
          "indexed": true,
          "internalType": "address",
          "name": "previousOwner",
          "type": "address"
        },
        {
          "indexed": true,
          "internalType": "address",
          "name": "newOwner",
          "type": "address"
        }
      ],
      "name": "OwnershipTransferred",
      "type": "event"
    },
    {
      "anonymous": false,
      "inputs": [
        {
          "indexed": false,
          "internalType": "address",
          "name": "account",
          "type": "address"
        }
      ],
      "name": "Paused",
      "type": "event"
    },
    {
      "anonymous": false,
      "inputs": [
        {
          "indexed": true,
          "internalType": "uint256",
          "name": "policyId",
          "type": "uint256"
        },
        {
          "indexed": true,
          "internalType": "address",
          "name": "holder",
          "type": "address"
        },
        {
          "indexed": false,
          "internalType": "string",
          "name": "flightNumber",
          "type": "string"
        },
        {
          "indexed": false,
          "internalType": "uint256",
          "name": "departureTimestamp",
          "type": "uint256"
        },
        {
          "indexed": false,
          "internalType": "enum PolicyManager.PolicyType",
          "name": "policyType",
          "type": "uint8"
        },
        {
          "indexed": false,
          "internalType": "uint256",
          "name": "premium",
          "type": "uint256"
        },
        {
          "indexed": false,
          "internalType": "uint256",
          "name": "coverageAmount",
          "type": "uint256"
        },
        {
          "indexed": false,
          "internalType": "uint256",
          "name": "purchaseTime",
          "type": "uint256"
        },
        {
          "indexed": false,
          "internalType": "uint256",
          "name": "endTime",
          "type": "uint256"
        }
      ],
      "name": "PolicyPurchased",
      "type": "event"
    },
    {
      "anonymous": false,
      "inputs": [
        {
          "indexed": true,
          "internalType": "uint256",
          "name": "policyId",
          "type": "uint256"
        },
        {
          "indexed": true,
          "internalType": "address",
          "name": "holder",
          "type": "address"
        },
        {
          "indexed": false,
          "internalType": "uint256",
          "name": "payoutAmount",
          "type": "uint256"
        },
        {
          "indexed": false,
          "internalType": "bool",
          "name": "payoutExecuted",
          "type": "bool"
        },
        {
          "indexed": false,
          "internalType": "uint8",
          "name": "oracleOutcome",
          "type": "uint8"
        },
        {
          "indexed": false,
          "internalType": "uint256",
          "name": "delayMinutes",
          "type": "uint256"
        }
      ],
      "name": "PolicyResolved",
      "type": "event"
    },
    {
      "anonymous": false,
      "inputs": [
        {
          "indexed": false,
          "internalType": "address",
          "name": "account",
          "type": "address"
        }
      ],
      "name": "Unpaused",
      "type": "event"
    },
    {
      "inputs": [],
      "name": "MAX_FLIGHT_NUMBER_LENGTH",
      "outputs": [
        {
          "internalType": "uint256",
          "name": "",
          "type": "uint256"
        }
      ],
      "stateMutability": "view",
      "type": "function"
    },
    {
      "inputs": [
        {
          "internalType": "string",
          "name": "flightNumber",
          "type": "string"
        },
        {
          "internalType": "uint256",
          "name": "departureTimestamp",
          "type": "uint256"
        },
        {
          "internalType": "uint8",
          "name": "policyType",
          "type": "uint8"
        },
        {
          "internalType": "uint256",
          "name": "coverageAmount",
          "type": "uint256"
        },
        {
          "internalType": "uint256",
          "name": "duration",
          "type": "uint256"
        },
        {
          "internalType": "uint256",
          "name": "delayThresholdMinutes",
          "type": "uint256"
        },
        {
          "internalType": "uint256",
          "name": "premium",
          "type": "uint256"
        }
      ],
      "name": "buyPolicy",
      "outputs": [],
      "stateMutability": "nonpayable",
      "type": "function"
    },
    {
      "inputs": [
        {
          "internalType": "uint256",
          "name": "policyId",
          "type": "uint256"
        }
      ],
      "name": "canRequestOracleCheck",
      "outputs": [
        {
          "internalType": "bool",
          "name": "",
          "type": "bool"
        }
      ],
      "stateMutability": "view",
      "type": "function"
    },
    {
      "inputs": [],
      "name": "demoOracleDelaySeconds",
      "outputs": [
        {
          "internalType": "uint256",
          "name": "",
          "type": "uint256"
        }
      ],
      "stateMutability": "view",
      "type": "function"
    },
    {
      "inputs": [],
      "name": "demoOracleMode",
      "outputs": [
        {
          "internalType": "bool",
          "name": "",
          "type": "bool"
        }
      ],
      "stateMutability": "view",
      "type": "function"
    },
    {
      "inputs": [
        {
          "internalType": "string",
          "name": "flightNumber",
          "type": "string"
        },
        {
          "internalType": "uint256",
          "name": "departureTimestamp",
          "type": "uint256"
        }
      ],
      "name": "getFlightKey",
      "outputs": [
        {
          "internalType": "bytes32",
          "name": "",
          "type": "bytes32"
        }
      ],
      "stateMutability": "pure",
      "type": "function"
    },
    {
      "inputs": [
        {
          "internalType": "uint256",
          "name": "policyId",
          "type": "uint256"
        }
      ],
      "name": "getOracleReadyTimestamp",
      "outputs": [
        {
          "internalType": "uint256",
          "name": "",
          "type": "uint256"
        }
      ],
      "stateMutability": "view",
      "type": "function"
    },
    {
      "inputs": [
        {
          "internalType": "uint256",
          "name": "policyId",
          "type": "uint256"
        }
      ],
      "name": "getPolicy",
      "outputs": [
        {
          "components": [
            {
              "internalType": "uint256",
              "name": "policyId",
              "type": "uint256"
            },
            {
              "internalType": "address",
              "name": "holder",
              "type": "address"
            },
            {
              "internalType": "string",
              "name": "flightNumber",
              "type": "string"
            },
            {
              "internalType": "uint256",
              "name": "purchaseTime",
              "type": "uint256"
            },
            {
              "internalType": "uint256",
              "name": "departureTimestamp",
              "type": "uint256"
            },
            {
              "internalType": "uint256",
              "name": "premium",
              "type": "uint256"
            },
            {
              "internalType": "uint256",
              "name": "coverageAmount",
              "type": "uint256"
            },
            {
              "internalType": "uint256",
              "name": "endTime",
              "type": "uint256"
            },
            {
              "internalType": "uint256",
              "name": "delayThresholdMinutes",
              "type": "uint256"
            },
            {
              "internalType": "enum PolicyManager.PolicyType",
              "name": "policyType",
              "type": "uint8"
            },
            {
              "internalType": "enum PolicyManager.PolicyStatus",
              "name": "status",
              "type": "uint8"
            }
          ],
          "internalType": "struct PolicyManager.Policy",
          "name": "",
          "type": "tuple"
        }
      ],
      "stateMutability": "view",
      "type": "function"
    },
    {
      "inputs": [
        {
          "internalType": "address",
          "name": "user",
          "type": "address"
        }
      ],
      "name": "getUserPolicies",
      "outputs": [
        {
          "internalType": "uint256[]",
          "name": "",
          "type": "uint256[]"
        }
      ],
      "stateMutability": "view",
      "type": "function"
    },
    {
      "inputs": [],
      "name": "insurancePool",
      "outputs": [
        {
          "internalType": "address",
          "name": "",
          "type": "address"
        }
      ],
      "stateMutability": "view",
      "type": "function"
    },
    {
      "inputs": [],
      "name": "nextPolicyId",
      "outputs": [
        {
          "internalType": "uint256",
          "name": "",
          "type": "uint256"
        }
      ],
      "stateMutability": "view",
      "type": "function"
    },
    {
      "inputs": [],
      "name": "oracleCoordinator",
      "outputs": [
        {
          "internalType": "address",
          "name": "",
          "type": "address"
        }
      ],
      "stateMutability": "view",
      "type": "function"
    },
    {
      "inputs": [],
      "name": "owner",
      "outputs": [
        {
          "internalType": "address",
          "name": "",
          "type": "address"
        }
      ],
      "stateMutability": "view",
      "type": "function"
    },
    {
      "inputs": [],
      "name": "pause",
      "outputs": [],
      "stateMutability": "nonpayable",
      "type": "function"
    },
    {
      "inputs": [],
      "name": "paused",
      "outputs": [
        {
          "internalType": "bool",
          "name": "",
          "type": "bool"
        }
      ],
      "stateMutability": "view",
      "type": "function"
    },
    {
      "inputs": [
        {
          "internalType": "uint256",
          "name": "",
          "type": "uint256"
        }
      ],
      "name": "policies",
      "outputs": [
        {
          "internalType": "uint256",
          "name": "policyId",
          "type": "uint256"
        },
        {
          "internalType": "address",
          "name": "holder",
          "type": "address"
        },
        {
          "internalType": "string",
          "name": "flightNumber",
          "type": "string"
        },
        {
          "internalType": "uint256",
          "name": "purchaseTime",
          "type": "uint256"
        },
        {
          "internalType": "uint256",
          "name": "departureTimestamp",
          "type": "uint256"
        },
        {
          "internalType": "uint256",
          "name": "premium",
          "type": "uint256"
        },
        {
          "internalType": "uint256",
          "name": "coverageAmount",
          "type": "uint256"
        },
        {
          "internalType": "uint256",
          "name": "endTime",
          "type": "uint256"
        },
        {
          "internalType": "uint256",
          "name": "delayThresholdMinutes",
          "type": "uint256"
        },
        {
          "internalType": "enum PolicyManager.PolicyType",
          "name": "policyType",
          "type": "uint8"
        },
        {
          "internalType": "enum PolicyManager.PolicyStatus",
          "name": "status",
          "type": "uint8"
        }
      ],
      "stateMutability": "view",
      "type": "function"
    },
    {
      "inputs": [],
      "name": "renounceOwnership",
      "outputs": [],
      "stateMutability": "nonpayable",
      "type": "function"
    },
    {
      "inputs": [
        {
          "internalType": "uint256",
          "name": "policyId",
          "type": "uint256"
        },
        {
          "internalType": "uint8",
          "name": "outcome",
          "type": "uint8"
        },
        {
          "internalType": "uint256",
          "name": "delayMinutes",
          "type": "uint256"
        }
      ],
      "name": "resolvePolicyFromOracle",
      "outputs": [
        {
          "internalType": "bool",
          "name": "payoutExecuted",
          "type": "bool"
        },
        {
          "internalType": "uint256",
          "name": "payoutAmount",
          "type": "uint256"
        }
      ],
      "stateMutability": "nonpayable",
      "type": "function"
    },
    {
      "inputs": [
        {
          "internalType": "address",
          "name": "_insurancePool",
          "type": "address"
        }
      ],
      "name": "setInsurancePool",
      "outputs": [],
      "stateMutability": "nonpayable",
      "type": "function"
    },
    {
      "inputs": [
        {
          "internalType": "address",
          "name": "_oracleCoordinator",
          "type": "address"
        }
      ],
      "name": "setOracleCoordinator",
      "outputs": [],
      "stateMutability": "nonpayable",
      "type": "function"
    },
    {
      "inputs": [
        {
          "internalType": "bool",
          "name": "_demoOracleMode",
          "type": "bool"
        },
        {
          "internalType": "uint256",
          "name": "_demoOracleDelaySeconds",
          "type": "uint256"
        }
      ],
      "name": "setOracleEvaluationConfig",
      "outputs": [],
      "stateMutability": "nonpayable",
      "type": "function"
    },
    {
      "inputs": [],
      "name": "stablecoin",
      "outputs": [
        {
          "internalType": "contract IERC20",
          "name": "",
          "type": "address"
        }
      ],
      "stateMutability": "view",
      "type": "function"
    },
    {
      "inputs": [],
      "name": "totalActiveCoverageAmount",
      "outputs": [
        {
          "internalType": "uint256",
          "name": "",
          "type": "uint256"
        }
      ],
      "stateMutability": "view",
      "type": "function"
    },
    {
      "inputs": [
        {
          "internalType": "address",
          "name": "newOwner",
          "type": "address"
        }
      ],
      "name": "transferOwnership",
      "outputs": [],
      "stateMutability": "nonpayable",
      "type": "function"
    },
    {
      "inputs": [],
      "name": "unpause",
      "outputs": [],
      "stateMutability": "nonpayable",
      "type": "function"
    },
    {
      "inputs": [
        {
          "internalType": "address",
          "name": "",
          "type": "address"
        },
        {
          "internalType": "uint256",
          "name": "",
          "type": "uint256"
        }
      ],
      "name": "userPolicies",
      "outputs": [
        {
          "internalType": "uint256",
          "name": "",
          "type": "uint256"
        }
      ],
      "stateMutability": "view",
      "type": "function"
    }
  ],
  "transactionHash": "0xfda61d1fa23564cef1876058d717a64d3cbb8e957d0c8ed88ea5aa66ce48eb6e",
  "args": [
    "0xFA71294055CbAF8272269b3b875cBFFdCA382Bb6",
    "0xB330D5d064929790F42E6cE594b9063532d3cF8E",
    "0xF6B0275B8B0C4103739EcF41D62CD78e2af71530",
    "0x7ab4b089C35F0502d3b739a5A84c2DcfC3b3d990"
  ],
  "numDeployments": 4,
  "solcInputHash": "aba8ca07c13a16343b0ed53dc81b0c42",
  "bytecode": "0x60a0604052601e60035534801561001557600080fd5b5060405161269938038061269983398101604081905261003491610283565b806001600160a01b03811661006457604051631e4fbdf760e01b8152600060048201526024015b60405180910390fd5b61006d81610217565b5060017f9b779b17422d0df92223018b32b4d1fa46e071723d6817e2486d003becc55f00556001600160a01b0384166100e85760405162461bcd60e51b815260206004820152601a60248201527f496e76616c696420737461626c65636f696e2061646472657373000000000000604482015260640161005b565b6001600160a01b03831661013e5760405162461bcd60e51b815260206004820152601460248201527f496e76616c696420706f6f6c2061646472657373000000000000000000000000604482015260640161005b565b6001600160a01b0382166101945760405162461bcd60e51b815260206004820152601a60248201527f496e76616c6964206f7261636c6520636f6f7264696e61746f72000000000000604482015260640161005b565b6001600160a01b0381166101da5760405162461bcd60e51b815260206004820152600d60248201526c24b73b30b634b21037bbb732b960991b604482015260640161005b565b506001600160a01b03928316608052600180549284166001600160a01b0319938416178155600280549290941691909216179091556005556102d7565b600080546001600160a01b038381166001600160a01b0319831681178455604051919092169283917f8be0079c531659141344cd1fd0a4f28419497f9722a3daafe3b4186f6b6457e09190a35050565b80516001600160a01b038116811461027e57600080fd5b919050565b6000806000806080858703121561029957600080fd5b6102a285610267565b93506102b060208601610267565b92506102be60408601610267565b91506102cc60608601610267565b905092959194509250565b6080516123996103006000396000818161036f01528181610e380152610e7101526123996000f3fe608060405234801561001057600080fd5b506004361061018e5760003560e01c8063a94c487e116100de578063d3e8948311610097578063e80adc4d11610071578063e80adc4d14610357578063e9cbd8221461036a578063f2fde38b14610391578063f4e2af92146103a457600080fd5b8063d3e8948314610311578063dc45bb6e1461033b578063dcccc8fa1461034357600080fd5b8063a94c487e146102b3578063ab2adc00146102c6578063bff6e7fa146102d9578063cad0b8db146102ec578063cd112e24146102f5578063ce100dcc1461030857600080fd5b8063407726ac1161014b578063715018a611610125578063715018a61461027f57806375749c98146102875780638456cb591461029a5780638da5cb5b146102a257600080fd5b8063407726ac1461022d5780635c975abb146102585780636527a2b31461027657600080fd5b806319ac46141461019357806322d57ba6146101bc5780632b07fce3146101dd5780633ba75434146101fd5780633d36adc5146102125780633f4ba83a14610225575b600080fd5b6101a66101a1366004611cd7565b6103ce565b6040516101b39190611cf2565b60405180910390f35b6101cf6101ca366004611d35565b61043a565b6040519081526020016101b3565b6101f06101eb366004611d35565b610608565b6040516101b39190611dd8565b61021061020b366004611e8d565b61078a565b005b6101cf610220366004611ebe565b61083d565b61021061086e565b600254610240906001600160a01b031681565b6040516001600160a01b0390911681526020016101b3565b600054600160a01b900460ff165b60405190151581526020016101b3565b6101cf60045481565b610210610880565b610266610295366004611d35565b610892565b610210610a5d565b6000546001600160a01b0316610240565b6102106102c1366004611cd7565b610a6d565b600154610240906001600160a01b031681565b6102106102e7366004611cd7565b610b0c565b6101cf60055481565b610210610303366004611eeb565b610bb4565b6101cf60035481565b61032461031f366004611d35565b611163565b6040516101b39b9a99989796959493929190611f9a565b6101cf601481565b60025461026690600160a01b900460ff1681565b6101cf61036536600461202e565b611250565b6102407f000000000000000000000000000000000000000000000000000000000000000081565b61021061039f366004611cd7565b611284565b6103b76103b23660046120e9565b6112c2565b6040805192151583526020830191909152016101b3565b6001600160a01b03811660009081526007602090815260409182902080548351818402810184019094528084526060939283018282801561042e57602002820191906000526020600020905b81548152602001906001019080831161041a575b50505050509050919050565b60008181526006602090815260408083208151610160810183528154815260018201546001600160a01b031693810193909352600281018054859493840191906104839061211f565b80601f01602080910402602001604051908101604052809291908181526020018280546104af9061211f565b80156104fc5780601f106104d1576101008083540402835291602001916104fc565b820191906000526020600020905b8154815290600101906020018083116104df57829003601f168201915b505050918352505060038201546020820152600482015460408201526005820154606082015260068201546080820152600782015460a0820152600882015460c0820152600982015460e09091019060ff16600181111561055f5761055f611d9e565b600181111561057057610570611d9e565b81526020016009820160019054906101000a900460ff16600381111561059857610598611d9e565b60038111156105a9576105a9611d9e565b90525080519091506000036105f85760405162461bcd60e51b815260206004820152601060248201526f141bdb1a58de481b9bdd08199bdd5b9960821b60448201526064015b60405180910390fd5b610601816118a2565b9392505050565b610610611c48565b6000828152600660209081526040918290208251610160810184528154815260018201546001600160a01b031692810192909252600281018054929391929184019161065b9061211f565b80601f01602080910402602001604051908101604052809291908181526020018280546106879061211f565b80156106d45780601f106106a9576101008083540402835291602001916106d4565b820191906000526020600020905b8154815290600101906020018083116106b757829003601f168201915b505050918352505060038201546020820152600482015460408201526005820154606082015260068201546080820152600782015460a0820152600882015460c0820152600982015460e09091019060ff16600181111561073757610737611d9e565b600181111561074857610748611d9e565b81526020016009820160019054906101000a900460ff16600381111561077057610770611d9e565b600381111561078157610781611d9e565b90525092915050565b6107926118d1565b81156107de57600081116107de5760405162461bcd60e51b815260206004820152601360248201527211195b5bc819195b185e481c995c5d5a5c9959606a1b60448201526064016105ef565b6002805460ff60a01b1916600160a01b84151590810291909117909155600382905560408051918252602082018390527f61e7a3b5a814a02b71a71b3054074fc573bc953dad31f31a1fcf435190e1f9d3910160405180910390a15050565b6007602052816000526040600020818154811061085957600080fd5b90600052602060002001600091509150505481565b6108766118d1565b61087e6118fe565b565b6108886118d1565b61087e6000611953565b60008181526006602090815260408083208151610160810183528154815260018201546001600160a01b031693810193909352600281018054859493840191906108db9061211f565b80601f01602080910402602001604051908101604052809291908181526020018280546109079061211f565b80156109545780601f1061092957610100808354040283529160200191610954565b820191906000526020600020905b81548152906001019060200180831161093757829003601f168201915b505050918352505060038201546020820152600482015460408201526005820154606082015260068201546080820152600782015460a0820152600882015460c0820152600982015460e09091019060ff1660018111156109b7576109b7611d9e565b60018111156109c8576109c8611d9e565b81526020016009820160019054906101000a900460ff1660038111156109f0576109f0611d9e565b6003811115610a0157610a01611d9e565b9052506002549091506001600160a01b031615801590610a215750805115155b8015610a43575060008161014001516003811115610a4157610a41611d9e565b145b80156106015750610a53816118a2565b4210159392505050565b610a656118d1565b61087e6119a3565b610a756118d1565b6001600160a01b038116610ac25760405162461bcd60e51b8152602060048201526014602482015273496e76616c696420706f6f6c206164647265737360601b60448201526064016105ef565b600180546001600160a01b0319166001600160a01b0383169081179091556040517fe9c1e3beb9c8e189902322f6d6860eb1f59417b2bd7813d91132e3a3d8075ac490600090a250565b610b146118d1565b6001600160a01b038116610b6a5760405162461bcd60e51b815260206004820152601a60248201527f496e76616c6964206f7261636c6520636f6f7264696e61746f7200000000000060448201526064016105ef565b600280546001600160a01b0319166001600160a01b0383169081179091556040517f2ec89eb4a661480d151d6b48d64c2bbf2fe0891a1af1a553126da3627baa1c3490600090a250565b610bbc6119e6565b610bc4611a02565b86610c0a5760405162461bcd60e51b8152602060048201526016602482015275119b1a59da1d081b9d5b58995c881c995c5d5a5c995960521b60448201526064016105ef565b6014871115610c545760405162461bcd60e51b8152602060048201526016602482015275466c69676874206e756d62657220746f6f206c6f6e6760501b60448201526064016105ef565b428611610ca35760405162461bcd60e51b815260206004820152601b60248201527f446570617274757265206d75737420626520696e20667574757265000000000060448201526064016105ef565b600160ff86161115610ced5760405162461bcd60e51b8152602060048201526013602482015272496e76616c696420706f6c696379207479706560681b60448201526064016105ef565b60008411610d345760405162461bcd60e51b81526020600482015260146024820152730436f766572616765206d757374206265203e20360641b60448201526064016105ef565b60008311610d7b5760405162461bcd60e51b815260206004820152601460248201527304475726174696f6e206d757374206265203e20360641b60448201526064016105ef565b60ff8516610dd35760008211610dd35760405162461bcd60e51b815260206004820152601860248201527f44656c6179207468726573686f6c64207265717569726564000000000000000060448201526064016105ef565b60008111610e195760405162461bcd60e51b815260206004820152601360248201527205072656d69756d206d757374206265203e203606c1b60448201526064016105ef565b600554426000610e29868a61216f565b9050610e606001600160a01b037f000000000000000000000000000000000000000000000000000000000000000016333087611a2d565b600154610e9a906001600160a01b037f00000000000000000000000000000000000000000000000000000000000000008116911686611a69565b60015460405163d5a867b760e01b8152336004820152602481018690526001600160a01b039091169063d5a867b790604401600060405180830381600087803b158015610ee657600080fd5b505af1158015610efa573d6000803e3d6000fd5b50505050604051806101600160405280848152602001336001600160a01b031681526020018c8c8080601f01602080910402602001604051908101604052809392919081815260200183838082843760009201919091525050509082525060208101849052604081018b9052606081018690526080810189905260a0810183905260c0810187905260e00160ff8a166001811115610f9a57610f9a611d9e565b6001811115610fab57610fab611d9e565b81526020016000905260008481526006602090815260409182902083518155908301516001820180546001600160a01b0319166001600160a01b0390921691909117905590820151600282019061100290826121d0565b50606082015160038201556080820151600482015560a0820151600582015560c0820151600682015560e08201516007820155610100820151600882015561012082015160098201805460ff19166001838181111561106357611063611d9e565b021790555061014082015160098201805461ff00191661010083600381111561108e5761108e611d9e565b021790555090505086600460008282546110a8919061216f565b9091555050336000908152600760209081526040822080546001810182559083529082200184905560058054916110de8361228f565b90915550339050837f25d058c1df72d2e828b3e09d843bdbec027e300c78100340ad4084b761fc0f168d8d8d60ff8e16600181111561111f5761111f611d9e565b8a8e8a8a6040516111379897969594939291906122a8565b60405180910390a3505050611159600160008051602061234483398151915255565b5050505050505050565b60066020526000908152604090208054600182015460028301805492936001600160a01b03909216926111959061211f565b80601f01602080910402602001604051908101604052809291908181526020018280546111c19061211f565b801561120e5780601f106111e35761010080835404028352916020019161120e565b820191906000526020600020905b8154815290600101906020018083116111f157829003601f168201915b50505050600383015460048401546005850154600686015460078701546008880154600990980154969794969395509193909260ff808216916101009004168b565b6000828260405160200161126592919061230e565b6040516020818303038152906040528051906020012090505b92915050565b61128c6118d1565b6001600160a01b0381166112b657604051631e4fbdf760e01b8152600060048201526024016105ef565b6112bf81611953565b50565b6000806112cd6119e6565b6112d5611a02565b6002546001600160a01b031633146113285760405162461bcd60e51b81526020600482015260166024820152752737ba1037b930b1b6329031b7b7b93234b730ba37b960511b60448201526064016105ef565b6000858152600660205260408120805490910361137a5760405162461bcd60e51b815260206004820152601060248201526f141bdb1a58de481b9bdd08199bdd5b9960821b60448201526064016105ef565b60006009820154610100900460ff16600381111561139a5761139a611d9e565b146113db5760405162461bcd60e51b8152602060048201526011602482015270506f6c696379206e6f742061637469766560781b60448201526064016105ef565b60408051610160810182528254815260018301546001600160a01b03166020820152600283018054611544938592908401916114169061211f565b80601f01602080910402602001604051908101604052809291908181526020018280546114429061211f565b801561148f5780601f106114645761010080835404028352916020019161148f565b820191906000526020600020905b81548152906001019060200180831161147257829003601f168201915b505050918352505060038201546020820152600482015460408201526005820154606082015260068201546080820152600782015460a0820152600882015460c0820152600982015460e09091019060ff1660018111156114f2576114f2611d9e565b600181111561150357611503611d9e565b81526020016009820160019054906101000a900460ff16600381111561152b5761152b611d9e565b600381111561153c5761153c611d9e565b9052506118a2565b42101561158c5760405162461bcd60e51b81526020600482015260166024820152754f7261636c6520636865636b206e6f7420726561647960501b60448201526064016105ef565b60408051610160810182528254815260018301546001600160a01b031660208201526002830180546000936116fb93928692918401916115cb9061211f565b80601f01602080910402602001604051908101604052809291908181526020018280546115f79061211f565b80156116445780601f1061161957610100808354040283529160200191611644565b820191906000526020600020905b81548152906001019060200180831161162757829003601f168201915b505050918352505060038201546020820152600482015460408201526005820154606082015260068201546080820152600782015460a0820152600882015460c0820152600982015460e09091019060ff1660018111156116a7576116a7611d9e565b60018111156116b8576116b8611d9e565b81526020016009820160019054906101000a900460ff1660038111156116e0576116e0611d9e565b60038111156116f1576116f1611d9e565b9052508787611aa3565b905060008260060154905080600460008282546117189190612330565b909155508290506117a05760098301805461ff0019166101001790556001830154604080516000808252602082015260ff8a16818301526060810189905290516001600160a01b03909216918a917f2e0201d05a6aa01892f5cc5fbd92778cb18eeaf88ef08660cb3dc86cdc0102cf919081900360800190a360008094509450505050611883565b60098301805461030061ff0019909116179055600180549084015460405163011081c560e11b81526001600160a01b03918216600482015260248101849052911690630221038a90604401600060405180830381600087803b15801561180557600080fd5b505af1158015611819573d6000803e3d6000fd5b5050505060018381015460408051848152602081019390935260ff8a1690830152606082018890526001600160a01b03169089907f2e0201d05a6aa01892f5cc5fbd92778cb18eeaf88ef08660cb3dc86cdc0102cf9060800160405180910390a360019450925050505b61189a600160008051602061234483398151915255565b935093915050565b600254600090600160a01b900460ff16156118c957600354826060015161127e919061216f565b506080015190565b6000546001600160a01b0316331461087e5760405163118cdaa760e01b81523360048201526024016105ef565b611906611b16565b6000805460ff60a01b191690557f5db9ee0a495bf2e6ff9c91a7834c1ba4fdd244a5e8aa4e537bd38aeae4b073aa335b6040516001600160a01b03909116815260200160405180910390a1565b600080546001600160a01b038381166001600160a01b0319831681178455604051919092169283917f8be0079c531659141344cd1fd0a4f28419497f9722a3daafe3b4186f6b6457e09190a35050565b6119ab611a02565b6000805460ff60a01b1916600160a01b1790557f62e78cea01bee320cd4e420270b5ea74000d11b0c9f74754ebdbfc544b05a2586119363390565b6119ee611b40565b600260008051602061234483398151915255565b600054600160a01b900460ff161561087e5760405163d93c066560e01b815260040160405180910390fd5b611a3b848484846001611b70565b611a6357604051635274afe760e01b81526001600160a01b03851660048201526024016105ef565b50505050565b611a768383836001611be2565b611a9e57604051635274afe760e01b81526001600160a01b03841660048201526024016105ef565b505050565b6000808461012001516001811115611abd57611abd611d9e565b03611ae1578260ff166002148015611ada57508361010001518210155b9050610601565b60018461012001516001811115611afa57611afa611d9e565b03611b0c5750600360ff831614610601565b5060009392505050565b600054600160a01b900460ff1661087e57604051638dfc202b60e01b815260040160405180910390fd5b6000805160206123448339815191525460020361087e57604051633ee5aeb560e01b815260040160405180910390fd5b6040516323b872dd60e01b60008181526001600160a01b038781166004528616602452604485905291602083606481808c5af192506001600051148316611bd0578383151615611bc3573d6000823e3d81fd5b6000883b113d1516831692505b60405250600060605295945050505050565b60405163a9059cbb60e01b60008181526001600160a01b038616600452602485905291602083604481808b5af192506001600051148316611c3c578383151615611c2f573d6000823e3d81fd5b6000873b113d1516831692505b60405250949350505050565b6040518061016001604052806000815260200160006001600160a01b031681526020016060815260200160008152602001600081526020016000815260200160008152602001600081526020016000815260200160006001811115611caf57611caf611d9e565b81526020016000905290565b80356001600160a01b0381168114611cd257600080fd5b919050565b600060208284031215611ce957600080fd5b61060182611cbb565b602080825282518282018190526000918401906040840190835b81811015611d2a578351835260209384019390920191600101611d0c565b509095945050505050565b600060208284031215611d4757600080fd5b5035919050565b60005b83811015611d69578181015183820152602001611d51565b50506000910152565b60008151808452611d8a816020860160208601611d4e565b601f01601f19169290920160200192915050565b634e487b7160e01b600052602160045260246000fd5b60028110611dc457611dc4611d9e565b9052565b60048110611dc457611dc4611d9e565b602081528151602082015260006020830151611dff60408401826001600160a01b03169052565b5060408301516101606060840152611e1b610180840182611d72565b905060608401516080840152608084015160a084015260a084015160c084015260c084015160e084015260e0840151610100840152610100840151610120840152610120840151611e70610140850182611db4565b50610140840151611e85610160850182611dc8565b509392505050565b60008060408385031215611ea057600080fd5b82358015158114611eb057600080fd5b946020939093013593505050565b60008060408385031215611ed157600080fd5b611eb083611cbb565b803560ff81168114611cd257600080fd5b60008060008060008060008060e0898b031215611f0757600080fd5b883567ffffffffffffffff811115611f1e57600080fd5b8901601f81018b13611f2f57600080fd5b803567ffffffffffffffff811115611f4657600080fd5b8b6020828401011115611f5857600080fd5b6020918201995097508901359550611f7260408a01611eda565b979a96995094976060810135966080820135965060a0820135955060c0909101359350915050565b8b81526001600160a01b038b16602082015261016060408201819052600090611fc59083018c611d72565b90508960608301528860808301528760a08301528660c08301528560e083015284610100830152611ffa610120830185611db4565b612008610140830184611dc8565b9c9b505050505050505050505050565b634e487b7160e01b600052604160045260246000fd5b6000806040838503121561204157600080fd5b823567ffffffffffffffff81111561205857600080fd5b8301601f8101851361206957600080fd5b803567ffffffffffffffff81111561208357612083612018565b604051601f8201601f19908116603f0116810167ffffffffffffffff811182821017156120b2576120b2612018565b6040528181528282016020018710156120ca57600080fd5b8160208401602083013760006020928201830152969401359450505050565b6000806000606084860312156120fe57600080fd5b8335925061210e60208501611eda565b929592945050506040919091013590565b600181811c9082168061213357607f821691505b60208210810361215357634e487b7160e01b600052602260045260246000fd5b50919050565b634e487b7160e01b600052601160045260246000fd5b8082018082111561127e5761127e612159565b601f821115611a9e57806000526020600020601f840160051c810160208510156121a95750805b601f840160051c820191505b818110156121c957600081556001016121b5565b5050505050565b815167ffffffffffffffff8111156121ea576121ea612018565b6121fe816121f8845461211f565b84612182565b6020601f821160018114612232576000831561221a5750848201515b600019600385901b1c1916600184901b1784556121c9565b600084815260208120601f198516915b828110156122625787850151825560209485019460019092019101612242565b50848210156122805786840151600019600387901b60f8161c191681555b50505050600190811b01905550565b6000600182016122a1576122a1612159565b5060010190565b60e081528760e08201528789610100830137600061010089830101526000610100601f19601f8b011683010190508760208301526122e96040830188611db4565b8560608301528460808301528360a08301528260c08301529998505050505050505050565b60008351612320818460208801611d4e565b9190910191825250602001919050565b8181038181111561127e5761127e61215956fe9b779b17422d0df92223018b32b4d1fa46e071723d6817e2486d003becc55f00a26469706673582212203eeca73b44c391afc66d457463f220460da9598113321f4f9245ccd1c67b62de64736f6c634300081e0033",
  "devdoc": {
    "errors": {
      "EnforcedPause()": [
        {
          "details": "The operation failed because the contract is paused."
        }
      ],
      "ExpectedPause()": [
        {
          "details": "The operation failed because the contract is not paused."
        }
      ],
      "OwnableInvalidOwner(address)": [
        {
          "details": "The owner is not a valid owner account. (eg. `address(0)`)"
        }
      ],
      "OwnableUnauthorizedAccount(address)": [
        {
          "details": "The caller account is not authorized to perform an operation."
        }
      ],
      "ReentrancyGuardReentrantCall()": [
        {
          "details": "Unauthorized reentrant call."
        }
      ],
      "SafeERC20FailedOperation(address)": [
        {
          "details": "An operation with an ERC-20 token failed."
        }
      ]
    },
    "events": {
      "Paused(address)": {
        "details": "Emitted when the pause is triggered by `account`."
      },
      "Unpaused(address)": {
        "details": "Emitted when the pause is lifted by `account`."
      }
    },
    "kind": "dev",
    "methods": {
      "owner()": {
        "details": "Returns the address of the current owner."
      },
      "paused()": {
        "details": "Returns true if the contract is paused, and false otherwise."
      },
      "renounceOwnership()": {
        "details": "Leaves the contract without owner. It will not be possible to call `onlyOwner` functions. Can only be called by the current owner. NOTE: Renouncing ownership will leave the contract without an owner, thereby disabling any functionality that is only available to the owner."
      },
      "transferOwnership(address)": {
        "details": "Transfers ownership of the contract to a new account (`newOwner`). Can only be called by the current owner."
      }
    },
    "version": 1
  },
  "userdoc": {
    "kind": "user",
    "methods": {},
    "version": 1
  },
  "storageLayout": {
    "storage": [
      {
        "astId": 8,
        "contract": "contracts/PolicyManager.sol:PolicyManager",
        "label": "_owner",
        "offset": 0,
        "slot": "0",
        "type": "t_address"
      },
      {
        "astId": 809,
        "contract": "contracts/PolicyManager.sol:PolicyManager",
        "label": "_paused",
        "offset": 20,
        "slot": "0",
        "type": "t_bool"
      },
      {
        "astId": 1670,
        "contract": "contracts/PolicyManager.sol:PolicyManager",
        "label": "insurancePool",
        "offset": 0,
        "slot": "1",
        "type": "t_address"
      },
      {
        "astId": 1672,
        "contract": "contracts/PolicyManager.sol:PolicyManager",
        "label": "oracleCoordinator",
        "offset": 0,
        "slot": "2",
        "type": "t_address"
      },
      {
        "astId": 1674,
        "contract": "contracts/PolicyManager.sol:PolicyManager",
        "label": "demoOracleMode",
        "offset": 20,
        "slot": "2",
        "type": "t_bool"
      },
      {
        "astId": 1677,
        "contract": "contracts/PolicyManager.sol:PolicyManager",
        "label": "demoOracleDelaySeconds",
        "offset": 0,
        "slot": "3",
        "type": "t_uint256"
      },
      {
        "astId": 1679,
        "contract": "contracts/PolicyManager.sol:PolicyManager",
        "label": "totalActiveCoverageAmount",
        "offset": 0,
        "slot": "4",
        "type": "t_uint256"
      },
      {
        "astId": 1681,
        "contract": "contracts/PolicyManager.sol:PolicyManager",
        "label": "nextPolicyId",
        "offset": 0,
        "slot": "5",
        "type": "t_uint256"
      },
      {
        "astId": 1722,
        "contract": "contracts/PolicyManager.sol:PolicyManager",
        "label": "policies",
        "offset": 0,
        "slot": "6",
        "type": "t_mapping(t_uint256,t_struct(Policy)1717_storage)"
      },
      {
        "astId": 1727,
        "contract": "contracts/PolicyManager.sol:PolicyManager",
        "label": "userPolicies",
        "offset": 0,
        "slot": "7",
        "type": "t_mapping(t_address,t_array(t_uint256)dyn_storage)"
      }
    ],
    "types": {
      "t_address": {
        "encoding": "inplace",
        "label": "address",
        "numberOfBytes": "20"
      },
      "t_array(t_uint256)dyn_storage": {
        "base": "t_uint256",
        "encoding": "dynamic_array",
        "label": "uint256[]",
        "numberOfBytes": "32"
      },
      "t_bool": {
        "encoding": "inplace",
        "label": "bool",
        "numberOfBytes": "1"
      },
      "t_enum(PolicyStatus)1692": {
        "encoding": "inplace",
        "label": "enum PolicyManager.PolicyStatus",
        "numberOfBytes": "1"
      },
      "t_enum(PolicyType)1687": {
        "encoding": "inplace",
        "label": "enum PolicyManager.PolicyType",
        "numberOfBytes": "1"
      },
      "t_mapping(t_address,t_array(t_uint256)dyn_storage)": {
        "encoding": "mapping",
        "key": "t_address",
        "label": "mapping(address => uint256[])",
        "numberOfBytes": "32",
        "value": "t_array(t_uint256)dyn_storage"
      },
      "t_mapping(t_uint256,t_struct(Policy)1717_storage)": {
        "encoding": "mapping",
        "key": "t_uint256",
        "label": "mapping(uint256 => struct PolicyManager.Policy)",
        "numberOfBytes": "32",
        "value": "t_struct(Policy)1717_storage"
      },
      "t_string_storage": {
        "encoding": "bytes",
        "label": "string",
        "numberOfBytes": "32"
      },
      "t_struct(Policy)1717_storage": {
        "encoding": "inplace",
        "label": "struct PolicyManager.Policy",
        "members": [
          {
            "astId": 1694,
            "contract": "contracts/PolicyManager.sol:PolicyManager",
            "label": "policyId",
            "offset": 0,
            "slot": "0",
            "type": "t_uint256"
          },
          {
            "astId": 1696,
            "contract": "contracts/PolicyManager.sol:PolicyManager",
            "label": "holder",
            "offset": 0,
            "slot": "1",
            "type": "t_address"
          },
          {
            "astId": 1698,
            "contract": "contracts/PolicyManager.sol:PolicyManager",
            "label": "flightNumber",
            "offset": 0,
            "slot": "2",
            "type": "t_string_storage"
          },
          {
            "astId": 1700,
            "contract": "contracts/PolicyManager.sol:PolicyManager",
            "label": "purchaseTime",
            "offset": 0,
            "slot": "3",
            "type": "t_uint256"
          },
          {
            "astId": 1702,
            "contract": "contracts/PolicyManager.sol:PolicyManager",
            "label": "departureTimestamp",
            "offset": 0,
            "slot": "4",
            "type": "t_uint256"
          },
          {
            "astId": 1704,
            "contract": "contracts/PolicyManager.sol:PolicyManager",
            "label": "premium",
            "offset": 0,
            "slot": "5",
            "type": "t_uint256"
          },
          {
            "astId": 1706,
            "contract": "contracts/PolicyManager.sol:PolicyManager",
            "label": "coverageAmount",
            "offset": 0,
            "slot": "6",
            "type": "t_uint256"
          },
          {
            "astId": 1708,
            "contract": "contracts/PolicyManager.sol:PolicyManager",
            "label": "endTime",
            "offset": 0,
            "slot": "7",
            "type": "t_uint256"
          },
          {
            "astId": 1710,
            "contract": "contracts/PolicyManager.sol:PolicyManager",
            "label": "delayThresholdMinutes",
            "offset": 0,
            "slot": "8",
            "type": "t_uint256"
          },
          {
            "astId": 1713,
            "contract": "contracts/PolicyManager.sol:PolicyManager",
            "label": "policyType",
            "offset": 0,
            "slot": "9",
            "type": "t_enum(PolicyType)1687"
          },
          {
            "astId": 1716,
            "contract": "contracts/PolicyManager.sol:PolicyManager",
            "label": "status",
            "offset": 1,
            "slot": "9",
            "type": "t_enum(PolicyStatus)1692"
          }
        ],
        "numberOfBytes": "320"
      },
      "t_uint256": {
        "encoding": "inplace",
        "label": "uint256",
        "numberOfBytes": "32"
      }
    }
  }
}